:04000000DDEF08F038
:101000000048656C6C6F20576F726C64000092949E
:101010008084020E106E800E116E020E57EC08F0E6
:10102000000E126E010E04EC09F0000E126E000E9E
:1010300004EC09F0000E126E000E11EC09F03F0EE8
:1010400082EC08F00F0E82EC08F0010E82EC08F042
:10105000060E82EC08F0010E156E100E166EC3EC33
:1010600008F0400E2FEC09F000D0000E186E0F0EA5
:10107000186401D0FAD71850400F2FEC09F019501E
:10108000010D010EF324D96E000EF420DA6EDF504C
:10109000A4EC08F0192A0F0E1918D8A403D0000EDA
:1010A000196E00D0182AE3D7E0D700EF00F0126ED7
:1010B0003F0EC716000EC66E1250C6121150C71250
:1010C00005D0C78C13D0C78CC68810D01050000A2A
:1010D000D8B4F7D7020AD8B4F6D7010AD8B4F4D7EF
:1010E00005D0978E94860AD0949608D01250040AA0
:1010F000D8B4F7D7010AD8B4F5D7F6D79488949A1C
:10110000C68A1200146E000E126E120E11EC09F057
:10111000000E1EEC09F014C012F0130E11EC09F0D1
:10112000000E1EEC09F0400E126E120E11EC09F0CA
:10113000000E1EEC09F0000E126E120E11EC09F0FA
:10114000000E1EEC09F01200146E800E126E120ECC
:1011500011EC09F0000E1EEC09F014C012F0130E91
:1011600011EC09F0C00E126E120E11EC09F0000E17
:101170001EEC09F0000E126E120E11EC09F0000EBA
:101180001EEC09F012000DD015C0F6FF16C0F7FFD7
:10119000000EF86E0800F550A4EC08F0154A162A67
:1011A00000D015C0F6FF16C0F7FF000EF86E08005D
:1011B000F5500009D8A4E8D71200196A186A176A0E
:1011C0004E0EF66E120EF76E000EF86E00EE01F087
:1011D00010EE0FF00900F5CFEEFFE550E150FAE117
:1011E000000107EF08F0116EC9CF10F09E96C69E61
:1011F00011C0C9FFC6BE07D002D005D000D09EB630
:1012000002D0FDD700D01200136E8094400EF3EC94
:1012100008F01350F3EC08F01250F3EC08F080845F
:101220001200136E8094400EF3EC08F01350F3ECB0
:1012300008F01250F3EC08F080841200106E030ED8
:10124000E82EFED700F0102EFAD700D012004D790C
:10125000206E616D6520697320416C657800156EA4
:0A1260001550800F82EC08F0120018
:020000040020DA
:08000000FFFFFFFFFFFFFFFF00
:020000040030CA
:0E000000FF021F1EF38385FFFFC0FFE0FF40DD
:00000001FF
