:040000000CEF00F011
:10000800FACF01F0FBCF02F0E9CF03F019ED0BF0C6
:04001800FCEF0CF0FD
:1010000000383638303A2000383732323A20000083
:101010001EEC0DF0F20E116EB10E126E430E136E39
:1010200084EC0CF0829C50C066FF00D04F04D8A422
:10103000FDD7000E4F6E020E4D18D8B410D0030E1F
:101040004D18D8B40CD0040E4D18D8B408D0060EE4
:101050004D18D8B404D0080E4D18D8A45AD0020E9A
:101060004D18D8A409D039C011F03AC012F03BC0D5
:1010700013F084EC0CF034D0030E4D18D8A409D032
:101080003CC011F03DC012F03EC013F084EC0CF0F7
:1010900027D0040E4D18D8A409D045C011F046C081
:1010A00012F047C013F084EC0CF01AD0060E4D1865
:1010B000D8A409D042C011F043C012F044C013F0CC
:1010C00084EC0CF00DD0080E4D18D8A409D03FC008
:1010D00011F040C012F041C013F084EC0CF000D0CD
:1010E000829C000E00016A6F0FD091D000016A51FE
:1010F000010D350EF324D96E000EF420DA6EDF50A8
:10110000E6EC0CF000016A2B030E00016A65EED7D5
:101110007ED04D04D8B40CD0050E4D18D8B408D0EC
:10112000070E4D18D8B404D0090E4D18D8A472D0AB
:10113000829C000E00016A6F040E00016A19D8B487
:1011400011D001D00FD000016A51010D350EF324EA
:10115000D96E000EF420DA6E0EEC0DF0DF6E000199
:101160006A2BEAD74D04D8A413D021EC0CF00FC0A1
:1011700048F010C049F011C04AF0030E4E6E48C04E
:1011800060F049C061F04AC062F00EEC09F03FD057
:10119000050E4D18D8A411D021EC0CF00FC045F06D
:1011A00010C046F011C047F045C060F046C061F085
:1011B00047C062F00EEC09F02AD0070E4D18D8A4F3
:1011C00011D021EC0CF00FC042F010C043F011C060
:1011D00044F042C060F043C061F044C062F00EECE5
:1011E00009F015D0090E4D18D8A411D021EC0CF03F
:1011F0000FC03FF010C040F011C041F03FC060F0A0
:1012000040C061F041C062F00EEC09F000D066CF42
:1012100069F000D0A38E0AD70CEF00F0010E43EC6A
:101220000CF0400E25EC0DF0000E1A6EC80E1B6E71
:10123000420E1C6E60C017F061C018F062C019F059
:10124000C7EC09F017C026F018C027F019C028F025
:1012500043EC0AF026C063F027C064F063C00FF0CF
:1012600064C010F0270E126E100E116E52EC0BF0CF
:101270000FC065F010C066F063C00FF064C010F0DE
:10128000270E126E100E116ED6EC0BF00FC067F029
:1012900010C068F00001655100016611D8B405D096
:1012A00000016551300F65EC0CF067C00FF068C0AD
:1012B00010F0030E126EE80E116E52EC0BF00FC020
:1012C00065F010C066F067C00FF068C010F0030E44
:1012D000126EE80E116ED6EC0BF00FC067F010C066
:1012E00068F00001655100016611D8B405D0000115
:1012F0006551300F65EC0CF067C00FF068C010F05E
:10130000000E126E640E116E52EC0BF00FC065F001
:1013100010C066F067C00FF068C010F0000E126ECB
:10132000640E116ED6EC0BF00FC067F010C068F0C1
:1013300000016551300F65EC0CF02E0E65EC0CF0E1
:1013400067C00FF068C010F0000E126E0A0E116E2A
:1013500052EC0BF00FC065F010C066F067C00FF0E4
:1013600068C010F0000E126E0A0E116ED6EC0BF073
:101370000FC067F010C068F000016551300F65ECD8
:101380000CF000016751300F65EC0CF0120019C031
:101390001DF01E6A1F6A18341D3601E31E801D50A1
:1013A000206E2050D8A402D00ED06CD01CC01DF0EE
:1013B0001E6A1F6A1B341D3601E31E801D50256EF8
:1013C0002550D8A407D0000E176E000E186E000E20
:1013D000196E58D025507B0F202619C025F01C50BF
:1013E000251A800E2516188E1B8EFF0E1A16FF0E5C
:1013F0001B16000E1C16000E216E000E226E000E33
:10140000236E070E246E00D017A007D01A50212695
:101410001B5022221C50232200D0D890193218329F
:101420001732D8901A361B361C36242EEDD700D032
:10143000090E246E00D017A007D01A5021261B5089
:1014400022221C50232200D0D89019321832173291
:10145000D890233222322132242EEDD700D021C061
:101460000FF022C010F023C011F020C012F025C0F0
:1014700013F0B6EC0AF00FC017F010C018F011C04E
:1014800019F000D0120028C02AF02B6A2C6A2734E9
:101490002A3601E32B802A50346E3450D8A402D06F
:1014A00039D063D0170E2A6E26C02BF027C02CF03F
:1014B00028C02DF02A282E6E04D0D8902D322C3240
:1014C0002B322E2EFAD72B502F6E278EFF0E26167C
:1014D000FF0E2716000E28162650306E2750316E4C
:1014E0002850326E336A8E0E345E34AE10D03450D3
:1014F000800A8F0FD8B003D00DD037D000D0D8904D
:101500003332323231323032343EF9D719D0170EFD
:10151000346411D0000E266E000E276E000E286E69
:10152000000E296E22D007D0D890303631363236B0
:101530003336340600D03450D8B402D0F5D700D0BA
:101540002F50D8B409D0331E321E311E306C000E1D
:1015500031223222332200D030C026F031C027F0B1
:1015600032C028F033C029F000D012001250D8B495
:1015700005D00F5010101110D8A40ED0000E0F6E11
:10158000000E106E000E116E53D006D0122AD890A5
:10159000113210320F3200D0000E0F14146E000EF4
:1015A0001014156EFE0E1114166E14501510161030
:1015B000D8B40ED0EBD70CD0122A010E0F26000E95
:1015C0001022000E1122D890113210320F3200D0AA
:1015D000000E0F14146E000E1014156EFF0E111471
:1015E000166E145015101610D8B408D0E5D706D0D2
:1015F0001206D8900F361036113600D010BE04D027
:10160000020E1260F5D700D012B002D0109E00D0AA
:10161000D8901232125011121350D8B402D0118E39
:1016200000D00FC00FF010C010F011C011F000D0AA
:1016300012000600EACF04F0E1CF05F0E2CF06F099
:10164000D9CF07F0DACF08F0F3CF09F0F4CF0AF0E2
:10165000F6CF0BF0F7CF0CF0F8CF0DF0F5CF0EF082
:10166000A4AE03D016EC0DF000D00EC0F5FF0DC0F7
:10167000F8FF0CC0F7FF0BC0F6FF0AC0F4FF09C06B
:10168000F3FF08C0DAFF07C0D9FF06C0E2FF05C0BC
:10169000E1FF04C0EAFF03C0E9FF02C0FBFF01C095
:1016A000FAFF1100000E156E000E146E115012108C
:1016B000D8B421D0010E136E05D0D8901136123651
:1016C000132A00D012BE02D0F8D700D0D89014361A
:1016D000153611500F5C12501058D8A006D011507A
:1016E0000F5E1250105A148000D0D890123211326E
:1016F000132EECD700D014C00FF015C010F012005C
:10170000116E3F0EC716000EC66E1150C612105055
:10171000C71205D0C78C13D0C78CC68810D00F5005
:10172000000AD8B4F7D7020AD8B4F6D7010AD8B459
:10173000F4D705D0978E94860AD0949608D011508D
:10174000040AD8B4F7D7010AD8B4F5D7F6D79488E5
:10175000949AC68A1200116E3F0E6416000E636ED4
:10176000115063121050641205D0648C13D0648C35
:10177000638810D00F50000AD8B4F7D7020AD8B443
:10178000F6D7010AD8B4F4D705D0958E958C0AD037
:10179000959C08D01150040AD8B4F7D7010AD8B4E0
:1017A000F5D7F6D7958A9598638A120011501210D2
:1017B000D8B41DD0010E136E05D0D8901136123654
:1017C000132A00D012BE02D0F8D700D011500F5CFF
:1017D00012501058D8A005D011500F5E1250105A58
:1017E00000D0D89012321132132EF0D700D00FC093
:1017F0000FF010C010F0120092948084020E0F6E51
:10180000800E106E020E80EC0BF0000E116E010EB9
:10181000CCEC0CF0000E116E000ECCEC0CF0000EB7
:10182000116E000ED9EC0CF03F0E43EC0CF00F0ED5
:1018300043EC0CF0010E43EC0CF0060E43EC0CF004
:101840001200120E4B6E000E4C6E4BC0D9FF4CC0F6
:10185000DAFF35C0DFFF20EE01F04B50D9264C50A7
:10186000DA2236C0DFFF20EE02F04B50D9264C5072
:10187000DA2237C0DFFF12C00FF013C010F014C01F
:1018800011F000D01200136E000E116E120ED9EC82
:101890000CF0000E05EC0DF013C011F0130ED9EC96
:1018A0000CF0000E05EC0DF0400E116E120ED9EC8E
:1018B0000CF0000E05EC0DF0000E116E120ED9ECBE
:1018C0000CF0000E05EC0DF01200136E800E116E80
:1018D000120ED9EC0CF0000E05EC0DF013C011F057
:1018E000130ED9EC0CF0C00E116E120ED9EC0CF0E8
:1018F000000E05EC0DF0000E116E120ED9EC0CF07E
:10190000000E05EC0DF01200110E4B6E000E4C6E29
:101910004BC0D9FF4CC0DAFFDF50356E20EE01F02E
:101920004B50D9264C50DA22DF50366E20EE02F0B2
:101930004B50D9264C50DA22DF50376EA2EC0CF017
:10194000386E1200000E0F6E000E106E030E10188F
:10195000D8B40ED001D00CD01050010D350EF324A8
:10196000D96E000EF420DA6EDF500F26102AEED763
:101970000F5000D01200106EC9CF0FF09E96C69E79
:1019800010C0C9FFC6BE07D002D005D000D09EB699
:1019900002D0FDD700D01200126E8094400EBBEC36
:1019A0000CF01250BBEC0CF01150BBEC0CF080842E
:1019B0001200126E8094400EBBEC0CF01250BBEC87
:1019C0000CF01150BBEC0CF080841200106E10C0B3
:1019D00066FFA49E66CF0FF000D0A4AEFED7639C36
:1019E000A49E1200000E0F6E000E106E040EABECE3
:1019F0000BF0949CA38E120000EE35F01C0EEE6AE4
:101A0000E806FDE1000108EF08F00F6E030EE82E76
:101A1000FED700F00F2EFAD700D01200000E666E2F
:101A200000D064A0FED7665000D0120066CF4DF003
:101A3000829CA49EA39E010E4F6E1200FCEC0BF044
:101A4000F2EC0CF0F28EF28C1200146E1450800F37
:061A500043EC0CF0120053
:020000040020DA
:08000000FFFFFFFFFFFFFFFF00
:020000040030CA
:0E000000FF061F1EF38385FFFFC0FFE0FF40D9
:00000001FF
