:04000000B0EF0BF062
:1010000000416E676C653A2000383638303A20006F
:10101000383732323A200000090E52EC0CF0000E44
:101020000F6EC80E106E420E116E2AC00CF02BC04F
:101030000DF02CC00EF0C0EC08F00CC01BF00DC081
:101040001CF00EC01DF03CEC09F01BC02FF01CC0C2
:1010500030F02FC001F030C002F0270E046E100EE9
:10106000036E4FEC0AF001C02DF002C02EF02D509F
:10107000300F41EC0BF02D50300F446E2FC001F0BB
:1010800030C002F0270E046E100E036ED4EC0AF08E
:1010900001C02FF002C030F02FC001F030C002F0CC
:1010A000030E046EE80E036E4FEC0AF001C02DF043
:1010B00002C02EF02D50300F41EC0BF02D50300FB0
:1010C000456E2FC001F030C002F0030E046EE80E32
:1010D000036ED4EC0AF001C02FF002C030F02FC034
:1010E00001F030C002F0000E046E640E036E4FEC8F
:1010F0000AF001C02DF002C02EF02D50300F41EC4F
:101100000BF02D50300F466E2E0E41EC0BF02FC021
:1011100001F030C002F0000E046E640E036ED4ECD9
:101120000AF001C02FF002C030F02FC001F030C033
:1011300002F0000E046E0A0E036E4FEC0AF001C0BE
:101140002DF002C02EF02D50300F41EC0BF02D5041
:10115000300F476E2FC001F030C002F0000E046E59
:101160000A0E036ED4EC0AF001C02FF002C030F07A
:101170002F50300F41EC0BF02D50300F486E120005
:101180000EC012F0136A146A0D34123601E3138094
:101190001250156E1550D8A402D00ED06CD011C0CC
:1011A00012F0136A146A1034123601E313801250DD
:1011B0001A6E1A50D8A407D0000E0C6E000E0D6ED9
:1011C000000E0E6E58D01A507B0F15260EC01AF066
:1011D00011501A1A800E1A160D8E108EFF0E0F1651
:1011E000FF0E1016000E1116000E166E000E176E72
:1011F000000E186E070E196E00D00CA007D00F500D
:101200001626105017221150182200D0D8900E32F6
:101210000D320C32D8900F3610361136192EEDD70C
:1012200000D0090E196E00D00CA007D00F50162662
:10123000105017221150182200D0D8900E320D32C3
:101240000C32D890183217321632192EEDD700D042
:1012500016C001F017C002F018C003F015C004F06A
:101260001AC005F0AFEC09F001C00CF002C00DF09F
:1012700003C00EF000D012001DC01FF0206A216ACA
:101280001C341F3601E320801F50296E2950D8A43A
:1012900002D039D063D0170E1F6E1BC020F01CC0C7
:1012A00021F01DC022F01F28236E04D0D8902232D6
:1012B00021322032232EFAD72050246E1C8EFF0EAE
:1012C0001B16FF0E1C16000E1D161B50256E1C5003
:1012D000266E1D50276E286A8E0E295E29AE10D00C
:1012E0002950800A8F0FD8B003D00DD037D000D04E
:1012F000D8902832273226322532293EF9D719D004
:10130000170E296411D0000E1B6E000E1C6E000E0D
:101310001D6E000E1E6E22D007D0D89025362636C0
:1013200027362836290600D02950D8B402D0F5D760
:1013300000D02450D8B409D0281E271E261E256CA4
:10134000000E26222722282200D025C01BF026C00E
:101350001CF027C01DF028C01EF000D01200045061
:10136000D8B405D0015002100310D8A40ED0000E3E
:10137000016E000E026E000E036E53D006D0042ADA
:10138000D89003320232013200D0000E0114066EF2
:10139000000E0214076EFE0E0314086E06500710AE
:1013A0000810D8B40ED0EBD70CD0042A010E0126B9
:1013B000000E0222000E0322D890033202320132C4
:1013C00000D0000E0114066E000E0214076EFF0E10
:1013D0000314086E065007100810D8B408D0E5D7DB
:1013E00006D00406D89001360236033600D002BE7D
:1013F00004D0020E0460F5D700D004B002D0029EE3
:1014000000D0D8900432045003120550D8B402D052
:10141000038E00D001C001F002C002F003C003F04F
:1014200000D012001FEC0CF0000E52EC0CF0010E7C
:10143000066E100E076E7CEC0BF000D07DEC0AF00F
:1014400002C01BF003C01CF060EC0BF01BC02AF0C4
:101450001CC02BF01DC02CF00CEC08F0010E026E2D
:10146000100E036E96EC0BF0445045EC0CF045501A
:1014700045EC0CF0465045EC0CF02E0E45EC0CF013
:10148000475045EC0CF0485045EC0CF00A0E45EC8A
:101490000CF00D0E45EC0CF0D1D700EF00F0000E73
:1014A000066E000E056E03500410D8B421D0010E54
:1014B000076E05D0D89003360436072A00D004BE44
:1014C00002D0F8D700D0D890053606360350015C1C
:1014D00004500258D8A006D00350015E0450025AAE
:1014E000058000D0D89004320332072EECD700D00C
:1014F00005C001F006C002F0120084828490000E44
:101500000B6E03D005D000F00B2A070E0B64FBD73F
:1015100084848494010E3CEC0CF087CF07F083CFD9
:1015200008F08484848008C009F00A6A07C004F0C7
:101530000F0E04160450066E056A09500510096E58
:101540000A5006100A6E09C002F00AC003F000D06B
:101550001200036E3F0EC716000EC66E0350C61271
:101560000250C71205D0C78C13D0C78CC68810D0C4
:101570000150000AD8B4F7D7020AD8B4F6D7010A46
:10158000D8B4F4D705D0978E94860AD0949608D014
:101590000350040AD8B4F7D7010AD8B4F5D7F6D760
:1015A0009488949AC68A120003500410D8B41DD0AF
:1015B000010E056E05D0D89003360436052A00D0FA
:1015C00004BE02D0F8D700D00350015C045002588A
:1015D000D8A005D00350015E0450025A00D0D89024
:1015E00004320332052EF0D700D001C001F002C052
:1015F00002F0120092948084020E016E800E026E40
:10160000020EA9EC0AF0000E036E010E05EC0CF0C0
:10161000000E036E000E05EC0CF0000E036E000EC3
:1016200012EC0CF03F0E1FEC0BF00F0E1FEC0BF04A
:10163000010E1FEC0BF0060E1FEC0BF01200056EF6
:10164000000E036E120E12EC0CF0000E3CEC0CF0CF
:1016500005C003F0130E12EC0CF0000E3CEC0CF085
:10166000400E036E120E12EC0CF0000E3CEC0CF06F
:10167000000E036E120E12EC0CF0000E3CEC0CF09F
:101680001200056E800E036E120E12EC0CF0000EAE
:101690003CEC0CF005C003F0130E12EC0CF0C00E85
:1016A000036E120E12EC0CF0000E3CEC0CF0000E6F
:1016B000036E120E12EC0CF0000E3CEC0CF012005B
:1016C0001BC009F01CC00AF0E1EC0BF009C00CF0E3
:1016D0000AC00DF00BC00EF0000E0F6EB40E106EAF
:1016E0003D0E116EC0EC08F00CC01BF00DC01CF0DC
:1016F0000EC01DF000D012000DD006C0F6FF07C0CE
:10170000F7FF000EF86E0800F55041EC0BF0064AAA
:10171000072A00D006C0F6FF07C0F7FF000EF86EDC
:101720000800F5500009D8A4E8D712000DD002C077
:10173000F6FF03C0F7FF000EF86E0800F55045EC09
:101740000CF0024A032A00D002C0F6FF03C0F7FFE4
:10175000000EF86E0800F5500009D8A4E8D7120072
:1017600000EE31F0130EEE6AE806FDE1B00EF66E03
:10177000180EF76E000EF86E00EE44F010EE05F055
:101780000900F5CFEEFFE550E150FAE1000112EF5C
:101790000AF0956899689690969296949A90968A8F
:1017A000968C968E88900A0E3CEC0CF08880140E75
:1017B00033EC0CF08490010E4CEC0CF0848084949B
:1017C000120009C001F00AC002F0036A8E0E046E16
:1017D000000E056EAFEC09F001C009F002C00AF07E
:1017E00003C00BF000D01200026EC9CF01F09E962C
:1017F000C69E02C0C9FFC6BE07D002D005D000D029
:101800009EB602D0FDD700D01200046E8094400E28
:10181000F4EC0BF00450F4EC0BF00350F4EC0BF090
:1018200080841200046E8094400EF4EC0BF004509F
:10183000F4EC0BF00350F4EC0BF08084120000D0B9
:10184000D3A6FED729EC0CF0C9EC0BF0FAEC0AF0A9
:101850001200240EAC6E900EAB6E000E7E6E150E56
:10186000AF6E9D8A1200016EFA0E00F0E82EFDD7D1
:10187000012EFAD700D01200016E030EE82EFED71B
:1018800000F0012EFAD700D01200016E01C0ADFFAA
:1018900000D09EA8FED71200016E00F0012EFDD7E9
:1018A00000D01200066E0650800F1FEC0BF01200E5
:0618B00033343132320036
:020000040020DA
:08000000FFFFFFFFFFFFFFFF00
:020000040030CA
:0E000000FF061E1EF38385FFFFC0FFE0FF40DA
:00000001FF
