:040000000CEF00F011
:10000800FACFA0F0FBCFA1F0E9CFA2F0F9ED13F001
:04001800B7EF15F039
:101000000057656C636F6D6520746F207468652090
:10101000776F726C64206F6620746F6D6F72726F81
:10102000772121210020202056616C75653A20002F
:101030004B65793A20003F3F3F0056454C00504FEA
:10104000530076656C00706F73004B44004B490091
:101050004B5000415A006B64006B69006B7000617B
:101060007A00000058A225D042C055F043C056F087
:1010700044C057F0000E0001B16F000E0001B26FC6
:10108000000E0001B36F000E0001B76F000E0001EB
:10109000B86F000E0001B96F000E0001B46F000EB2
:1010A0000001B56F000E0001B66F5850010B586E6D
:1010B00000D0000E336E340E346E430E356E55C0C4
:1010C0002AF056C02BF057C02CF045C001F046C0A6
:1010D00002F047C003F04DEC16F001C027F002C04B
:1010E00028F003C029F06EEC10F027C036F028C0BD
:1010F00037F029C038F0AEEC13F0D8A026D055C098
:101100002AF056C02BF057C02CF045C001F046C065
:1011100002F047C003F04DEC16F001C027F002C00A
:1011200028F003C029F06EEC10F027C033F028C07F
:1011300034F029C035F0000E366E340E376EC30E13
:10114000386EAEEC13F0D8B0F2D0000E336E340E21
:10115000346E430E356E55C02AF056C02BF057C082
:101160002CF045C001F046C002F047C003F04DEC42
:1011700016F001C027F002C028F003C029F06EEC81
:1011800010F027C036F028C037F029C038F0AEEC98
:1011900013F0D8B053D055C033F056C034F057C018
:1011A00035F042C036F043C037F044C038F0AEEC02
:1011B00013F0D8B02BD045C02AF046C02BF047C062
:1011C0002CF042C001F043C002F044C003F04DECEB
:1011D00016F001C027F002C028F003C029F06EEC21
:1011E00010F027C051F028C052F029C053F051C070
:1011F00027F052C028F053C029F0000E2A6EB40E1A
:101200002B6E430E2C6E6EEC10F0FDD142C001F03F
:1012100043C002F044C003F04DEC16F001C027F0CB
:1012200002C028F003C029F045C02AF046C02BF0C8
:1012300047C02CF06EEC10F0E6D1ECD155C02AF08E
:1012400056C02BF057C02CF045C001F046C002F04C
:1012500047C003F04DEC16F001C027F002C028F0A3
:1012600003C029F06EEC10F027C033F028C034F032
:1012700029C035F0000E366E340E376EC30E386E50
:10128000AEEC13F0D8B0C6D142C033F043C034F056
:1012900044C035F055C036F056C037F057C038F06E
:1012A000AEEC13F0D8B02BD0000E2A6EB40E2B6E1D
:1012B000430E2C6E42C027F043C028F044C029F0F2
:1012C0006EEC10F027C001F028C002F029C003F036
:1012D0004DEC16F001C051F002C052F003C053F0C3
:1012E00051C027F052C028F053C029F045C02AF061
:1012F00046C02BF047C02CF06EEC10F084D142C0F9
:1013000001F043C002F044C003F04DEC16F001C000
:1013100027F002C028F003C029F045C02AF046C0DB
:101320002BF047C02CF06EEC10F06DD173D1000E95
:10133000336E340E346E430E356E55C02AF056C0EF
:101340002BF057C02CF045C001F046C002F047C05A
:1013500003F04DEC16F001C027F002C028F003C0E6
:1013600029F06EEC10F027C036F028C037F029C005
:1013700038F0AEEC13F0D8A04DD1000E336E340E21
:10138000346EC30E356E55C02AF056C02BF057C0D0
:101390002CF045C001F046C002F047C003F04DEC10
:1013A00016F001C027F002C028F003C029F06EEC4F
:1013B00010F027C036F028C037F029C038F0AEEC66
:1013C00013F0D8B027D1000E336E340E346EC30E36
:1013D000356E45C02AF046C02BF047C02CF055C0F2
:1013E00001F056C002F057C003F04DEC16F001C0FA
:1013F00027F002C028F003C029F06EEC10F027C0DF
:1014000036F028C037F029C038F0AEEC13F0D8B071
:101410006BD055C001F056C002F057C003F04DEC40
:1014200016F001C027F002C028F003C029F045C023
:101430002AF046C02BF047C02CF06EEC10F029AE1D
:1014400053D055C033F056C034F057C035F042C0C9
:1014500036F043C037F044C038F0AEEC13F0D8A0FB
:1014600017D042C001F043C002F044C003F04DEC7D
:1014700016F001C027F002C028F003C029F045C0D3
:101480002AF046C02BF047C02CF06EEC10F0BBD019
:1014900045C02AF046C02BF047C02CF042C001F0F6
:1014A00043C002F044C003F04DEC16F001C027F039
:1014B00002C028F003C029F06EEC10F027C051F0F4
:1014C00028C052F029C053F051C027F052C028F074
:1014D00053C029F0000E2A6EB40E2B6E430E2C6EF4
:1014E0006EEC10F090D096D045C02AF046C02BF09C
:1014F00047C02CF055C001F056C002F057C003F0B1
:101500004DEC16F001C027F002C028F003C029F00E
:101510006EEC10F027C033F028C034F029C035F04D
:10152000000E366E340E376E430E386EAEEC13F08E
:10153000D8B070D055C001F056C002F057C003F0CB
:101540004DEC16F001C027F002C028F003C029F0CE
:1015500045C02AF046C02BF047C02CF06EEC10F0CE
:1015600029BE58D055C033F056C034F057C035F0BE
:1015700042C036F043C037F044C038F0AEEC13F050
:10158000D8A017D042C001F043C002F044C003F01D
:101590004DEC16F001C027F002C028F003C029F07E
:1015A00045C02AF046C02BF047C02CF06EEC10F07E
:1015B0002AD0000E2A6EB40E2B6E430E2C6E42C043
:1015C00027F043C028F044C029F06EEC10F027C08B
:1015D00001F028C002F029C003F04DEC16F001C064
:1015E00051F002C052F003C053F051C027F052C076
:1015F00028F053C029F045C02AF046C02BF047C060
:101600002CF06EEC10F027C0B1F028C0B2F029C069
:10161000B3F000D0B1C027F0B2C028F0B3C029F0B9
:10162000B7C02AF0B8C02BF0B9C02CF06EEC10F0A7
:1016300027C0B4F028C0B5F029C0B6F0B7C001F09B
:10164000B8C002F0B9C003F04DEC16F001C027F0AD
:1016500002C028F003C029F0B1C02AF0B2C02BF0BC
:10166000B3C02CF06EEC10F027C048F028C049F051
:1016700029C04AF0B4C01BF0B5C01CF0B6C01DF0C4
:1016800069C018F06AC019F06BC01AF0EBEC11F0E9
:1016900018C04BF019C04CF01AC04DF0C30E1B6EB1
:1016A000F50E1C6E3C0E1D6E4BC018F04CC019F0B0
:1016B0004DC01AF0EBEC11F018C02AF019C02BF055
:1016C0001AC02CF0B1C01BF0B2C01CF0B3C01DF0AA
:1016D0006CC018F06DC019F06EC01AF0EBEC11F090
:1016E00018C027F019C028F01AC029F06EEC10F0CD
:1016F00027C04EF028C04FF029C050F066C01BF044
:1017000067C01CF068C01DF0C30E0C6EF50E0D6EA8
:101710003C0E0E6E48C009F049C00AF04AC00BF0FA
:10172000DAEC12F009C018F00AC019F00BC01AF078
:10173000EBEC11F018C02AF019C02BF01AC02CF0F5
:101740004EC027F04FC028F050C029F06EEC10F0CA
:1017500027C033F028C034F029C035F067EC12F010
:1017600033C075F034C076F0000176BF09D00001B7
:101770007605D8A005D0000E0001766F756910D0EF
:10178000000176AF0DD000017505FF0E00017659FE
:10179000D8B006D0FF0E0001766F010E756F00D035
:1017A000B1C0B7F0B2C0B8F0B3C0B9F01200000ECB
:1017B000526E000E516E0FD0522A5250010DF3504E
:1017C0004824D96EF4504920DA6E3D0EDE18D8A4B4
:1017D00002D0010E01D0000E506E00D05250010D0B
:1017E000F3504824D96EF4504920DA6E3D0EDE18CD
:1017F000D8B40BD052504C6E4D6A4A504C5C4B5092
:101800004D58D8B002D0D8D700D052504C6E4D6A47
:101810004A504C5C4B504D58D8B000D15050D8B4C1
:10182000FDD0000E516E22D05150010DF3504824CE
:10183000D96EF4504920DA6EDF50E9EC15F0D8B0DB
:1018400013D05150010DF3504824D96EF450492063
:10185000DA6E5150010D5A0EF324E16E000EF420A1
:10186000E26EDFCFE7FF00D0512A00D05250515C2A
:10187000D8B004D0040E5164D7D700D0300E026E19
:10188000100E036EFEEC14F05A0E026E000E036E84
:10189000FEEC14F0000E516E15D0522A5250010D7C
:1018A000F3504824D96EF4504920DA6E5150010D9E
:1018B000960EF324E16E000EF420E26EDFCFE7FF18
:1018C000512A00D052504C6E4D6A010E4C26000E2B
:1018D0004D224C504824D96E4D504920DA6EDF50CD
:1018E000D8A4DBD7250E026E100E036EFEEC14F0AA
:1018F000960E026E000E036EFEEC14F05A0E016E90
:10190000000E026E3E0E036E100E046E2AEC15F0F1
:1019100001500210D8B40ED05A0E016E000E026EA5
:10192000460E036E100E046E2AEC15F001500210E4
:10193000D8A406D0010E596E3B0EB0EC16F097D12C
:101940005A0E016E000E026E500E036E100E046EE3
:101950002AEC15F001500210D8B40ED05A0E016EC8
:10196000000E026E5C0E036E100E046E2AEC15F073
:1019700001500210D8A406D0050E596E3B0EB0ECF3
:1019800016F075D15A0E016E000E026E4D0E036EEA
:10199000100E046E2AEC15F001500210D8B40ED0CF
:1019A0005A0E016E000E026E590E036E100E046E7A
:1019B0002AEC15F001500210D8A406D0070E596E7B
:1019C0003B0EB0EC16F053D15A0E016E000E026EB3
:1019D0004A0E036E100E046E2AEC15F00150021030
:1019E000D8B40ED05A0E016E000E026E560E036E63
:1019F000100E046E2AEC15F001500210D8A406D087
:101A0000090E596E3B0EB0EC16F031D1360E026E57
:101A1000100E036EFEEC14F027D129D15050D8A43B
:101A200026D1000E516E14D05150010DF3504824B0
:101A3000D96EF4504920DA6E5150010D5A0EF3243C
:101A4000E16E000EF420E26EDFCFE7FF512A00D0F6
:101A50005150010DF3504824D96EF4504920DA6EEC
:101A60000D0EDE18D8A4E0D7300E026E100E036EF5
:101A7000FEEC14F05A0E026E000E036EFEEC14F033
:101A80005A0E016E000E026E530E036E100E046E9F
:101A90002AEC15F001500210D8B40ED05A0E016E87
:101AA000000E026E5F0E036E100E046E2AEC15F02F
:101AB00001500210D8A406D0010E5F6E3B0EB0ECB0
:101AC00016F0D5D05A0E016E000E026E3B0E036E5C
:101AD000100E046E2AEC15F001500210D8B40ED08E
:101AE0005A0E016E000E026E430E036E100E046E4F
:101AF0002AEC15F001500210D8A406D0020E5F6E39
:101B00003B0EB0EC16F0B3D05A0E016E000E026E12
:101B10003E0E036E100E046E2AEC15F001500210FA
:101B2000D8B40ED05A0E016E000E026E460E036E31
:101B3000100E046E2AEC15F001500210D8A406D045
:101B4000020E596E3B0EB0EC16F091D05A0E016E9B
:101B5000000E026E3A0E036E100E046E2AEC15F0A3
:101B600001500210D8B40ED05A0E016E000E026E53
:101B7000420E036E100E046E2AEC15F00150021096
:101B8000D8A406D0030E596E3B0EB0EC16F06FD001
:101B90005A0E016E000E026E500E036E100E046E91
:101BA0002AEC15F001500210D8B40ED05A0E016E76
:101BB000000E026E5C0E036E100E046E2AEC15F021
:101BC00001500210D8A406D0040E596E3B0EB0ECA2
:101BD00016F04DD05A0E016E000E026E4D0E036EC1
:101BE000100E046E2AEC15F001500210D8B40ED07D
:101BF0005A0E016E000E026E590E036E100E046E28
:101C00002AEC15F001500210D8A406D0060E596E29
:101C10003B0EB0EC16F02BD05A0E016E000E026E89
:101C20004A0E036E100E046E2AEC15F001500210DD
:101C3000D8B40ED05A0E016E000E026E560E036E10
:101C4000100E046E2AEC15F001500210D8A406D034
:101C5000080E596E3B0EB0EC16F009D0360E026E2F
:101C6000100E036EFEEC14F0000E596E00D0960EAE
:101C70003C6E000E3D6E4E0E3E6E000E3F6E83ECCF
:101C80000EF03CC072F03DC073F03EC074F0000E28
:101C9000526E040E526401D00CD05250010D5A0EF7
:101CA000F324D96E000EF420DA6E000EDF6E522A95
:101CB000F0D7000E526E090E526401D00CD0525073
:101CC000010D960EF324D96E000EF420DA6E000E8C
:101CD000DF6E522AF0D7000E526E1D0E526401D0F4
:101CE0000CD05250010D780EF324D96E000EF42062
:101CF000DA6E000EDF6E522AF0D7000E506E010E23
:101D00000001776F12003E503F10D8B40CD03EC097
:101D1000D9FF3FC0DAFF3CC0DEFF3DC0DDFF03D08E
:101D20003C4A3D2A00D03CC0D9FF3DC0DAFFDF501D
:101D3000416E4150E9EC15F0D8B0F2D7000E426E7A
:101D40002D0E4118D8A403D0010E426E04D02B0EE4
:101D50004118D8A403D03C4A3D2A00D0000E416E61
:101D6000000E446E000E456E000E466E000E476E6D
:101D7000000E436E00D042B80AD03CC0D9FF3DC02F
:101D8000DAFF2E0EDE18D8A402D0428840D03CC024
:101D9000D9FF3DC0DAFFDF505FEC16F0D8A03AD093
:101DA00001D038D04282080E4118D8B42CD042B8A5
:101DB0004306412A44C001F045C002F046C003F08A
:101DC00047C004F00A0E056E000E066E000E076E88
:101DD000000E086ED1EC14F001C044F002C045F0D2
:101DE00003C046F004C047F03CC0D9FF3DC0DAFF55
:101DF000DF50406ED00E402640504426000E452253
:101E00004622472204D042B802D0432A00D03C4A9E
:101E10003D2AB1D7000E416E3CC0D9FF3DC0DAFF6C
:101E2000650EDE18D8B408D03CC0D9FF3DC0DAFF3B
:101E3000450EDE18D8A465D03C4A3D2A3CC0D9FFE7
:101E40003DC0DAFF2D0EDE18D8A402D0428608D09D
:101E50003CC0D9FF3DC0DAFF2B0EDE18D8A406D057
:101E60003C4A3D2A03D03C4A3D2A00D03CC0D9FF21
:101E70003DC0DAFF300EDE18D8B4F5D73CC0D9FF2C
:101E80003DC0DAFFDF505FEC16F0D8A036D03CC082
:101E9000D9FF3DC0DAFFDF50D00F416E3C4A3D2AEA
:101EA0003CC0D9FF3DC0DAFFDF505FEC16F0D8A090
:101EB00024D03CC0D9FF3DC0DAFFDF50406E415016
:101EC0000A0DF3504024D00F416E3C4A3D2A3CC0DD
:101ED000D9FF3DC0DAFFDF505FEC16F0D8A00DD07F
:101EE0003CC0D9FF3DC0DAFFDF50406E41500A0DC3
:101EF000F3504024D00F416E00D042A602D0416C76
:101F000000D0415043263E503F10D8A442A209D0F1
:101F10003EC0D9FF3FC0DAFF3CC0DEFF3DC0DDFF61
:101F200000D044C009F045C00AF046C00BF047C0DD
:101F30000CF038EC14F009C044F00AC045F00BC0B6
:101F400046F0445045104610D8A405D0000E3C6E13
:101F5000000EA6D0C2D043AE4CD0436C17D044C0C4
:101F600009F045C00AF046C00BF0030E0C6E150ECA
:101F70000D6E500E0E6EDAEC12F009C044F00AC07D
:101F800045F00BC046F0F60E432600D04350800AC1
:101F9000760FD8A018D0E3D716D044C009F045C0BA
:101FA0000AF046C00BF0000E0C6E200E0D6E410EB6
:101FB0000E6EDAEC12F009C044F00AC045F00BC016
:101FC00046F0430600D04350D8A4E7D744C033F0CE
:101FD00045C034F046C035F0000E366E800E376EC8
:101FE000000E386EAEEC13F04DD077D056D075D0D1
:101FF0005CD04350800A7F0FD8B019D056D017D08C
:1020000044C018F045C019F046C01AF0030E1B6E0C
:10201000150E1C6E500E1D6EEBEC11F018C044F046
:1020200019C045F01AC046F0F60E432600D00A0E3D
:102030004360E6D716D044C018F045C019F046C03A
:102040001AF0000E1B6E200E1C6E410E1D6EEBEC86
:1020500011F018C044F019C045F01AC046F043060C
:1020600000D04350D8A4E7D7FF0E336E7F0E346EF6
:102070007F0E356E44C036F045C037F046C038F0AC
:10208000AEEC13F0D8B011D042A007D0000E3C6ED9
:10209000800E3D6E800E06D020D0000E3C6E800E6D
:1020A0003D6E000E3E6E19D000D042A00FD044C04D
:1020B00001F045C002F046C003F04DEC16F001C03F
:1020C00044F002C045F003C046F000D044C03CF0EC
:1020D00045C03DF046C03EF000D0120029C02DF0B2
:1020E0002E6A2F6A28342D3601E32E802D50326E51
:1020F0002CC02DF02E6A2F6A2B342D3601E32E8052
:102100002D50316E3250D8B40BD03150325CD8B033
:102110000ED03250000831242D6E180E2D6407D0D9
:102120002AC027F02BC028F02CC029F0B8D031509D
:10213000D8B40BD03250315CD8B00ED0315000083A
:1021400032242D6E180E2D6407D027C027F028C02A
:1021500028F029C029F0A3D0060E306E29AE02D097
:10216000308E00D02CBE308C288EFF0E2716FF0E2E
:102170002816000E29162B8EFF0E2A16FF0E2B1680
:10218000000E2C163150325CD8B01ED0D8902A36B2
:102190002B362C36310632503118D8B40FD03006D9
:1021A00030C02DF0070E2D16D8B408D0EFD706D0CA
:1021B000D890293228322732322A00D031503218B2
:1021C000D8B424D0F5D722D03250315CD8B01ED04C
:1021D000D890273628362936320632503118D8B4EE
:1021E0000FD0300630C02DF0070E2D16D8B408D011
:1021F000EFD706D0D8902C322B322A32312A00D099
:1022000031503218D8B402D0F5D700D030AE0CD04F
:10221000FF0E271AFF0E281AFF0E291A010E272675
:10222000000E2822000E292230AC0DD0FF0E2A1AF3
:10223000FF0E2B1AFF0E2C1A010E2A26000E2B223F
:10224000000E2C2200D0000E306E27502A26285077
:102250002B2229502C222CAE0FD0FF0E2A1AFF0E53
:102260002B1AFF0E2C1A010E2A26000E2B22000E0E
:102270002C22010E306E00D02AC001F02BC002F0DB
:102280002CC003F032C004F030C005F04BEC13F06A
:1022900001C027F002C028F003C029F000D01200CE
:1022A000000E546E00D09EAAFED75450010D780E39
:1022B000F324D96E000EF420DA6EAECFDFFFAE50FD
:1022C000B0EC16F05450010D780EF324D96E000EC8
:1022D000F420DA6E080EDE18D8B40CD05450010D7C
:1022E000780EF324D96E000EF420DA6E7F0EDE181D
:1022F000D8A410D05450D8B402D0540600D05450B2
:10230000010D780EF324D96E000EF420DA6E000E63
:10231000DF6E1AD05450010D780EF324D96E000EE2
:10232000F420DA6E080EDE18D8B40ED05450010D29
:10233000780EF324D96E000EF420DA6E0D0EDE183E
:10234000D8B402D0542A00D00D0EAE18D8A4ABD702
:102350000A0EB0EC16F00D0EB0EC16F0780E486ECA
:10236000000E496E000E4B6E1E0E4A6ED7EC0BF03F
:102370000A0EB0EC16F00D0EB0EC16F05904D8A40D
:1023800007D072C06FF073C070F074C071F021D0CC
:10239000050E5918D8A407D072C06CF073C06DF048
:1023A00074C06EF016D0070E5918D8A407D072C0AA
:1023B00069F073C06AF074C06BF00BD0090E591845
:1023C000D8A407D072C066F073C067F074C068F01C
:1023D00000D09E9A12001AC01EF01F6A206A19349B
:1023E0001E3601E31F801E50216E2150D8A402D05A
:1023F0000ED06CD01DC01EF01F6A206A1C341E3621
:1024000001E31F801E50266E2650D8A407D0000E70
:10241000186E000E196E000E1A6E58D026507B0FE3
:1024200021261AC026F01D50261A800E2616198E57
:102430001C8EFF0E1B16FF0E1C16000E1D16000E26
:10244000226E000E236E000E246E070E256E00D045
:1024500018A007D01B5022261C5023221D502422D6
:1024600000D0D8901A3219321832D8901B361C3648
:102470001D36252EEDD700D0090E256E00D018A0F0
:1024800007D01B5022261C5023221D50242200D08E
:10249000D8901A3219321832D8902432233222328C
:1024A000252EEDD700D022C001F023C002F024C0B9
:1024B00003F021C004F026C005F04BEC13F001C07E
:1024C00018F002C019F003C01AF000D0120035C095
:1024D00037F0386A396A3434373601E33880375098
:1024E000416E4150D8A402D039D063D0170E376E58
:1024F00033C038F034C039F035C03AF037283B6E7D
:1025000004D0D8903A32393238323B2EFAD738508C
:102510003C6E348EFF0E3316FF0E3416000E351649
:1025200033503D6E34503E6E35503F6E406A8E0ED5
:10253000415E41AE10D04150800A8F0FD8B003D019
:102540000DD037D000D0D89040323F323E323D32AD
:10255000413EF9D719D0170E416411D0000E336EE9
:10256000000E346E000E356E000E366E22D007D08F
:10257000D8903D363E363F364036410600D0415079
:10258000D8B402D0F5D700D03C50D8B409D0401E02
:102590003F1E3E1E3D6C000E3E223F22402200D0D8
:1025A0003DC033F03EC034F03FC035F040C036F09F
:1025B00000D012000BC00FF0106A116A0A340F36F7
:1025C00001E310800F50166E1650D8A402D00ED022
:1025D00061D00EC00FF0106A116A0D340F3601E39E
:1025E00010800F50176E1750D8A407D0000E096E38
:1025F000000E0A6E000E0B6E4DD0000E136E000E14
:10260000146E000E156E1750890F165E0BC017F072
:102610000E50171A800E17160A8EFF0E0916FF0E9F
:102620000A16000E0B160D8EFF0E0C16FF0E0D1661
:10263000000E0E16180E126E00D0D89013361436F7
:1026400015360C50095C0D500A580E500B58D8A086
:1026500007D00C50095E0D500A5A0E500B5A1380C9
:10266000D89009360A360B36122EE7D700D013C0A1
:1026700001F014C002F015C003F016C004F017C03A
:1026800005F04BEC13F001C009F002C00AF003C0E2
:102690000BF000D012000450D8B405D00150021045
:1026A0000310D8A40ED0000E016E000E026E000EB4
:1026B000036E53D006D0042AD8900332023201327E
:1026C00000D0000E0114066E000E0214076EFE0EFE
:1026D0000314086E065007100810D8B40ED0EBD7BC
:1026E0000CD0042A010E0126000E0222000E032245
:1026F000D89003320232013200D0000E0114066E6F
:10270000000E0214076EFF0E0314086E0650071029
:102710000810D8B408D0E5D706D00406D890013602
:102720000236033600D002BE04D0020E0460F5D794
:1027300000D004B002D0029E00D0D89004320450E1
:1027400003120550D8B402D0038E00D001C001F0AE
:1027500002C002F003C003F000D0120035AE17D063
:1027600033C039F034C03AF035C03BF0391E3A1E60
:102770003B1E392A000E3A223B22000E3924336ECA
:10278000000E3A20346E800E3B20356E00D038AEFD
:1027900017D036C039F037C03AF038C03BF0391E98
:1027A0003A1E3B1E392A000E3A223B22000E3924E3
:1027B000366E000E3A20376E800E3B20386E00D009
:1027C000000E331A000E341A800E351A000E361A17
:1027D000000E371A800E381A3650335C3750345892
:1027E00038503558D8B002D0D89002D0D88000D018
:1027F00012000600EACFA3F0E1CFA4F0E2CFA5F0EB
:10280000D9CFA6F0DACFA7F0F3CFA8F0F4CFA9F094
:10281000F6CFAAF0F7CFABF0F8CFACF0F5CFADF034
:102820009EAA03D050EC11F006D0F2B4F2AA03D065
:1028300052EC15F000D0ADC0F5FFACC0F8FFABC056
:10284000F7FFAAC0F6FFA9C0F4FFA8C0F3FFA7C016
:10285000DAFFA6C0D9FFA5C0E2FFA4C0E1FFA3C074
:10286000EAFFA2C0E9FFA1C0FBFFA0C0FAFF110070
:10287000000E126E8E0E116E0CAE12D00C1E0B1EC0
:102880000A1E096C000E0A220B220C22010E126E87
:1028900007D0D8900C320B320A320932112A00D0FC
:1028A000000E09140D6E000E0A140E6E000E0B14AD
:1028B0000F6EFF0E0C14106E0D500E100F10101036
:1028C000D8A4E7D709C001F00AC002F00BC003F09A
:1028D00011C004F012C005F04BEC13F001C009F078
:1028E00002C00AF003C00BF000D0120006AE02D006
:1028F000B78E09D006BE07D0065003E10504D8A064
:1029000002D0B79E00D005C001F006C002F013EC63
:1029100016F001C005F002C006F005C007F006C0C1
:1029200008F00834083207320834083207320750FA
:10293000B86E05C007F0030E0716073AB750071820
:10294000CF0B0718B76E120017D0AFC0F6FFB0C09C
:10295000F7FF000EF86E0F0EF76403D00800F55075
:1029600005D0F6CFE9FFF7CFEAFFEF50A0EC16F065
:102970000001AF4BB02B00D0AFC0F6FFB0C0F7FFE7
:10298000000EF86E0F0EF76403D00800F55005D066
:10299000F6CFE9FFF7CFEAFFEF500009D8A4D5D76B
:1029A0001200000E096E000E0A6E000E0B6E000E75
:1029B0000C6E00D001A009D00550092606500A224D
:1029C00007500B2208500C2200D0D890053606364E
:1029D00007360836D89004320332023201320150F1
:1029E000021003100410D8A4E5D709C001F00AC0F2
:1029F00002F00BC003F00CC004F0120016D002C0AD
:102A0000F6FF03C0F7FF000EF86E0F0EF76403D059
:102A10000800F55005D0F6CFE9FFF7CFEAFFEF50F9
:102A2000B0EC16F0024A032A00D002C0F6FF03C041
:102A3000F7FF000EF86E0F0EF76403D00800F55094
:102A400005D0F6CFE9FFF7CFEAFFEF500009D8A491
:102A5000D6D7120005D0014A022A034A042A00D020
:102A600001C0D9FF02C0DAFFDF50056E03C0F6FFD8
:102A700004C0F7FF0800F55000080524066E065054
:102A8000D8A409D001C0D9FF02C0DAFFDF50D8B402
:102A900002D0E1D700D00650016E026A01BE0206E4
:102AA00000D01200000E286E000E276E9BEC15F071
:102AB00027C060F028C061F029C062F060C042F019
:102AC00061C043F062C044F06FC045F070C046F092
:102AD00071C047F032EC08F075C005F076C006F022
:102AE00076EC14F0DB0ED76E600ED66EF294120008
:102AF000000E0001B16F000E0001B26F000E000168
:102B0000B36F000E0001B76F000E0001B86F000E2A
:102B10000001B96F000E0001B46F000E0001B56F27
:102B2000000E0001B66FF184840ED56EDB0ED76EF9
:102B3000600ED66E120027C009F028C00AF03AECE9
:102B400016F009C018F00AC019F00BC01AF0000EF8
:102B50001B6EB40E1C6E3D0E1D6EEBEC11F018C01A
:102B600027F019C028F01AC029F000D0120000EE9A
:102B700060F0400EEE6AE806FDE100EE55F00A0E48
:102B8000EE6AE806FDE16E0EF66E2D0EF76E000E93
:102B9000F86E0900F5CF5FF0000EF86E000127EF28
:102BA00016F0956899689690969296949A90968A5F
:102BB000968C968E88900A0E95EC16F08880140EEE
:102BC0008AEC16F08490010EA8EC16F084808494B0
:102BD0001200036E010E026E200E0318D8B40AD044
:102BE0000E0E036004D0090E036004D000D0000E66
:102BF000026E00D002C001F0013000D01200240E9D
:102C0000AC6E900EAB6E000E7E6E150EAF6ED08E5B
:102C10009F9A9D8A010E0001AF6F100E0001B06FE8
:102C2000A4EC14F0120002AE0DD001C003F002C0FB
:102C300004F0031E041E034A042A03C001F004C06A
:102C400002F004D001C001F002C002F012007EECDC
:102C500016F000D058A205D0DB0ED76E600ED66EEF
:102C600002D058A002D0F28AF5D7000E586EF2D7E3
:102C70000CEF00F009C001F00AC002F0036A8E0EEA
:102C8000046E000E056E4BEC13F001C009F002C09B
:102C90000AF003C00BF000D0120001500210031024
:102CA000D8B406D0000E011A000E021A800E031AC4
:102CB00001C001F002C002F003C003F01200036E75
:102CC000000E026E3A0E036006D02F0E036403D08E
:102CD000010E026E00D002C001F0013000D01200DF
:102CE0009890989696969698938092984C0EB76E78
:102CF000CB68000EB16E040ECA6E120078EC15F0AF
:102D000070EC16F0D1EC15F0FFEC15F0F28EF28CB1
:102D1000D08E12000001AE6FFA0E00F0E82EFDD743
:102D20000001AE2FF9D700D012000001AE6F030EE4
:102D3000E82EFED700F00001AE2FF9D700D0120028
:102D40000001AE6FAEC0ADFF00D09EA8FED712004E
:102D50000001AE6F00F00001AE2FFCD700D01200D2
:102D6000016E01C0ADFF00D09EA8FED71200010089
:020000040020DA
:08000000FFFFFFFFFFFFFFFF00
:020000040030CA
:0E000000FF061F1EF38385FFFFC0FFE0FF40D9
:00000001FF
