:040000000CEF00F011
:10000800FACFABF0FBCFACF0E9CFADF0B0ED14F028
:04001800EFEF16F000
:101000000057656C636F6D6520746F207468652090
:10101000776F726C64206F6620746F6D6F72726F81
:10102000772121210020202056616C75653A20002F
:10103000383638303A2000383732323A20004B65A3
:10104000793A20003F3F3F0056454C00504F530037
:1010500076656C00706F73004B44004B49004B5039
:1010600000415A006B64006B69006B7000617A008C
:101070000000030E5D18D8A421D042C057F043C031
:1010800058F044C059F0000E5A6E000E5B6E000E10
:101090005C6E000E0001786F000E0001796F000E8B
:1010A00000017A6F000E0001756F000E0001766F6F
:1010B000000E0001776F010E5D6E00D0000E336EE2
:1010C000340E346E430E356E57C02AF058C02BF0E4
:1010D00059C02CF045C001F046C002F047C003F0F3
:1010E00059EC18F001C027F002C028F003C029F025
:1010F00073EC10F027C036F028C037F029C038F064
:1011000065EC14F0D8A026D057C02AF058C02BF0B8
:1011100059C02CF045C001F046C002F047C003F0B2
:1011200059EC18F001C027F002C028F003C029F0E4
:1011300073EC10F027C033F028C034F029C035F02C
:10114000000E366E340E376EC30E386E65EC14F03A
:10115000D8B0F2D0000E336E340E346E430E356EBE
:1011600057C02AF058C02BF059C02CF045C001F0F0
:1011700046C002F047C003F059EC18F001C027F058
:1011800002C028F003C029F073EC10F027C036F03D
:1011900028C037F029C038F065EC14F0D8B053D02F
:1011A00057C033F058C034F059C035F042C036F063
:1011B00043C037F044C038F065EC14F0D8B02BD001
:1011C00045C02AF046C02BF047C02CF042C001F0C9
:1011D00043C002F044C003F059EC18F001C027F0FE
:1011E00002C028F003C029F073EC10F027C051F0C2
:1011F00028C052F029C053F051C027F052C028F047
:1012000053C029F0000E2A6EB40E2B6E430E2C6EC6
:1012100073EC10F0FDD142C001F043C002F044C0B5
:1012200003F059EC18F001C027F002C028F003C009
:1012300029F045C02AF046C02BF047C02CF073ECD3
:1012400010F0E6D1ECD157C02AF058C02BF059C0AD
:101250002CF045C001F046C002F047C003F059EC45
:1012600018F001C027F002C028F003C029F073EC89
:1012700010F027C033F028C034F029C035F0000E3C
:10128000366E340E376EC30E386E65EC14F0D8B07F
:10129000C6D142C033F043C034F044C035F057C02B
:1012A00036F058C037F059C038F065EC14F0D8B0BB
:1012B0002BD0000E2A6EB40E2B6E430E2C6E42C045
:1012C00027F043C028F044C029F073EC10F027C089
:1012D00001F028C002F029C003F059EC18F001C059
:1012E00051F002C052F003C053F051C027F052C079
:1012F00028F053C029F045C02AF046C02BF047C063
:101300002CF073EC10F084D142C001F043C002F025
:1013100044C003F059EC18F001C027F002C028F0D7
:1013200003C029F045C02AF046C02BF047C02CF07E
:1013300073EC10F06DD173D1000E336E340E346E39
:10134000430E356E57C02AF058C02BF059C02CF010
:1013500045C001F046C002F047C003F059EC18F058
:1013600001C027F002C028F003C029F073EC10F090
:1013700027C036F028C037F029C038F065EC14F0EB
:10138000D8A04DD1000E336E340E346EC30E356EC0
:1013900057C02AF058C02BF059C02CF045C001F0BE
:1013A00046C002F047C003F059EC18F001C027F026
:1013B00002C028F003C029F073EC10F027C036F00B
:1013C00028C037F029C038F065EC14F0D8B027D128
:1013D000000E336E340E346EC30E356E45C02AF0E7
:1013E00046C02BF047C02CF057C001F058C002F0A7
:1013F00059C003F059EC18F001C027F002C028F0E2
:1014000003C029F073EC10F027C036F028C037F085
:1014100029C038F065EC14F0D8B06BD057C001F09B
:1014200058C002F059C003F059EC18F001C027F081
:1014300002C028F003C029F045C02AF046C02BF0B6
:1014400047C02CF073EC10F029AE53D057C033F0E6
:1014500058C034F059C035F042C036F043C037F0C0
:1014600044C038F065EC14F0D8A017D042C001F0A9
:1014700043C002F044C003F059EC18F001C027F05B
:1014800002C028F003C029F045C02AF046C02BF066
:1014900047C02CF073EC10F0BBD045C02AF046C01A
:1014A0002BF047C02CF042C001F043C002F044C012
:1014B00003F059EC18F001C027F002C028F003C077
:1014C00029F073EC10F027C051F028C052F029C069
:1014D00053F051C027F052C028F053C029F0000E3D
:1014E0002A6EB40E2B6E430E2C6E73EC10F090D05F
:1014F00096D045C02AF046C02BF047C02CF057C00C
:1015000001F058C002F059C003F059EC18F001C0C6
:1015100027F002C028F003C029F073EC10F027C0B8
:1015200033F028C034F029C035F0000E366E340E8A
:10153000376E430E386E65EC14F0D8B070D057C0DB
:1015400001F058C002F059C003F059EC18F001C086
:1015500027F002C028F003C029F045C02AF046C099
:101560002BF047C02CF073EC10F029BE58D057C0B8
:1015700033F058C034F059C035F042C036F043C0A3
:1015800037F044C038F065EC14F0D8A017D042C052
:1015900001F043C002F044C003F059EC18F001C060
:1015A00027F002C028F003C029F045C02AF046C049
:1015B0002BF047C02CF073EC10F02AD0000E2A6EEE
:1015C000B40E2B6E430E2C6E42C027F043C028F0A1
:1015D00044C029F073EC10F027C001F028C002F0DD
:1015E00029C003F059EC18F001C051F002C052F0CC
:1015F00003C053F051C027F052C028F053C029F067
:1016000045C02AF046C02BF047C02CF073EC10F018
:1016100027C05AF028C05BF029C05CF000D075C02C
:1016200027F076C028F077C029F05AC02AF05BC0B6
:101630002BF05CC02CF073EC10F027C075F028C0C4
:1016400076F029C077F078C001F079C002F07AC056
:1016500003F059EC18F001C027F002C028F003C0D5
:1016600029F05AC02AF05BC02BF05CC02CF073EC60
:1016700010F027C048F028C049F029C04AF075C0D2
:101680001BF076C01CF077C01DF069C018F06AC06E
:1016900019F06BC01AF0A2EC12F018C04BF019C090
:1016A0004CF01AC04DF0BEC01BF0BFC01CF0C0C053
:1016B0001DF04BC018F04CC019F04DC01AF0A2EC50
:1016C00012F018C02AF019C02BF01AC02CF05AC022
:1016D0001BF05BC01CF05CC01DF06CC018F06DC04E
:1016E00019F06EC01AF0A2EC12F018C027F019C061
:1016F00028F01AC029F073EC10F027C04EF028C073
:101700004FF029C050F066C01BF067C01CF068C0E5
:101710001DF0BEC00CF0BFC00DF0C0C00EF048C040
:1017200009F049C00AF04AC00BF091EC13F009C06F
:1017300018F00AC019F00BC01AF0A2EC12F018C091
:101740002AF019C02BF01AC02CF04EC027F04FC061
:1017500028F050C029F073EC10F027C033F028C0F7
:1017600034F029C035F01EEC13F033C07BF034C0E8
:101770007CF000017CBF09D000017C05D8A005D019
:10178000000E00017C6F7B6910D000017CAF0DD092
:1017900000017B05FF0E00017C59D8B006D0FF0E7A
:1017A00000017C6F010E7B6F00D05AC078F05BC0E7
:1017B00079F05CC07AF01200000E526E000E516E8D
:1017C0000FD0522A5250010DF3504824D96EF450D4
:1017D0004920DA6E3D0EDE18D8A402D0010E01D0E9
:1017E000000E506E00D05250010DF3504824D96EB7
:1017F000F4504920DA6E3D0EDE18D8B40BD05250AA
:101800004C6E4D6A4A504C5C4B504D58D8B002D08B
:10181000D8D700D052504C6E4D6A4A504C5C4B5059
:101820004D58D8B000D15050D8B4FDD0000E516EF4
:1018300022D05150010DF3504824D96EF450492064
:10184000DA6EDF50F6EC17F0D8B013D05150010D1E
:10185000F3504824D96EF4504920DA6E5150010DEE
:10186000A60EF324E16E000EF420E26EDFCFE7FF58
:1018700000D0512A00D05250515CD8B004D0040E90
:101880005164D7D700D03E0E026E100E036E6FEC7F
:1018900016F0A60E026E000E036E6FEC16F0000E30
:1018A000516E15D0522A5250010DF3504824D96E72
:1018B000F4504920DA6E5150010D9C0EF324E16E74
:1018C000000EF420E26EDFCFE7FF512A00D0525025
:1018D0004C6E4D6A010E4C26000E4D224C50482491
:1018E000D96E4D504920DA6EDF50D8A4DBD7250ED3
:1018F000026E100E036E6FEC16F09C0E026E000E60
:10190000036E6FEC16F0A60E016E000E026E4C0E0A
:10191000036E100E046EC5EC16F001500210D8B420
:101920000ED0A60E016E000E026E540E036E100E47
:10193000046EC5EC16F001500210D8A406D0010EBA
:101940005E6E3B0E14EC19F097D1A60E016E000EE0
:10195000026E5E0E036E100E046EC5EC16F00150A2
:101960000210D8B40ED0A60E016E000E026E6A0EE2
:10197000036E100E046EC5EC16F001500210D8A4D0
:1019800006D0050E5E6E3B0E14EC19F075D1A60E56
:10199000016E000E026E5B0E036E100E046EC5EC3F
:1019A00016F001500210D8B40ED0A60E016E000E33
:1019B000026E670E036E100E046EC5EC16F0015039
:1019C0000210D8A406D0070E5E6E3B0E14EC19F080
:1019D00053D1A60E016E000E026E580E036E100E4D
:1019E000046EC5EC16F001500210D8B40ED0A60E4D
:1019F000016E000E026E640E036E100E046EC5ECD6
:101A000016F001500210D8A406D0090E5E6E3B0EEF
:101A100014EC19F031D1440E026E100E036E6FEC0F
:101A200016F027D129D15050D8A426D1000E516EDE
:101A300014D05150010DF3504824D96EF450492070
:101A4000DA6E5150010DA60EF324E16E000EF42063
:101A5000E26EDFCFE7FF512A00D05150010DF35065
:101A60004824D96EF4504920DA6E0D0EDE18D8A441
:101A7000E0D73E0E026E100E036E6FEC16F0A60E4F
:101A8000026E000E036E6FEC16F0A60E016E000ED5
:101A9000026E610E036E100E046EC5EC16F001505E
:101AA0000210D8B40ED0A60E016E000E026E6D0E9E
:101AB000036E100E046EC5EC16F001500210D8A48F
:101AC00006D0010E5F6E3B0E14EC19F0D5D0A60EB9
:101AD000016E000E026E490E036E100E046EC5EC10
:101AE00016F001500210D8B40ED0A60E016E000EF2
:101AF000026E510E036E100E046EC5EC16F001500E
:101B00000210D8A406D0020E5F6E3B0E14EC19F042
:101B1000B3D0A60E016E000E026E4C0E036E100EB8
:101B2000046EC5EC16F001500210D8B40ED0A60E0B
:101B3000016E000E026E540E036E100E046EC5ECA4
:101B400016F001500210D8A406D0020E5E6E3B0EB5
:101B500014EC19F091D0A60E016E000E026E480E24
:101B6000036E100E046EC5EC16F001500210D8B4CE
:101B70000ED0A60E016E000E026E500E036E100EF9
:101B8000046EC5EC16F001500210D8A406D0030E66
:101B90005E6E3B0E14EC19F06FD0A60E016E000EB7
:101BA000026E5E0E036E100E046EC5EC16F0015050
:101BB0000210D8B40ED0A60E016E000E026E6A0E90
:101BC000036E100E046EC5EC16F001500210D8A47E
:101BD00006D0040E5E6E3B0E14EC19F04DD0A60E2E
:101BE000016E000E026E5B0E036E100E046EC5ECED
:101BF00016F001500210D8B40ED0A60E016E000EE1
:101C0000026E670E036E100E046EC5EC16F00150E6
:101C10000210D8A406D0060E5E6E3B0E14EC19F02E
:101C20002BD0A60E016E000E026E580E036E100E23
:101C3000046EC5EC16F001500210D8B40ED0A60EFA
:101C4000016E000E026E640E036E100E046EC5EC83
:101C500016F001500210D8A406D0080E5E6E3B0E9E
:101C600014EC19F009D0440E026E100E036E6FECE6
:101C700016F0000E5E6E00D09C0E3C6E000E3D6EA7
:101C80004E0E3E6E000E3F6E88EC0EF03CC072F0C1
:101C90003DC073F03EC074F0000E526E040E5264EC
:101CA00001D00CD05250010DA60EF324D96E000EB7
:101CB000F420DA6E000EDF6E522AF0D7000E526E5C
:101CC000090E526401D00CD05250010D9C0EF32429
:101CD000D96E000EF420DA6E000EDF6E522AF0D7B5
:101CE000000E526E1D0E526401D00CD05250010DE8
:101CF0007E0EF324D96E000EF420DA6E000EDF6E35
:101D0000522AF0D7000E506E010E00017D6F1200B6
:101D10003E503F10D8B40CD03EC0D9FF3FC0DAFFD0
:101D20003CC0DEFF3DC0DDFF03D03C4A3D2A00D071
:101D30003CC0D9FF3DC0DAFFDF50416E4150F6ECA8
:101D400017F0D8B0F2D7000E426E2D0E4118D8A46D
:101D500003D0010E426E04D02B0E4118D8A403D03C
:101D60003C4A3D2A00D0000E416E000E446E000E2B
:101D7000456E000E466E000E476E000E436E00D09C
:101D800042B80AD03CC0D9FF3DC0DAFF2E0EDE18A3
:101D9000D8A402D0428840D03CC0D9FF3DC0DAFF71
:101DA000DF507CEC18F0D8A03AD001D038D0428275
:101DB000080E4118D8B42CD042B84306412A44C07A
:101DC00001F045C002F046C003F047C004F00A0E1F
:101DD000056E000E066E000E076E000E086E16EC05
:101DE00016F001C044F002C045F003C046F004C044
:101DF00047F03CC0D9FF3DC0DAFFDF50406ED00E47
:101E0000402640504426000E45224622472204D058
:101E100042B802D0432A00D03C4A3D2AB1D7000E36
:101E2000416E3CC0D9FF3DC0DAFF650EDE18D8B464
:101E300008D03CC0D9FF3DC0DAFF450EDE18D8A45B
:101E400065D03C4A3D2A3CC0D9FF3DC0DAFF2D0E8B
:101E5000DE18D8A402D0428608D03CC0D9FF3DC0CD
:101E6000DAFF2B0EDE18D8A406D03C4A3D2A03D058
:101E70003C4A3D2A00D03CC0D9FF3DC0DAFF300EBD
:101E8000DE18D8B4F5D73CC0D9FF3DC0DAFFDF502B
:101E90007CEC18F0D8A036D03CC0D9FF3DC0DAFFAA
:101EA000DF50D00F416E3C4A3D2A3CC0D9FF3DC0B7
:101EB000DAFFDF507CEC18F0D8A024D03CC0D9FF6A
:101EC0003DC0DAFFDF50406E41500A0DF350402410
:101ED000D00F416E3C4A3D2A3CC0D9FF3DC0DAFFDD
:101EE000DF507CEC18F0D8A00DD03CC0D9FF3DC02D
:101EF000DAFFDF50406E41500A0DF3504024D00FFE
:101F0000416E00D042A602D0416C00D04150432621
:101F10003E503F10D8A442A209D03EC0D9FF3FC0D6
:101F2000DAFF3CC0DEFF3DC0DDFF00D044C009F059
:101F300045C00AF046C00BF047C00CF0EFEC14F0BF
:101F400009C044F00AC045F00BC046F044504510AB
:101F50004610D8A405D0000E3C6E000EA6D0C2D00C
:101F600043AE4CD0436C17D044C009F045C00AF0D2
:101F700046C00BF0030E0C6E150E0D6E500E0E6E5D
:101F800091EC13F009C044F00AC045F00BC046F0D4
:101F9000F60E432600D04350800A760FD8A018D002
:101FA000E3D716D044C009F045C00AF046C00BF094
:101FB000000E0C6E200E0D6E410E0E6E91EC13F0A5
:101FC00009C044F00AC045F00BC046F0430600D0FB
:101FD0004350D8A4E7D744C033F045C034F046C0DE
:101FE00035F0000E366E800E376E000E386E65ECE2
:101FF00014F04DD077D056D075D05CD04350800AC5
:102000007F0FD8B019D056D017D044C018F045C0B3
:1020100019F046C01AF0030E1B6E150E1C6E500E02
:102020001D6EA2EC12F018C044F019C045F01AC0A1
:1020300046F0F60E432600D00A0E4360E6D716D0CF
:1020400044C018F045C019F046C01AF0000E1B6ECF
:10205000200E1C6E410E1D6EA2EC12F018C044F052
:1020600019C045F01AC046F0430600D04350D8A42A
:10207000E7D7FF0E336E7F0E346E7F0E356E44C091
:1020800036F045C037F046C038F065EC14F0D8B0F3
:1020900011D042A007D0000E3C6E800E3D6E800E27
:1020A00006D020D0000E3C6E800E3D6E000E3E6EBF
:1020B00019D000D042A00FD044C001F045C002F0BA
:1020C00046C003F059EC18F001C044F002C045F0DE
:1020D00003C046F000D044C03CF045C03DF046C0CF
:1020E0003EF000D0120029C02DF02E6A2F6A28344D
:1020F0002D3601E32E802D50326E2CC02DF02E6A2D
:102100002F6A2B342D3601E32E802D50316E325044
:10211000D8B40BD03150325CD8B00ED03250000859
:1021200031242D6E180E2D6407D02AC027F02BC045
:1021300028F02CC029F0B8D03150D8B40BD0325090
:10214000315CD8B00ED03150000832242D6E180EFC
:102150002D6407D027C027F028C028F029C029F017
:10216000A3D0060E306E29AE02D0308E00D02CBE29
:10217000308C288EFF0E2716FF0E2816000E29160B
:102180002B8EFF0E2A16FF0E2B16000E2C1631502A
:10219000325CD8B01ED0D8902A362B362C36310679
:1021A00032503118D8B40FD0300630C02DF0070EA1
:1021B0002D16D8B408D0EFD706D0D89029322832BF
:1021C0002732322A00D031503218D8B424D0F5D773
:1021D00022D03250315CD8B01ED0D8902736283665
:1021E0002936320632503118D8B40FD0300630C0FC
:1021F0002DF0070E2D16D8B408D0EFD706D0D89002
:102200002C322B322A32312A00D031503218D8B435
:1022100002D0F5D700D030AE0CD0FF0E271AFF0E3B
:10222000281AFF0E291A010E2726000E2822000E5A
:10223000292230AC0DD0FF0E2A1AFF0E2B1AFF0EEA
:102240002C1A010E2A26000E2B22000E2C2200D062
:10225000000E306E27502A2628502B2229502C227F
:102260002CAE0FD0FF0E2A1AFF0E2B1AFF0E2C1ABF
:10227000010E2A26000E2B22000E2C22010E306E9B
:1022800000D02AC001F02BC002F02CC003F032C0F5
:1022900004F030C005F002EC14F001C027F002C0D9
:1022A00028F003C029F000D01200010E62EC17F0F4
:1022B000400E1BEC19F0000E1B6EC80E1C6E420E79
:1022C0001D6E42C018F043C019F044C01AF0A2ECD1
:1022D00012F018C033F019C034F01AC035F01EECFB
:1022E00013F033C045F034C046F045C001F046C09D
:1022F00002F0270E046E100E036E8DEC15F001C077
:1023000047F002C048F045C001F046C002F0270E79
:10231000046E100E036E3CEC17F001C049F002C0D1
:102320004AF047504810D8B404D04750300FA3ECBF
:1023300017F049C001F04AC002F0030E046EE80E27
:10234000036E8DEC15F001C047F002C048F049C0A3
:1023500001F04AC002F0030E046EE80E036E3CEC7E
:1023600017F001C049F002C04AF047504810D8B4F5
:1023700004D04750300FA3EC17F049C001F04AC019
:1023800002F0000E046E640E036E8DEC15F001C0B9
:1023900047F002C048F049C001F04AC002F0000E08
:1023A000046E640E036E3CEC17F001C049F002C0ED
:1023B0004AF04750300FA3EC17F02E0EA3EC17F0A5
:1023C00049C001F04AC002F0000E046E0A0E036E0E
:1023D0008DEC15F001C047F002C048F049C001F093
:1023E0004AC002F0000E046E0A0E036E3CEC17F0B9
:1023F00001C049F002C04AF04750300FA3EC17F07B
:102400004950300FA3EC17F01200000E546E00D0AC
:102410009EAAFED75450010D7E0EF324D96E000EF5
:10242000F420DA6EAECFDFFFAE5014EC19F054504A
:10243000010D7E0EF324D96E000EF420DA6E080E24
:10244000DE18D8B40CD05450010D7E0EF324D96E92
:10245000000EF420DA6E7F0EDE18D8A410D054508F
:10246000D8B402D0540600D05450010D7E0EF3248F
:10247000D96E000EF420DA6E000EDF6E1AD05450C2
:10248000010D7E0EF324D96E000EF420DA6E080ED4
:10249000DE18D8B40ED05450010D7E0EF324D96E40
:1024A000000EF420DA6E0D0EDE18D8B402D0542AD5
:1024B00000D00D0EAE18D8A4ABD70A0E14EC19F04C
:1024C0000D0E14EC19F07E0E486E000E496E000ED3
:1024D0004B6E1E0E4A6EDCEC0BF00A0E14EC19F07B
:1024E0000D0E14EC19F09E9A5E04D8A409D072C0A7
:1024F0006FF073C070F074C071F0030E5D6E21D088
:10250000050E5E18D8A407D072C06CF073C06DF0D1
:1025100074C06EF016D0070E5E18D8A407D072C033
:1025200069F073C06AF074C06BF00BD0090E5E18CE
:10253000D8A407D072C066F073C067F074C068F0AA
:1025400000D012001AC01EF01F6A206A19341E360D
:1025500001E31F801E50216E2150D8A402D00ED05E
:102560006CD01DC01EF01F6A206A1C341E3601E3A9
:102570001F801E50266E2650D8A407D0000E186E5D
:10258000000E196E000E1A6E58D026507B0F2126B1
:102590001AC026F01D50261A800E2616198E1C8E83
:1025A000FF0E1B16FF0E1C16000E1D16000E226ECF
:1025B000000E236E000E246E070E256E00D018A0AC
:1025C00007D01B5022261C5023221D50242200D04D
:1025D000D8901A3219321832D8901B361C361D3654
:1025E000252EEDD700D0090E256E00D018A007D0FB
:1025F0001B5022261C5023221D50242200D0D8908C
:102600001A3219321832D890243223322232252E2F
:10261000EDD700D022C001F023C002F024C003F0A7
:1026200021C004F026C005F002EC14F001C018F03F
:1026300002C019F003C01AF000D0120035C037F004
:10264000386A396A3434373601E338803750416E9E
:102650004150D8A402D039D063D0170E376E33C0A2
:1026600038F034C039F035C03AF037283B6E04D02A
:10267000D8903A32393238323B2EFAD738503C6E45
:10268000348EFF0E3316FF0E3416000E35163350FF
:102690003D6E34503E6E35503F6E406A8E0E415E48
:1026A00041AE10D04150800A8F0FD8B003D00DD06A
:1026B00037D000D0D89040323F323E323D32413E9A
:1026C000F9D719D0170E416411D0000E336E000EE9
:1026D000346E000E356E000E366E22D007D0D890C4
:1026E0003D363E363F364036410600D04150D8B4E4
:1026F00002D0F5D700D03C50D8B409D0401E3F1EC0
:102700003E1E3D6C000E3E223F22402200D03DC0C6
:1027100033F03EC034F03FC035F040C036F000D05A
:1027200012000BC00FF0106A116A0A340F3601E371
:1027300010800F50166E1650D8A402D00ED061D063
:102740000EC00FF0106A116A0D340F3601E31080CD
:102750000F50176E1750D8A407D0000E096E000E48
:102760000A6E000E0B6E4DD0000E136E000E146E2E
:10277000000E156E1750890F165E0BC017F00E5025
:10278000171A800E17160A8EFF0E0916FF0E0A166C
:10279000000E0B160D8EFF0E0C16FF0E0D16000E02
:1027A0000E16180E126E00D0D89013361436153649
:1027B0000C50095C0D500A580E500B58D8A007D089
:1027C0000C50095E0D500A5A0E500B5A1380D890C7
:1027D00009360A360B36122EE7D700D013C001F0A7
:1027E00014C002F015C003F016C004F017C005F0C5
:1027F00002EC14F001C009F002C00AF003C00BF0B3
:1028000000D012000450D8B405D0015002100310BB
:10281000D8A40ED0000E016E000E026E000E036EE4
:1028200053D006D0042AD89003320232013200D0AD
:10283000000E0114066E000E0214076EFE0E031445
:10284000086E065007100810D8B40ED0EBD70CD085
:10285000042A010E0126000E0222000E0322D89047
:1028600003320232013200D0000E0114066E000E57
:102870000214076EFF0E0314086E065007100810AE
:10288000D8B408D0E5D706D00406D8900136023671
:10289000033600D002BE04D0020E0460F5D700D08B
:1028A00004B002D0029E00D0D8900432045003122B
:1028B0000550D8B402D0038E00D001C001F002C090
:1028C00002F003C003F000D0120035AE17D033C0C1
:1028D00039F034C03AF035C03BF0391E3A1E3B1E89
:1028E000392A000E3A223B22000E3924336E000EA4
:1028F0003A20346E800E3B20356E00D038AE17D0B3
:1029000036C039F037C03AF038C03BF0391E3A1EB5
:102910003B1E392A000E3A223B22000E3924366E25
:10292000000E3A20376E800E3B20386E00D0000E2D
:10293000331A000E341A800E351A000E361A000EA5
:10294000371A800E381A3650335C375034583850A6
:102950003558D8B002D0D89002D0D88000D012001C
:102960000600EACFAEF0E1CFAFF0E2CFB0F0D9CFC2
:10297000B1F0DACFB2F0F3CFB3F0F4CFB4F0F6CFDA
:10298000B5F0F7CFB6F0F8CFB7F0F5CFB8F09EAA14
:1029900003D005EC12F006D0F2B4F2AA03D05DEC3D
:1029A00015F000D0B8C0F5FFB7C0F8FFB6C0F7FF0C
:1029B000B5C0F6FFB4C0F4FFB3C0F3FFB2C0DAFF96
:1029C000B1C0D9FFB0C0E2FFAFC0E1FFAEC0EAFFC7
:1029D000ADC0E9FFACC0FBFFABC0FAFF1100000EB9
:1029E000126E8E0E116E0CAE12D00C1E0B1E0A1E35
:1029F000096C000E0A220B220C22010E126E07D067
:102A0000D8900C320B320A320932112A00D0000E53
:102A100009140D6E000E0A140E6E000E0B140F6ECC
:102A2000FF0E0C14106E0D500E100F101010D8A4C5
:102A3000E7D709C001F00AC002F00BC003F011C0D3
:102A400004F012C005F002EC14F001C009F002C05D
:102A50000AF003C00BF000D012000001BB6F3F0E64
:102A6000C716000EC66E0001BB51C6120001BA5156
:102A7000C71205D0C78C14D0C78CC68811D00001EE
:102A8000B951000AD8B4F6D7020AD8B4F5D7010A6A
:102A9000D8B4F3D705D0978E94860BD0949609D0EE
:102AA0000001BB51040AD8B4F6D7010AD8B4F4D750
:102AB000F5D79488949AC68A120043EC16F002C0A7
:102AC00027F003C028F0C2EC17F027C054F028C04C
:102AD00055F029C056F054C042F055C043F056C0DE
:102AE00044F06FC045F070C046F071C047F039EC5B
:102AF00008F07BC005F07CC006F0BBEC15F0DB0EE7
:102B0000D76E600ED66E54C042F055C043F056C02A
:102B100044F055EC11F0F2941200000E066E000E17
:102B2000056E03500410D8B421D0010E076E05D0F5
:102B3000D89003360436072A00D004BE02D0F8D756
:102B400000D0D890053606360350015C0450025878
:102B5000D8A006D00350015E0450025A058000D070
:102B6000D89004320332072EECD700D005C001F014
:102B700006C002F0120006AE02D0B78E09D006BE23
:102B800007D0065003E10504D8A002D0B79E00D0BC
:102B900005C001F006C002F020EC18F001C005F0FD
:102BA00002C006F005C007F006C008F0083408327D
:102BB00007320834083207320750B86E05C007F0F4
:102BC000030E0716073AB7500718CF0B0718B76E52
:102BD000120017D0BAC0F6FFBBC0F7FF000EF86EA8
:102BE0000F0EF76403D00800F55005D0F6CFE9FFCB
:102BF000F7CFEAFFEF5004EC19F00001BA4BBB2B02
:102C000000D0BAC0F6FFBBC0F7FF000EF86E0F0E83
:102C1000F76403D00800F55005D0F6CFE9FFF7CFF1
:102C2000EAFFEF500009D8A4D5D71200000E096EB4
:102C3000000E0A6E000E0B6E000E0C6E00D001A08E
:102C400009D00550092606500A2207500B220850C9
:102C50000C2200D0D8900536063607360836D890B4
:102C60000432033202320132015002100310041008
:102C7000D8A4E5D709C001F00AC002F00BC003F0E8
:102C80000CC004F0120084828490000E0B6E03D0FE
:102C900005D000F00B2A070E0B64FBD784848494C4
:102CA000010EFBEC18F087CF07F083CF08F0848487
:102CB000848008C009F00A6A07C004F00F0E0416E9
:102CC0000450066E056A09500510096E0A50061078
:102CD0000A6E09C002F00AC003F000D0120016D03C
:102CE00002C0F6FF03C0F7FF000EF86E0F0EF76488
:102CF00003D00800F55005D0F6CFE9FFF7CFEAFF83
:102D0000EF5014EC19F0024A032A00D002C0F6FF7B
:102D100003C0F7FF000EF86E0F0EF76403D0080033
:102D2000F55005D0F6CFE9FFF7CFEAFFEF500009E5
:102D3000D8A4D6D7120092948084020E0001B96FF5
:102D4000800E0001BA6F020E2DEC15F0000E00018E
:102D5000BB6F010E9DEC18F0000E0001BB6F000E62
:102D60009DEC18F0000E0001BB6F000EADEC18F0EA
:102D70003F0E16EC17F00F0E16EC17F0010E16ECC6
:102D800017F0060E16EC17F0120005D0014A022AC1
:102D9000034A042A00D001C0D9FF02C0DAFFDF5085
:102DA000056E03C0F6FF04C0F7FF000EF86E0800C2
:102DB000F55000080524066E0650D8A409D001C0BD
:102DC000D9FF02C0DAFFDF50D8B402D0DFD700D07D
:102DD0000650016E026A01BE020600D0120000EE2B
:102DE00060F04B0EEE6AE806FDE100EE57F0080ECB
:102DF000EE6AE806FDE1420EF66E320EF76E000E48
:102E0000F86E0900F5CFBEF00900F5CFBFF009005C
:102E1000F5CFC0F0450EF66E320EF76E000EF86E6E
:102E20000900F5CF5FF000018DEF18F00001BD6FD4
:102E3000000E0001BB6F120EADEC18F0000EF0ECAE
:102E400018F0BDC0BBF0130EADEC18F0000EF0ECA6
:102E500018F0400E0001BB6F120EADEC18F0000E22
:102E6000F0EC18F0000E0001BB6F120EADEC18F084
:102E7000000EF0EC18F0120003500410D8B41DD06E
:102E8000010E056E05D0D89003360436052A00D011
:102E900004BE02D0F8D700D00350015C04500258A1
:102EA000D8A005D00350015E0450025A00D0D8903B
:102EB00004320332052EF0D700D001C001F002C069
:102EC00002F01200056E000E036E120ED8EC18F020
:102ED000000EFBEC18F005C003F0130ED8EC18F050
:102EE000000EFBEC18F0400E036E120ED8EC18F03A
:102EF000000EFBEC18F0000E036E120ED8EC18F06A
:102F0000000EFBEC18F01200000E5A6E000E5B6E05
:102F1000000E5C6E000E0001786F000E0001796FEC
:102F2000000E00017A6F000E0001756F000E0001A7
:102F3000766F000E0001776F040ED56EDB0ED76E34
:102F4000600ED66E1200056E800E036E120ED8EC67
:102F500018F0000EFBEC18F005C003F0130ED8ECCF
:102F600018F0C00E036E120ED8EC18F0000EFBEC39
:102F700018F0000E036E120ED8EC18F0000EFBECE9
:102F800018F0120027C009F028C00AF034EC18F03D
:102F900009C018F00AC019F00BC01AF0000E1B6E21
:102FA000B40E1C6E3D0E1D6EA2EC12F018C027F080
:102FB00019C028F01AC029F000D01200956899684D
:102FC0009690969296949A90968A968C968E8890E1
:102FD0000A0EF0EC18F08880140EE5EC18F08490DE
:102FE000010E0CEC19F0848084941200036E010E23
:102FF000026E200E0318D8B40AD00E0E036004D05F
:10300000090E036004D000D0000E026E00D002C092
:1030100001F0013000D01200240EAC6E900EAB6EA9
:10302000000E7E6E150EAF6ED08E9F8A9D8A010EA9
:103030000001BA6F100E0001BB6FE9EC15F0120031
:1030400002AE0DD001C003F002C004F0031E041E46
:10305000034A042A03C001F004C002F004D001C0F6
:1030600001F002C002F0120009C001F00AC002F033
:10307000036A8E0E046E000E056E02EC14F001C0A1
:1030800009F002C00AF003C00BF000D012000001EA
:10309000BA6FC9CFB9F09E96C69EBAC0C9FFC6BE68
:1030A00007D002D005D000D09EB602D0FDD700D008
:1030B0001200015002100310D8B406D0000E011AFD
:1030C000000E021A800E031A01C001F002C002F0C5
:1030D00003C003F01200026EC9CF01F09E96C69E97
:1030E00002C0C9FFC6BE07D002D005D000D09EB630
:1030F00002D0FDD700D01200036E000E026E3A0E11
:10310000036006D02F0E036403D0010E026E00D0C0
:1031100002C001F0013000D01200CBEC18F000D05A
:10312000030E5D18D8A4FCD7DB0ED76E600ED66EEA
:10313000F28AD58EF5D70CEF00F00001BC6F8094B9
:10314000400E47EC18F00001BC5147EC18F00001AC
:10315000BB5147EC18F0808412000001BC6F8094D2
:10316000400E47EC18F00001BC5147EC18F000018C
:10317000BB5147EC18F08084120098909698969670
:103180009896938092984C0EB76ECB68000EB16EF5
:10319000040ECA6E1200DEEC17F084EC17F0BDECE2
:1031A00018F00CEC18F09BEC16F0F28EF28C12007A
:1031B000046E8094400E6BEC18F004506BEC18F029
:1031C00003506BEC18F0808412000001B96FFA0E06
:1031D00000F0E82EFDD70001B92FF9D700D012007A
:1031E0000001B96F030EE82EFED700F00001B92FE1
:1031F000F9D700D01200016E030EE82EFED700F0C2
:10320000012EFAD700D012000001B96FB9C0ADFF8E
:1032100000D09EA8FED712000001B96F00F0000197
:10322000B92FFCD700D01200016E01C0ADFF00D055
:103230009EA8FED71200066E0650800F62EC17F0B3
:063240001200C3F53C0181
:020000040020DA
:08000000FFFFFFFFFFFFFFFF00
:020000040030CA
:0E000000FF061F1EF38385FFFFC0FFE0FF40D9
:00000001FF
