:0400000056EF00F0C7
:10000800FACFB0F0FBCFB1F0E9CFB2F049ED15F07F
:10001800D8CF31F0E8CF32F0E0CF33F0FACF34F078
:10002800FBCF35F0E9CF36F0EACF37F0E1CF38F043
:10003800E2CF39F0D9CF3AF0DACF3BF0F3CF3CF04A
:10004800F4CF3DF0F6CF3EF0F7CF3FF0F8CF40F0D9
:10005800F5CF41F09EAA03D080EC11F000D041C04A
:10006800F5FF40C0F8FF3FC0F7FF3EC0F6FF3DC0B8
:10007800F4FF3CC0F3FF3BC0DAFF3AC0D9FF39C0F8
:10008800E2FF38C0E1FF37C0EAFF36C0E9FF35C0FC
:10009800FBFF34C0FAFF33C0E0FF32C0E8FF31C0D5
:0800A800D8FF100014EF18F05E
:101000000057656C636F6D6520746F207468652090
:10101000776F726C64206F6620746F6D6F72726F81
:10102000772121210020202056616C75653A20002F
:10103000383638303A2000383732323A20004B65A3
:10104000793A20003F3F3F0056454C00504F530037
:1010500076656C00706F73004B44004B49004B5039
:1010600000415A006B64006B69006B7000617A008C
:101070000000000E2E6E000E2D6E0FD02E2A2E5068
:10108000010DF3502424D96EF4502520DA6E3D0E64
:10109000DE18D8A402D0010E01D0000E2C6E00D0B4
:1010A0002E50010DF3502424D96EF4502520DA6E11
:1010B0003D0EDE18D8B40BD02E50286E296A26506B
:1010C000285C27502958D8B002D0D8D700D02E504D
:1010D000286E296A2650285C27502958D8B000D19C
:1010E0002C50D8B4FDD0000E2D6E22D02D50010D05
:1010F000F3502424D96EF4502520DA6EDF5035ECFD
:1011000019F0D8B013D02D50010DF3502424D96E0E
:10111000F4502520DA6E2D50010D540EF324E16EAB
:10112000000EF420E26EDFCFE7FF00D02D2A00D0C2
:101130002E502D5CD8B004D0040E2D64D7D700D02B
:101140003E0E026E100E036E6CEC17F0540E026E23
:10115000000E036E6CEC17F0000E2D6E15D02E2ACB
:101160002E50010DF3502424D96EF4502520DA6E50
:101170002D50010D4A0EF324E16E000EF420E26EB4
:10118000DFCFE7FF2D2A00D02E50286E296A010EEE
:101190002826000E292228502424D96E29502520E3
:1011A000DA6EDF50D8A4DBD7250E026E100E036E68
:1011B0006CEC17F04A0E026E000E036E6CEC17F02A
:1011C000540E016E000E026E4C0E036E100E046E75
:1011D000C2EC17F001500210D8B40ED0540E016EBC
:1011E000000E026E540E036E100E046EC2EC17F069
:1011F00001500210D8A406D0010E496E3B0E57ECE8
:101200001AF097D1540E016E000E026E5E0E036E40
:10121000100E046EC2EC17F001500210D8B40ED0BC
:10122000540E016E000E026E6A0E036E100E046EF6
:10123000C2EC17F001500210D8A406D0050E496E7A
:101240003B0E57EC1AF075D1540E016E000E026E73
:101250005B0E036E100E046EC2EC17F0015002100C
:10126000D8B40ED0540E016E000E026E670E036EDF
:10127000100E046EC2EC17F001500210D8A406D074
:10128000070E496E3B0E57EC1AF053D1540E016E07
:10129000000E026E580E036E100E046EC2EC17F0B4
:1012A00001500210D8B40ED0540E016E000E026E22
:1012B000640E036E100E046EC2EC17F001500210A3
:1012C000D8A406D0090E496E3B0E57EC1AF031D166
:1012D000440E026E100E036E6CEC17F027D129D16C
:1012E0002C50D8A426D1000E2D6E14D02D50010DF7
:1012F000F3502424D96EF4502520DA6E2D50010DC0
:10130000540EF324E16E000EF420E26EDFCFE7FF0F
:101310002D2A00D02D50010DF3502424D96EF45005
:101320002520DA6E0D0EDE18D8A4E0D73E0E026E30
:10133000100E036E6CEC17F0540E026E000E036E6E
:101340006CEC17F0540E016E000E026E610E036E0F
:10135000100E046EC2EC17F001500210D8B40ED07B
:10136000540E016E000E026E6D0E036E100E046EB2
:10137000C2EC17F001500210D8A406D0010E596E2D
:101380003B0E57EC1AF0D5D0540E016E000E026ED3
:10139000490E036E100E046EC2EC17F001500210DD
:1013A000D8B40ED0540E016E000E026E510E036EB4
:1013B000100E046EC2EC17F001500210D8A406D033
:1013C000020E596E3B0E57EC1AF0B3D0540E016E5C
:1013D000000E026E4C0E036E100E046EC2EC17F07F
:1013E00001500210D8B40ED0540E016E000E026EE1
:1013F000540E036E100E046EC2EC17F00150021072
:10140000D8A406D0020E496E3B0E57EC1AF091D0CC
:10141000540E016E000E026E480E036E100E046E26
:10142000C2EC17F001500210D8B40ED0540E016E69
:10143000000E026E500E036E100E046EC2EC17F01A
:1014400001500210D8A406D0030E496E3B0E57EC93
:101450001AF06FD0540E016E000E026E5E0E036E17
:10146000100E046EC2EC17F001500210D8B40ED06A
:10147000540E016E000E026E6A0E036E100E046EA4
:10148000C2EC17F001500210D8A406D0040E496E29
:101490003B0E57EC1AF04DD0540E016E000E026E4A
:1014A0005B0E036E100E046EC2EC17F001500210BA
:1014B000D8B40ED0540E016E000E026E670E036E8D
:1014C000100E046EC2EC17F001500210D8A406D022
:1014D000060E496E3B0E57EC1AF02BD0540E016EDF
:1014E000000E026E580E036E100E046EC2EC17F062
:1014F00001500210D8B40ED0540E016E000E026ED0
:10150000640E036E100E046EC2EC17F00150021050
:10151000D8A406D0080E496E3B0E57EC1AF009D03D
:10152000440E026E100E036E6CEC17F0000E496E46
:1015300000D04A0E186E000E196E2A0E1A6E000E9A
:101540001B6EE4EC0AF018C045F019C046F01AC052
:1015500047F0000E2E6E040E2E6401D00CD02E50DB
:10156000010D540EF324D96E000EF420DA6E000E35
:10157000DF6E2E2AF0D7000E2E6E090E2E6401D0DB
:101580000CD02E50010D4A0EF324D96E000EF4201B
:10159000DA6E000EDF6E2E2AF0D7000E2E6E1D0EB4
:1015A0002E6401D00CD02E50010DDC0EF324D96E28
:1015B000000EF420DA6E000EDF6E2E2AF0D7000E39
:1015C0002C6E010E486E12001A501B10D8B40CD0AD
:1015D0001AC0D9FF1BC0DAFF18C0DEFF19C0DDFF3B
:1015E00003D0184A192A00D018C0D9FF19C0DAFF51
:1015F000DF501D6E1D5035EC19F0D8B0F2D7000E3B
:101600001E6E2D0E1D18D8A403D0010E1E6E04D020
:101610002B0E1D18D8A403D0184A192A00D0000E8A
:101620001D6E000E206E000E216E000E226E000E4A
:10163000236E000E1F6E00D01EB80AD018C0D9FF4E
:1016400019C0DAFF2E0EDE18D8A402D01E8840D0B2
:1016500018C0D9FF19C0DAFFDF50C1EC19F0D8A0CB
:101660003AD001D038D01E82080E1D18D8B42CD024
:101670001EB81F061D2A20C001F021C002F022C0A2
:1016800003F023C004F00A0E056E000E066E000E75
:10169000076E000E086E3FEC17F001C020F002C08C
:1016A00021F003C022F004C023F018C0D9FF19C0F4
:1016B000DAFFDF501C6ED00E1C261C502026000EB8
:1016C00021222222232204D01EB802D01F2A00D0B9
:1016D000184A192AB1D7000E1D6E18C0D9FF19C0BB
:1016E000DAFF650EDE18D8B408D018C0D9FF19C0CB
:1016F000DAFF450EDE18D8A465D0184A192A18C09A
:10170000D9FF19C0DAFF2D0EDE18D8A402D01E862C
:1017100008D018C0D9FF19C0DAFF2B0EDE18D8A4E4
:1017200006D0184A192A03D0184A192A00D018C01E
:10173000D9FF19C0DAFF300EDE18D8B4F5D718C0BB
:10174000D9FF19C0DAFFDF50C1EC19F0D8A036D0AC
:1017500018C0D9FF19C0DAFFDF50D00F1D6E184A2C
:10176000192A18C0D9FF19C0DAFFDF50C1EC19F0EF
:10177000D8A024D018C0D9FF19C0DAFFDF501C6EE2
:101780001D500A0DF3501C24D00F1D6E184A192A43
:1017900018C0D9FF19C0DAFFDF50C1EC19F0D8A08A
:1017A0000DD018C0D9FF19C0DAFFDF501C6E1D50D4
:1017B0000A0DF3501C24D00F1D6E00D01EA602D0BF
:1017C0001D6C00D01D501F261A501B10D8A41EA23D
:1017D00009D01AC0D9FF1BC0DAFF18C0DEFF19C03C
:1017E000DDFF00D020C009F021C00AF022C00BF0BC
:1017F00023C00CF0CDEC15F009C020F00AC021F098
:101800000BC022F0205021102210D8A405D0000EC9
:10181000186E000EA6D0C2D01FAE4CD01F6C17D0D1
:1018200020C009F021C00AF022C00BF0030E0C6E9C
:10183000150E0D6E500E0E6EC3EC13F009C020F0A5
:101840000AC021F00BC022F0F60E1F2600D01F5058
:10185000800A760FD8A018D0E3D716D020C009F0A0
:1018600021C00AF022C00BF0000E0C6E200E0D6E8F
:10187000410E0E6EC3EC13F009C020F00AC021F037
:101880000BC022F01F0600D01F50D8A4E7D720C0FD
:1018900001F021C002F022C003F0000E046E800EA1
:1018A000056E000E066EFEEC14F04DD077D056D0CB
:1018B00075D05CD01F50800A7F0FD8B019D056D099
:1018C00017D020C009F021C00AF022C00BF0030E8F
:1018D0000C6E150E0D6E500E0E6E47EC13F009C017
:1018E00020F00AC021F00BC022F0F60E1F2600D017
:1018F0000A0E1F60E6D716D020C009F021C00AF0FA
:1019000022C00BF0000E0C6E200E0D6E410E0E6EFE
:1019100047EC13F009C020F00AC021F00BC022F000
:101920001F0600D01F50D8A4E7D7FF0E016E7F0E10
:10193000026E7F0E036E20C004F021C005F022C0AD
:1019400006F0FEEC14F0D8B011D01EA007D0000EA7
:10195000186E800E196E800E06D020D0000E186E04
:10196000800E196E000E1A6E19D000D01EA00FD076
:1019700020C001F021C002F022C003F09DEC19F05C
:1019800001C020F002C021F003C022F000D020C02E
:1019900018F021C019F022C01AF000D01200030E76
:1019A0000001DB19D8A425D0A1C0CDF0A2C0CEF093
:1019B000A3C0CFF0000E0001D06F000E0001D16F68
:1019C000000E0001D26F000E0001D66F000E000164
:1019D000D76F000E0001D86F000E0001D36F000E0C
:1019E0000001D46F000E0001D56F010E0001DB6F06
:1019F00000D0A1C060F0A2C061F0A3C062F01DECF5
:101A000019F060C086F061C087F062C088F0A4C0A1
:101A100089F0A5C08AF0A6C08BF03AEC0EF086C023
:101A2000D0F087C0D1F088C0D2F0000E0001606F06
:101A3000340E0001616F430E0001626FD0C063F08D
:101A4000D1C064F0D2C065F034EC14F00001D8B01D
:101A500018D0D0C092F0D1C093F0D2C094F0000E54
:101A60000001956FB40E0001966F430E0001976F51
:101A7000ECEC17F092C0D0F093C0D1F094C0D2F04B
:101A80002CD0D0C060F0D1C061F0D2C062F0000EA6
:101A90000001636F340E0001646FC30E0001656FB7
:101AA00034EC14F00001D8B018D0D0C086F0D1C00A
:101AB00087F0D2C088F0000E0001896FB40E0001DB
:101AC0008A6F430E00018B6F3AEC0EF086C0D0F0A7
:101AD00087C0D1F088C0D2F000D0D3C086F0D4C087
:101AE00087F0D5C088F0D0C089F0D1C08AF0D2C0CC
:101AF0008BF03AEC0EF086C0D3F087C0D4F088C0EB
:101B0000D5F0D6C060F0D7C061F0D8C062F01DEC4F
:101B100019F060C086F061C087F062C088F0D0C064
:101B200089F0D1C08AF0D2C08BF03AEC0EF086C0BA
:101B3000A7F087C0A8F088C0A9F0D3C07AF0D4C0BD
:101B40007BF0D5C07CF0C4C077F0C5C078F0C6C0CB
:101B500079F031EC10F077C0ADF078C0AEF079C01C
:101B6000AFF0FAC07AF0FBC07BF0FCC07CF0ADC0F7
:101B700077F0AEC078F0AFC079F031EC10F077C0FC
:101B800089F078C08AF079C08BF0D0C07AF0D1C0EB
:101B90007BF0D2C07CF0C7C077F0C8C078F0C9C075
:101BA00079F031EC10F077C086F078C087F079C01A
:101BB00088F03AEC0EF086C0AAF087C0ABF088C07F
:101BC000ACF0C1C07AF0C2C07BF0C3C07CF0FAC0F8
:101BD0006BF0FBC06CF0FCC06DF0A7C068F0A8C053
:101BE00069F0A9C06AF0DFEC10F068C077F069C056
:101BF00078F06AC079F031EC10F077C089F078C0E5
:101C00008AF079C08BF0AAC086F0ABC087F0ACC078
:101C100088F03AEC0EF086C092F087C093F088C04E
:101C200094F01EEC12F092C0D9F093C0DAF00001EB
:101C3000DABF09D00001DA05D8A005D0000E0001F6
:101C4000DA6FD96910D00001DAAF0DD00001D905E3
:101C5000FF0E0001DA59D8B006D0FF0E0001DA6F8E
:101C6000010ED96F00D0D0C0D6F0D1C0D7F0D2C00D
:101C7000D8F0120088C08CF000018D6B8E6B0001D3
:101C8000873500018C3701E38D8100018C51000103
:101C9000916F8BC08CF000018D6B8E6B00018A35CB
:101CA00000018C3701E38D8100018C510001906FA0
:101CB000000191510001D8B411D0000190510001F0
:101CC000915DD8B012D0000191510008000190251B
:101CD00000018C6F180E00018C6507D089C086F05A
:101CE0008AC087F08BC088F003D1000190510001B9
:101CF000D8B411D0000191510001905DD8B012D03C
:101D00000001905100080001912500018C6F180E10
:101D100000018C6507D086C086F087C087F088C038
:101D200088F0E6D0060E00018F6F000188AF03D067
:101D300000018F8F00D000018BAF02D000018F8D8A
:101D40000001878FFF0E00018617FF0E0001871725
:101D5000000E0001881700018A8FFF0E000189170D
:101D6000FF0E00018A17000E00018B170001905131
:101D70000001915DD8B028D00001D89089378A370A
:101D80008B37000190070001915100019019D8B4E0
:101D900013D000018F078FC08CF0070E00018C1745
:101DA000D8B40AD0E9D708D00001D8908833873357
:101DB00086330001912B00D0000190510001911950
:101DC000D8B430D0F1D72ED0000191510001905DF0
:101DD000D8B028D00001D8908637873788370001DF
:101DE00091070001915100019019D8B413D000015E
:101DF0008F078FC08CF0070E00018C17D8B40AD063
:101E0000E9D708D00001D8908B338A338933000199
:101E1000902B00D00001905100019119D8B402D04C
:101E2000F1D700D000018FAF12D0FF0E0001861B4A
:101E3000FF0E0001871BFF0E0001881B010E000131
:101E40008627000E00018723000E00018823000171
:101E50008FAD13D0FF0E0001891BFF0E00018A1BFE
:101E6000FF0E00018B1B010E00018927000E0001EF
:101E70008A23000E00018B2300D0000E00018F6F1B
:101E800000018651000189270001875100018A2342
:101E90000001885100018B2300018BAF16D0FF0E8B
:101EA0000001891BFF0E00018A1BFF0E00018B1B26
:101EB000010E00018927000E00018A23000E000197
:101EC0008B23010E00018F6F00D089C060F08AC0A3
:101ED00061F08BC062F091C063F08FC064F0B7EC2A
:101EE00012F060C086F061C087F062C088F000D058
:101EF0001200010E61EC18F0400E4FEC1AF0000ECB
:101F000000017A6FC80E00017B6F420E00017C6FEA
:101F1000A1C077F0A2C078F0A3C079F031EC10F046
:101F200077C092F078C093F079C094F01EEC12F074
:101F300092C0A4F093C0A5F0A4C060F0A5C061F069
:101F4000270E0001636F100E626F8CEC15F060C0FD
:101F5000A6F061C0A7F0A4C060F0A5C061F0270E94
:101F60000001636F100E626F7CEC16F060C0A8F089
:101F700061C0A9F00001A651300FAAEC18F0A8C06A
:101F800060F0A9C061F0030E0001636FE80E626F9C
:101F90008CEC15F060C0A6F061C0A7F0A8C060F09E
:101FA000A9C061F0030E0001636FE80E626F7CEC64
:101FB00016F060C0A8F061C0A9F00001A651300F72
:101FC000AAEC18F0A8C060F0A9C061F0000E0001F2
:101FD000636F640E626F8CEC15F060C0A6F061C098
:101FE000A7F0A8C060F0A9C061F0000E0001636F07
:101FF000640E626F7CEC16F060C0A8F061C0A9F0BE
:102000000001A651300FAAEC18F02E0EAAEC18F021
:10201000A8C060F0A9C061F0000E0001636F0A0E55
:10202000626F8CEC15F060C0A6F061C0A7F0A8C08C
:1020300060F0A9C061F0000E0001636F0A0E626FCC
:102040007CEC16F060C0A8F061C0A9F00001A651B8
:10205000300FAAEC18F00001A851300FAAEC18F0CC
:10206000120079C07DF000017E6B7F6B0001783536
:1020700000017D3701E37E8100017D510001806F09
:1020800000018051D8A402D014D098D07CC07DF03B
:1020900000017E6B7F6B00017B3500017D3701E322
:1020A0007E8100017D510001856F00018551D8A41A
:1020B0000AD0000E0001776F000E0001786F000E4D
:1020C0000001796F7BD0000185517B0F00018027D3
:1020D00079C085F000017C510001851B800E000154
:1020E00085170001788F00017B8FFF0E00017A17A2
:1020F000FF0E00017B17000E00017C17000E00018F
:10210000816F000E0001826F000E0001836F070EC9
:102110000001846F00D0000177A10DD000017A5139
:102120000001812700017B510001822300017C51C5
:102130000001832300D00001D890793378337733BE
:102140000001D8907A377B377C370001842FE3D7A2
:1021500000D0090E0001846F00D0000177A10DD0DE
:1021600000017A510001812700017B510001822387
:1021700000017C510001832300D00001D890793305
:10218000783377330001D890833382338133000171
:10219000842FE3D700D081C060F082C061F083C09B
:1021A00062F080C063F085C064F0B7EC12F060C0EC
:1021B00077F061C078F062C079F000D012006AC098
:1021C0006EF000016F6B706B0001693500016E37B6
:1021D00001E36F8100016E510001756F00017551BF
:1021E000D8A402D014D08BD06DC06EF000016F6BFC
:1021F000706B00016C3500016E3701E36F810001E7
:102200006E510001766F00017651D8A40AD0000EFD
:102210000001686F000E0001696F000E00016A6F17
:102220006ED0000E0001726F000E0001736F000E81
:102230000001746F00017651890F0001755F6AC05B
:1022400076F000016D510001761B800E00017617BB
:102250000001698FFF0E00016817FF0E000169176A
:10226000000E00016A1700016C8FFF0E00016B1752
:10227000FF0E00016C17000E00016D17180E000113
:10228000716F00D00001D890723773377437000136
:102290006B510001685D00016C510001695900013A
:1022A0006D5100016A59D8A00ED000016B51000198
:1022B000685F00016C510001695B00016D51000114
:1022C0006A5B000172810001D890683769376A370C
:1022D0000001712FD7D700D072C060F073C061F0D9
:1022E00074C062F075C063F076C064F0B7EC12F0B1
:1022F00060C068F061C069F062C06AF000D012008E
:10230000000E306E00D09EAAFED73050010DDC0EBC
:10231000F324D96E000EF420DA6EAECFDFFFAE509C
:1023200057EC1AF03050010DDC0EF324D96E000E7C
:10233000F420DA6E080EDE18D8B40CD03050010D3F
:10234000DC0EF324D96E000EF420DA6E7F0EDE1858
:10235000D8A410D03050D8B402D0300600D03050BD
:10236000010DDC0EF324D96E000EF420DA6E000E9F
:10237000DF6E1AD03050010DDC0EF324D96E000E42
:10238000F420DA6E080EDE18D8B40ED03050010DED
:10239000DC0EF324D96E000EF420DA6E0D0EDE187A
:1023A000D8B402D0302A00D00D0EAE18D8A4ABD7C6
:1023B0000A0E57EC1AF00D0E57EC1AF0DC0E246ED4
:1023C000000E256E000E276E1E0E266E39EC08F0EC
:1023D0000A0E57EC1AF00D0E57EC1AF09E9A4904AB
:1023E000D8A40AD045C0CAF046C0CBF047C0CCF054
:1023F000030E0001DB6F21D0050E4918D8A407D0C9
:1024000045C0C7F046C0C8F047C0C9F016D0070E97
:102410004918D8A407D045C0C4F046C0C5F047C08D
:10242000C6F00BD0090E4918D8A407D045C0C1F09A
:1024300046C0C2F047C0C3F000D0120094C096F06E
:102440000001976B986B000193350001963701E30B
:102450009781000196510001A06F0001A051D8A4FE
:1024600002D051D083D0170E0001966F92C097F022
:1024700093C098F094C099F00001962900019A6FDA
:1024800005D00001D89099339833973300019A2FE3
:10249000F8D70001975100019B6F0001938FFF0E49
:1024A00000019217FF0E00019317000E0001941710
:1024B0000001925100019C6F0001935100019D6F3A
:1024C0000001945100019E6F00019F6B8E0E000170
:1024D000A05F0001A0AF13D00001A051800A8F0FB0
:1024E000D8B003D010D042D000D00001D8909F3394
:1024F0009E339D339C330001A03FF7D71FD0170EAA
:102500000001A06514D0000E0001926F000E936FC1
:10251000000E946F000E956F29D009D00001D8905D
:102520009C379D379E379F370001A00700D00001E0
:10253000A0510001D8B402D0F1D700D000019B51C6
:102540000001D8B40AD000019F1F9E1F9D1F9C6DE3
:10255000000E9D239E239F2300D09CC092F09DC01F
:1025600093F09EC094F09FC095F000D0120000013F
:1025700063510001D8B408D000016051000161111D
:1025800000016211D8A413D0000E0001606F000E8C
:102590000001616F000E0001626F78D008D0000169
:1025A000632B0001D89062336133603300D0000E9A
:1025B000000160150001656F000E0001611500014A
:1025C000666FFE0E000162150001676F0001655124
:1025D0000001661100016711D8B413D0E0D711D003
:1025E0000001632B010E00016027000E0001612332
:1025F000000E000162230001D89062336133603322
:1026000000D0000E000160150001656F000E000192
:1026100061150001666FFF0E000162150001676F12
:10262000000165510001661100016711D8B40AD09C
:10263000D7D708D0000163070001D8906037613711
:10264000623700D0000161BF05D0020E0001636156
:10265000F1D700D0000163B103D00001619F00D029
:102660000001D8906333000163510001621300013F
:1026700064510001D8B403D00001628F00D060C063
:1026800060F061C061F062C062F000D012000BC067
:102690000FF0106A116A0A340F3601E310800F50F0
:1026A000126E1250D8A402D00ED06CD00EC00FF013
:1026B000106A116A0D340F3601E310800F50176E47
:1026C0001750D8A407D0000E096E000E0A6E000E37
:1026D0000B6E58D017507B0F12260BC017F00E5000
:1026E000171A800E17160A8E0D8EFF0E0C16FF0E8F
:1026F0000D16000E0E16000E136E000E146E000E58
:10270000156E070E166E00D009A007D00C501326C8
:102710000D5014220E50152200D0D8900B320A32E0
:102720000932D8900C360D360E36162EEDD700D065
:10273000090E166E00D009A007D00C5013260D50BC
:1027400014220E50152200D0D8900B320A320932D2
:10275000D890153214321332162EEDD700D013C094
:1027600001F014C002F015C003F012C004F017C04D
:1027700005F09BEC14F001C009F002C00AF003C0A0
:102780000BF000D012000BC00FF0106A116A0A346F
:102790000F3601E310800F50166E1650D8A402D0E9
:1027A0000ED061D00EC00FF0106A116A0D340F36D2
:1027B00001E310800F50176E1750D8A407D0000EF9
:1027C000096E000E0A6E000E0B6E4DD0000E136ED9
:1027D000000E146E000E156E1750890F165E0BC09A
:1027E00017F00E50171A800E17160A8EFF0E0916D4
:1027F000FF0E0A16000E0B160D8EFF0E0C16FF0EA6
:102800000D16000E0E16180E126E00D0D89013364C
:10281000143615360C50095C0D500A580E500B58E2
:10282000D8A007D00C50095E0D500A5A0E500B5A12
:102830001380D89009360A360B36122EE7D700D00F
:1028400013C001F014C002F015C003F016C004F06C
:1028500017C005F09BEC14F001C009F002C00AF0AB
:1028600003C00BF000D01200000162AF1ED060C0A8
:1028700066F061C067F062C068F00001661F671F04
:10288000681F662B000E67236823000E0001662573
:102890000001606F000E000167210001616F800E72
:1028A000000168210001626F00D0000165AF1ED0F9
:1028B00063C066F064C067F065C068F00001661F21
:1028C000671F681F662B000E67236823000E000138
:1028D00066250001636F000E000167210001646F2F
:1028E000800E000168210001656F00D0000E00011C
:1028F000601B000E0001611B800E0001621B000EB8
:102900000001631B000E0001641B800E0001651BAB
:10291000000163510001605D0001645100016159D3
:102920000001655100016259D8B002D0D89002D0A0
:10293000D88000D012000450D8B405D00150021045
:102940000310D8A40ED0000E016E000E026E000E11
:10295000036E53D006D0042AD890033202320132DB
:1029600000D0000E0114066E000E0214076EFE0E5B
:102970000314086E065007100810D8B40ED0EBD719
:102980000CD0042A010E0126000E0222000E0322A2
:10299000D89003320232013200D0000E0114066ECC
:1029A000000E0214076EFF0E0314086E0650071087
:1029B0000810D8B408D0E5D706D00406D890013660
:1029C0000236033600D002BE04D0020E0460F5D7F2
:1029D00000D004B002D0029E00D0D890043204503F
:1029E00003120550D8B402D0038E00D001C001F00C
:1029F00002C002F003C003F000D0120003AE17D0F3
:102A000001C007F002C008F003C009F0071E081E4D
:102A1000091E072A000E08220922000E0724016E53
:102A2000000E0820026E800E0920036E00D006AE54
:102A300017D004C007F005C008F006C009F0071E53
:102A4000081E091E072A000E08220922000E07246C
:102A5000046E000E0820056E800E0920066E00D060
:102A6000000E011A000E021A800E031A000E041A3C
:102A7000000E051A800E061A0450015C055002581B
:102A800006500358D8B002D0D89002D0D88000D0D9
:102A900012000600EACFB3F0E1CFB4F0E2CFB5F018
:102AA000D9CFB6F0DACFB7F0F3CFB8F0F4CFB9F0B2
:102AB000F6CFBAF0F7CFBBF0F8CFBCF0F5CFBDF052
:102AC000F2B4F2AA0CD00001DB05D8B405D0030E95
:102AD0000001DB19D8A403D0E2EC16F000D0BDC091
:102AE000F5FFBCC0F8FFBBC0F7FFBAC0F6FFB9C026
:102AF000F4FFB8C0F3FFB7C0DAFFB6C0D9FFB5C066
:102B0000E2FFB4C0E1FFB3C0EAFFB2C0E9FFB1C069
:102B1000FBFFB0C0FAFF1100000E0001656F000E50
:102B2000646F0001625100016311D8B431D0010E0D
:102B30000001666F07D00001D8906237633700014B
:102B4000662B00D0000163BF02D0F5D700D0000192
:102B5000D89064376537000162510001605D000163
:102B6000635100016159D8A00BD0000162510001EE
:102B7000605F000163510001615B0001648100D06E
:102B80000001D890633362330001662FE0D700D094
:102B900064C060F065C061F01200000E126E8E0E0F
:102BA000116E0CAE12D00C1E0B1E0A1E096C000E0C
:102BB0000A220B220C22010E126E07D0D8900C3282
:102BC0000B320A320932112A00D0000E09140D6EA0
:102BD000000E0A140E6E000E0B140F6EFF0E0C1476
:102BE000106E0D500E100F101010D8A4E7D709C0AA
:102BF00001F00AC002F00BC003F011C004F012C0D3
:102C000005F09BEC14F001C009F002C00AF003C00B
:102C10000BF000D0120084828490000E00016A6FD5
:102C200004D007D000F000016A2B070E00016A658E
:102C3000F9D784848494010E34EC1AF087CF66F0BF
:102C400083CF67F08484848067C068F00001696B7B
:102C500066C063F00F0E00016317000163510001AD
:102C6000656F646B00016851000164110001686FB9
:102C700000016951000165110001696F68C061F0D0
:102C800069C062F000D01200000165AF02D0B78EBB
:102C90000CD0000165BF09D00001655104E10001BD
:102CA0006405D8A002D0B79E00D064C060F065C0B3
:102CB00061F061EC19F060C064F061C065F064C05F
:102CC00066F065C067F00001673567336633000161
:102CD00067356733663300016651B86E64C066F0CD
:102CE000030E000166170001663BB750000166192C
:102CF000CF0B6619B76E120000016251000163111B
:102D0000D8B42BD0010E0001646F07D00001D89019
:102D1000623763370001642B00D0000163BF02D02B
:102D2000F5D700D0000162510001605D00016351E0
:102D300000016159D8A009D0000162510001605F13
:102D4000000163510001615B00D00001D890633342
:102D500062330001642FE6D700D060C060F061C02C
:102D600061F012000101026F3F0EC716000EC66E21
:102D700001010251C61201010151C71205D0C78CD1
:102D800014D0C78CC68811D001010051000AD8B4F4
:102D9000F6D7020AD8B4F5D7010AD8B4F3D705D0CC
:102DA000978E94860BD0949609D001010251040AA3
:102DB000D8B4F6D7010AD8B4F4D7F5D79488949A42
:102DC000C68A12000BEC16F061C086F062C087F074
:102DD000CDEC18F086C0BEF087C0BFF088C0C0F050
:102DE000BEC0A1F0BFC0A2F0C0C0A3F0CAC0A4F092
:102DF000CBC0A5F0CCC0A6F0CFEC0CF0D9C064F0ED
:102E0000DAC065F044EC16F0DB0ED76E600ED66EBD
:102E1000BEC0A1F0BFC0A2F0C0C0A3F079EC0FF01B
:102E2000F294120017D001C1F6FF02C1F7FF000EA5
:102E3000F86E0F0EF76403D00800F55005D0F6CFFA
:102E4000E9FFF7CFEAFFEF503FEC1AF00101014B29
:102E5000022B00D001C1F6FF02C1F7FF000EF86E91
:102E60000F0EF76403D00800F55005D0F6CFE9FF48
:102E7000F7CFEAFFEF500009D8A4D5D71200000E13
:102E8000096E000E0A6E000E0B6E000E0C6E00D066
:102E900001A009D00550092606500A2207500B222E
:102EA00008500C2200D0D890053606360736083672
:102EB000D890043203320232013201500210031062
:102EC0000410D8A4E5D709C001F00AC002F00BC075
:102ED00003F00CC004F0120016D002C0F6FF03C0CD
:102EE000F7FF000EF86E0F0EF76403D00800F550E0
:102EF00005D0F6CFE9FFF7CFEAFFEF5057EC1AF015
:102F0000024A032A00D002C0F6FF03C0F7FF000EFA
:102F1000F86E0F0EF76403D00800F55005D0F6CF19
:102F2000E9FFF7CFEAFFEF500009D8A4D6D7120087
:102F300092948084020E0101006F800E0101016FE6
:102F4000020EB2EC16F0000E0101026F010ED2EC7F
:102F500019F0000E0101026F000ED2EC19F0000E04
:102F60000101026F000EE2EC19F03F0E3BEC18F08D
:102F70000F0E3BEC18F0010E3BEC18F0060E3BEC8C
:102F800018F0120005D0014A022A034A042A00D090
:102F900001C0D9FF02C0DAFFDF50056E03C0F6FFA3
:102FA00004C0F7FF000EF86E0800F5500008052475
:102FB000066E0650D8A409D001C0D9FF02C0DAFFBE
:102FC000DF50D8B402D0DFD700D00650016E026ABD
:102FD00001BE020600D012000001955100019611B9
:102FE00000019711D8B40AD0000E0001951B000E05
:102FF0000001961B800E0001971B00D092C086F046
:1030000093C087F094C088F095C089F096C08AF08C
:1030100097C08BF03AEC0EF086C092F087C093F028
:1030200088C094F000D0120000EEBEF03C0EEE6AB4
:10303000E806FDE100EE42F0170EEE6AE806FDE15B
:10304000BC0EF66E340EF76E000EF86E0900F5CF6A
:10305000FAF00900F5CFFBF00900F5CFFCF0BF0E48
:10306000F66E340EF76E000EF86E0900F5CF59F0CB
:103070000001ECEF18F00101046F000E0101026F76
:10308000120EE2EC19F0000E29EC1AF004C102F164
:10309000130EE2EC19F0000E29EC1AF0400E0101BB
:1030A000026F120EE2EC19F0000E29EC1AF0000E7D
:1030B0000101026F120EE2EC19F0000E29EC1AF079
:1030C00012000001646F000E0001626F120EF2EC3C
:1030D00019F0000E34EC1AF064C062F0130EF2EC3A
:1030E00019F0000E34EC1AF0400E0001626F120E5F
:1030F000F2EC19F0000E34EC1AF0000E0001626FD1
:10310000120EF2EC19F0000E34EC1AF01200000E60
:103110000001D06F000E0001D16F000E0001D26FD0
:10312000000E0001D66F000E0001D76F000E0001E7
:10313000D86F000E0001D36F000E0001D46F000E97
:103140000001D56F040ED56EDB0ED76E600ED66E05
:10315000F18412000001646F800E0001626F120E94
:10316000F2EC19F0000E34EC1AF064C062F0130EA9
:10317000F2EC19F0C00E0001626F120EF2EC19F0C1
:10318000000E34EC1AF0000E0001626F120EF2EC29
:1031900019F0000E34EC1AF0120086C068F087C0F7
:1031A00069F04BEC19F068C077F069C078F06AC03C
:1031B00079F0000E00017A6FB40E00017B6F3D0EB6
:1031C00000017C6F31EC10F077C086F078C087F09A
:1031D00079C088F000D0120002EC1AF000D0030E83
:1031E0000001DB19D8A407D0DB0ED76E600ED66EB7
:1031F000F28AD58EF4D70001DB51D8A4F0D7000EA7
:103200000001DB6FECD756EF00F095689968969057
:10321000969296949A90968A968C968E88900A0E9C
:1032200029EC1AF08880140E1EEC1AF08490010E1E
:1032300047EC1AF084808494120000016051000170
:10324000611100016211D8B409D0000E0001601BA9
:10325000000E0001611B800E0001621B60C060F067
:1032600061C061F062C062F01200036E010E026E76
:10327000200E0318D8B40AD00E0E036004D0090E35
:10328000036004D000D0000E026E00D002C001F036
:10329000013000D0120068C060F069C061F0000128
:1032A000626B8E0E0001636F000E0001646FB7EC5D
:1032B00012F060C068F061C069F062C06AF000D0CE
:1032C0001200000161AF0ED060C062F061C063F017
:1032D0000001621F631F624B632B62C060F063C01A
:1032E00061F004D060C060F061C061F01200240E93
:1032F000AC6E900EAB6E000E7E6E150EAF6ED08E65
:103300009F9A9D8A010E0101016F100E0101026F4B
:1033100012EC17F012000101016FC9CF00F19E9667
:10332000C69E01C1C9FFC6BE07D002D005D000D0DD
:103330009EB602D0FDD700D012000150021003103B
:10334000D8B406D0000E011A000E021A800E031A1D
:1033500001C001F002C002F003C003F0120000013E
:10336000616FC9CF60F09E96C69E61C0C9FFC6BEA0
:1033700007D002D005D000D09EB602D0FDD700D035
:103380001200036E000E026E3A0E036006D02F0E7E
:10339000036403D0010E026E00D002C001F00130C0
:1033A00000D012000101036F8094400E8BEC19F0E5
:1033B000010103518BEC19F0010102518BEC19F062
:1033C000808412000101036F8094400E8BEC19F091
:1033D000010103518BEC19F0010102518BEC19F042
:1033E000808412000001636F8094400EAFEC19F0EE
:1033F00000016351AFEC19F000016251AFEC19F01C
:103400008084120005EC19F087EC18F010EC1AF02B
:1034100077EC19F098EC17F0F28EF28CD08E120047
:103420009890969896969896938092984C0EB76E30
:10343000CB68000EB16E040ECA6E12000101006F5F
:10344000FA0E00F0E82EFDD70101002FF9D700D0C9
:1034500012000101006F030EE82EFED700F00101FB
:10346000002FF9D700D012000001606F030EE82E84
:10347000FED700F00001602FF9D700D01200010143
:10348000006F00C1ADFF00D09EA8FED71200010161
:10349000006F00F00101002FFCD700D012000001E6
:1034A000656F00016551800F61EC18F01200016E2C
:1034B00001C0ADFF00D09EA8FED71200C3F53C01AD
:020000040020DA
:08000000FFFFFFFFFFFFFFFF00
:020000040030CA
:0E000000FF061F1EF38385FFFFC0FFE0FF40D9
:00000001FF
