:0400000021EFF9F003
:020000040001F9
:10F2420000EE60F00C0EEE6AE806FDE100EE54F00E
:10F25200090EEE6AE806FDE1000142EFF9F0015005
:10F2620002100310D8B406D0000E011A000E021AC2
:10F27200800E031A01C001F002C002F003C003F0C5
:10F28200120054ECF9F054C042F055C043F056C09D
:10F2920044F060C045F061C046F062C047F065ECE2
:10F2A200FCF000EF00F0000E5D6E000E5E6E000ED0
:10F2B2005F6E000E00016F6F000E0001706F000E96
:10F2C2000001716F000E00016C6F000E00016D6F86
:10F2D200000E00016E6FF28AF184840ED56EDB0E91
:10F2E200D76E600ED66E120035AE17D033C039F02D
:10F2F20034C03AF035C03BF0391E3A1E3B1E392A63
:10F30200000E3A223B22000E3924336E000E3A20C0
:10F31200346E800E3B20356E00D038AE17D036C02A
:10F3220039F037C03AF038C03BF0391E3A1E3B1E66
:10F33200392A000E3A223B22000E3924366E000E84
:10F342003A20376E800E3B20386E00D0000E331A02
:10F35200000E341A800E351A000E361A000E371AB5
:10F36200800E381A3650335C37503458385035587E
:10F37200D8B002D0D89002D0D88000D01200045069
:10F38200D8B405D0015002100310D8A40ED0000E3C
:10F39200016E000E026E000E036E53D006D0042AD8
:10F3A200D89003320232013200D0000E0114066EF0
:10F3B200000E0214076EFE0E0314086E06500710AC
:10F3C2000810D8B40ED0EBD70CD0042A010E0126B7
:10F3D200000E0222000E0322D890033202320132C2
:10F3E20000D0000E0114066E000E0214076EFF0E0E
:10F3F2000314086E065007100810D8B408D0E5D7D9
:10F4020006D00406D89001360236033600D002BE7A
:10F4120004D0020E0460F5D700D004B002D0029EE0
:10F4220000D0D8900432045003120550D8B402D050
:10F43200038E00D001C001F002C002F003C003F04D
:10F4420000D012000BC00FF0106A116A0A340F3696
:10F4520001E310800F50166E1650D8A402D00ED0C1
:10F4620061D00EC00FF0106A116A0D340F3601E33D
:10F4720010800F50176E1750D8A407D0000E096ED7
:10F48200000E0A6E000E0B6E4DD0000E136E000EB3
:10F49200146E000E156E1750890F165E0BC017F012
:10F4A2000E50171A800E17160A8EFF0E0916FF0E3F
:10F4B2000A16000E0B160D8EFF0E0C16FF0E0D1601
:10F4C200000E0E16180E126E00D0D8901336143697
:10F4D20015360C50095C0D500A580E500B58D8A026
:10F4E20007D00C50095E0D500A5A0E500B5A138069
:10F4F200D89009360A360B36122EE7D700D013C041
:10F5020001F014C002F015C003F016C004F017C0D9
:10F5120005F0C0ECF9F001C009F002C00AF003C026
:10F522000BF000D0120035C037F0386A396A343433
:10F53200373601E338803750416E4150D8A402D0AB
:10F5420039D063D0170E376E33C038F034C039F07B
:10F5520035C03AF037283B6E04D0D8903A3239326F
:10F5620038323B2EFAD738503C6E348EFF0E3316AB
:10F57200FF0E3416000E351633503D6E34503E6E7B
:10F5820035503F6E406A8E0E415E41AE10D0415002
:10F59200800A8F0FD8B003D00DD037D000D0D890CA
:10F5A20040323F323E323D32413EF9D719D0170E3A
:10F5B200416411D0000E336E000E346E000E356EB3
:10F5C200000E366E22D007D0D8903D363E363F36FA
:10F5D2004036410600D04150D8B402D0F5D700D011
:10F5E2003C50D8B409D0401E3F1E3E1E3D6C000E5A
:10F5F2003E223F22402200D03DC033F03EC034F0D4
:10F602003FC035F040C036F000D012001AC01EF0E4
:10F612001F6A206A19341E3601E31F801E50216EB4
:10F622002150D8A402D00ED06CD01DC01EF01F6A8B
:10F63200206A1C341E3601E31F801E50266E26509F
:10F64200D8A407D0000E186E000E196E000E1A6EA6
:10F6520058D026507B0F21261AC026F01D50261A9C
:10F66200800E2616198E1C8EFF0E1B16FF0E1C1600
:10F67200000E1D16000E226E000E236E000E246E6A
:10F68200070E256E00D018A007D01B5022261C5052
:10F6920023221D50242200D0D8901A321932183257
:10F6A200D8901B361C361D36252EEDD700D0090EFC
:10F6B200256E00D018A007D01B5022261C502322F2
:10F6C2001D50242200D0D8901A3219321832D89004
:10F6D200243223322232252EEDD700D022C001F06F
:10F6E20023C002F024C003F021C004F026C005F0BC
:10F6F200C0ECF9F001C018F002C019F003C01AF012
:10F7020000D0120029C02DF02E6A2F6A28342D361F
:10F7120001E32E802D50326E2CC02DF02E6A2F6AFE
:10F722002B342D3601E32E802D50316E3250D8B459
:10F732000BD03150325CD8B00ED032500008312498
:10F742002D6E180E2D6407D02AC027F02BC028F08A
:10F752002CC029F0B8D03150D8B40BD03250315C23
:10F76200D8B00ED03150000832242D6E180E2D6400
:10F7720007D027C027F028C028F029C029F0A3D03D
:10F78200060E306E29AE02D0308E00D02CBE308CE8
:10F79200288EFF0E2716FF0E2816000E29162B8E16
:10F7A200FF0E2A16FF0E2B16000E2C163150325C5D
:10F7B200D8B01ED0D8902A362B362C36310632508D
:10F7C2003118D8B40FD0300630C02DF0070E2D16E8
:10F7D200D8B408D0EFD706D0D890293228322732B1
:10F7E200322A00D031503218D8B424D0F5D722D0E2
:10F7F2003250315CD8B01ED0D89027362836293600
:10F80200320632503118D8B40FD0300630C02DF045
:10F81200070E2D16D8B408D0EFD706D0D8902C32C8
:10F822002B322A32312A00D031503218D8B402D0C9
:10F83200F5D700D030AE0CD0FF0E271AFF0E281AD3
:10F84200FF0E291A010E2726000E2822000E292259
:10F8520030AC0DD0FF0E2A1AFF0E2B1AFF0E2C1AF7
:10F86200010E2A26000E2B22000E2C2200D0000EA2
:10F87200306E27502A2628502B2229502C222CAEBB
:10F882000FD0FF0E2A1AFF0E2B1AFF0E2C1A010E92
:10F892002A26000E2B22000E2C22010E306E00D0E2
:10F8A2002AC001F02BC002F02CC003F032C004F0D9
:10F8B20030C005F0C0ECF9F001C027F002C028F01A
:10F8C20003C029F000D012005CA222D042C057F03F
:10F8D20043C058F044C059F0000E5D6E000E5E6EDB
:10F8E200000E5F6E000E00016F6F000E0001706F60
:10F8F200000E0001716F000E00016C6F000E00011E
:10F902006D6F000E00016E6F5C50010B5C6E00D0DB
:10F91200000E336E340E346E430E356E57C02AF02D
:10F9220058C02BF059C02CF045C001F046C002F07F
:10F9320047C003F030ECF9F001C027F002C028F014
:10F9420003C029F083ECFBF027C036F028C037F063
:10F9520029C038F075ECF9F0D8A026D057C02AF0AB
:10F9620058C02BF059C02CF045C001F046C002F03F
:10F9720047C003F030ECF9F001C027F002C028F0D4
:10F9820003C029F083ECFBF027C033F028C034F029
:10F9920029C035F0000E366E340E376EC30E386E47
:10F9A20075ECF9F0D8B0F2D0000E336E340E346E2E
:10F9B200430E356E57C02AF058C02BF059C02CF0B8
:10F9C20045C001F046C002F047C003F030ECF9F048
:10F9D20001C027F002C028F003C029F083ECFBF03D
:10F9E20027C036F028C037F029C038F075ECF9F09E
:10F9F200D8B053D057C033F058C034F059C035F0A6
:10FA020042C036F043C037F044C038F075ECF9F02C
:10FA1200D8B02BD045C02AF046C02BF047C02CF0FE
:10FA220042C001F043C002F044C003F030ECF9F0F0
:10FA320001C027F002C028F003C029F083ECFBF0DC
:10FA420027C051F028C052F029C053F051C027F00E
:10FA520052C028F053C029F0000E2A6EB40E2B6E4D
:10FA6200430E2C6E83ECFBF0FDD142C001F043C08B
:10FA720002F044C003F030ECF9F001C027F002C0FC
:10FA820028F003C029F045C02AF046C02BF047C039
:10FA92002CF083ECFBF0E6D1ECD157C02AF058C031
:10FAA2002BF059C02CF045C001F046C002F047C00F
:10FAB20003F030ECF9F001C027F002C028F003C0D7
:10FAC20029F083ECFBF027C033F028C034F029C0C2
:10FAD20035F0000E366E340E376EC30E386E75EC8E
:10FAE200F9F0D8B0C6D142C033F043C034F044C0BC
:10FAF20035F057C036F058C037F059C038F075ECC1
:10FB0200F9F0D8B02BD0000E2A6EB40E2B6E430E35
:10FB12002C6E42C027F043C028F044C029F083EC89
:10FB2200FBF027C001F028C002F029C003F030EC3E
:10FB3200F9F001C051F002C052F003C053F051C0BD
:10FB420027F052C028F053C029F045C02AF046C021
:10FB52002BF047C02CF083ECFBF084D142C001F0C3
:10FB620043C002F044C003F030ECF9F001C027F0CA
:10FB720002C028F003C029F045C02AF046C02BF08D
:10FB820047C02CF083ECFBF06DD173D1000E336EC5
:10FB9200340E346E430E356E57C02AF058C02BF027
:10FBA20059C02CF045C001F046C002F047C003F036
:10FBB20030ECF9F001C027F002C028F003C029F0B0
:10FBC20083ECFBF027C036F028C037F029C038F0AC
:10FBD20075ECF9F0D8A04DD1000E336E340E346EB0
:10FBE200C30E356E57C02AF058C02BF059C02CF006
:10FBF20045C001F046C002F047C003F030ECF9F016
:10FC020001C027F002C028F003C029F083ECFBF00A
:10FC120027C036F028C037F029C038F075ECF9F06B
:10FC2200D8B027D1000E336E340E346EC30E356E4B
:10FC320045C02AF046C02BF047C02CF057C001F057
:10FC420058C002F059C003F030ECF9F001C027F0BF
:10FC520002C028F003C029F083ECFBF027C036F085
:10FC620028C037F029C038F075ECF9F0D8B06BD065
:10FC720057C001F058C002F059C003F030ECF9F05F
:10FC820001C027F002C028F003C029F045C02AF0C5
:10FC920046C02BF047C02CF083ECFBF029AE53D0CA
:10FCA20057C033F058C034F059C035F042C036F076
:10FCB20043C037F044C038F075ECF9F0D8A017D043
:10FCC20042C001F043C002F044C003F030ECF9F04E
:10FCD20001C027F002C028F003C029F045C02AF075
:10FCE20046C02BF047C02CF083ECFBF0BBD045C0E4
:10FCF2002AF046C02BF047C02CF042C001F043C0AE
:10FD020002F044C003F030ECF9F001C027F002C069
:10FD120028F003C029F083ECFBF027C051F028C083
:10FD220052F029C053F051C027F052C028F053C0FE
:10FD320029F0000E2A6EB40E2B6E430E2C6E83EC4D
:10FD4200FBF090D096D045C02AF046C02BF047C0B9
:10FD52002CF057C001F058C002F059C003F030EC4B
:10FD6200F9F001C027F002C028F003C029F083ECAB
:10FD7200FBF027C033F028C034F029C035F0000E64
:10FD8200366E340E376E430E386E75ECF9F0D8B01D
:10FD920070D057C001F058C002F059C003F030ECE7
:10FDA200F9F001C027F002C028F003C029F045C0D5
:10FDB2002AF046C02BF047C02CF083ECFBF029BEA2
:10FDC20058D057C033F058C034F059C035F042C053
:10FDD20036F043C037F044C038F075ECF9F0D8A0E3
:10FDE20017D042C001F043C002F044C003F030EC2F
:10FDF200F9F001C027F002C028F003C029F045C085
:10FE02002AF046C02BF047C02CF083ECFBF02AD03E
:10FE1200000E2A6EB40E2B6E430E2C6E42C027F0DB
:10FE220043C028F044C029F083ECFBF027C001F066
:10FE320028C002F029C003F030ECF9F001C051F003
:10FE420002C052F003C053F051C027F052C028F054
:10FE520053C029F045C02AF046C02BF047C02CF011
:10FE620083ECFBF027C05DF028C05EF029C05FF094
:10FE720000D05DC027F05EC028F05FC029F06FC0DF
:10FE82002AF070C02BF071C02CF083ECFBF027C07D
:10FE92006CF028C06DF029C06EF06FC001F070C028
:10FEA20002F071C003F030ECF9F001C027F002C09B
:10FEB20028F003C029F05DC02AF05EC02BF05FC0BD
:10FEC2002CF083ECFBF027C048F028C049F029C091
:10FED2004AF06CC01BF06DC01CF06EC01DF066C015
:10FEE20018F067C019F068C01AF007ECFBF018C0F0
:10FEF2004BF019C04CF01AC04DF0C30E1B6EF50E3C
:10FF02001C6E3C0E1D6E4BC018F04CC019F04DC05B
:10FF12001AF007ECFBF018C02AF019C02BF01AC037
:10FF22002CF05DC01BF05EC01CF05FC01DF069C00C
:10FF320018F06AC019F06BC01AF007ECFBF018C099
:10FF420027F019C028F01AC029F083ECFBF027C073
:10FF52004EF028C04FF029C050F063C01BF064C0BF
:10FF62001CF065C01DF0C30E0C6EF50E0D6E3C0E3E
:10FF72000E6E48C009F049C00AF04AC00BF023ECEB
:10FF8200FAF009C018F00AC019F00BC01AF007EC19
:10FF9200FBF018C02AF019C02BF01AC02CF04EC08A
:10FFA20027F04FC028F050C029F083ECFBF027C0A7
:10FFB20033F028C034F029C035F094ECFAF033C0A5
:10FFC2005AF034C05BF05BBE07D05B04D8A004D00B
:10FFD200000E5B6E5A680CD05BAE0AD05A04FF0E5C
:10FFE2005B58D8B005D0FF0E5B6E010E5A6E00D082
:0EFFF2005DC06FF05EC070F05FC071F0120075
:020000040020DA
:08000000FFFFFFFFFFFFFFFF00
:020000040030CA
:0E000000FF071F1FF38385FFFFC0FFE0FF40D7
:00000001FF
