:04000000DEEF0BF034
:1010000000486572652069732074686520646F7597
:10101000626C6520737472696E6720616761696EC6
:101020003A20004865726520697320746865206401
:101030006F75626C6520737472696E673A20004147
:101040006E6420686572652069732074686520632A
:101050006861723A2000486572652069732074687F
:101060006520636861723A200000000E0C6EC80EA5
:101070000D6E420E0E6E27C009F028C00AF029C07E
:101080000BF0E5EC08F009C018F00AC019F00BC02D
:101090001AF061EC09F018C02AF019C02BF02AC030
:1010A00001F02BC002F0270E046E100E036EA1ECAF
:1010B0000AF001C02CF002C02DF02AC001F02BC0B4
:1010C00002F0270E046E100E036E24EC0BF001C02C
:1010D0002EF002C02FF02C502D10D8B404D02C507C
:1010E000300F11EC0CF02EC001F02FC002F0030EF7
:1010F000046EE80E036EA1EC0AF001C02CF002C0F1
:101100002DF02EC001F02FC002F0030E046EE80E89
:10111000036E24EC0BF001C02EF002C02FF02C5017
:101120002D10D8B404D02C50300F11EC0CF02EC080
:1011300001F02FC002F0000E046E640E036EA1ECED
:101140000AF001C02CF002C02DF02EC001F02FC01B
:1011500002F0000E046E640E036E24EC0BF001C06E
:101160002EF002C02FF02C50300F11EC0CF02E0E90
:1011700011EC0CF02EC001F02FC002F0000E046E36
:101180000A0E036EA1EC0AF001C02CF002C02DF093
:101190002EC001F02FC002F0000E046E0A0E036E86
:1011A00024EC0BF001C02EF002C02FF02C50300FB9
:1011B00011EC0CF02E50300F11EC0CF00A0E11EC6B
:1011C0000CF00D0E11EC0CF012000BC00FF0106AB9
:1011D000116A0A340F3601E310800F50126E12505C
:1011E000D8A402D00ED06CD00EC00FF0106A116AD5
:1011F0000D340F3601E310800F50176E1750D8A42E
:1012000007D0000E096E000E0A6E000E0B6E58D04D
:1012100017507B0F12260BC017F00E50171A800EB6
:1012200017160A8E0D8EFF0E0C16FF0E0D16000EF1
:101230000E16000E136E000E146E000E156E070EC5
:10124000166E00D009A007D00C5013260D501422A2
:101250000E50152200D0D8900B320A320932D890A5
:101260000C360D360E36162EEDD700D0090E166E42
:1012700000D009A007D00C5013260D5014220E5098
:10128000152200D0D8900B320A320932D89015328C
:1012900014321332162EEDD700D013C001F014C053
:1012A00002F015C003F012C004F017C005F03EECC8
:1012B0000AF001C009F002C00AF003C00BF000D030
:1012C00012001AC01CF01D6A1E6A19341C3601E394
:1012D0001D801C50266E2650D8A402D039D063D071
:1012E000170E1C6E18C01DF019C01EF01AC01FF09A
:1012F0001C28206E04D0D8901F321E321D32202EA2
:10130000FAD71D50216E198EFF0E1816FF0E1916F2
:10131000000E1A161850226E1950236E1A50246EA1
:10132000256A8E0E265E26AE10D02650800A8F0FBC
:10133000D8B003D00DD037D000D0D8902532243289
:1013400023322232263EF9D719D0170E266411D047
:10135000000E186E000E196E000E1A6E000E1B6E37
:1013600022D007D0D89022362336243625362606BA
:1013700000D02650D8B402D0F5D700D02150D8B430
:1013800009D0251E241E231E226C000E2322242297
:10139000252200D022C018F023C019F024C01AF072
:1013A00025C01BF000D0120018EC0CF0000E306EBF
:1013B0007F0E316E430E326E060E336E0AEC0CF069
:1013C0000AEC0CF0230E026E100E036EA7EC0BF06D
:1013D00030C027F031C028F032C029F035EC08F0D9
:1013E0000AEC0CF0560E026E100E036EA7EC0BF01A
:1013F0003350300F11EC0CF00AEC0CF030C005F05B
:1014000031C006F032C007F0000EFAEC0AF033C02B
:1014100005F0040EBDEC0BF0000E306E000E316EC8
:10142000000E326E000E336E0AEC0CF0000ECFECA4
:101430000AF007C030F008C031F009C032F0040EE5
:10144000CEEC0BF0336E010E026E100E036EA7ECA5
:101450000BF030C027F031C028F032C029F035EC55
:1014600008F03F0E026E100E036EA7EC0BF0335027
:10147000300F11EC0CF0FFD700EF00F00450D8B49F
:1014800005D0015002100310D8A40ED0000E016E3A
:10149000000E026E000E036E53D006D0042AD890C0
:1014A00003320232013200D0000E0114066E000E2B
:1014B0000214076EFE0E0314086E06500710081083
:1014C000D8B40ED0EBD70CD0042A010E0126000EA2
:1014D0000222000E0322D89003320232013200D0E1
:1014E000000E0114066E000E0214076EFF0E0314A8
:1014F000086E065007100810D8B408D0E5D706D0FB
:101500000406D89001360236033600D002BE04D05D
:10151000020E0460F5D700D004B002D0029E00D0C5
:10152000D8900432045003120550D8B402D0038E70
:1015300000D001C001F002C002F003C003F000D0EF
:101540001200000E066E000E056E03500410D8B493
:1015500021D0010E076E05D0D89003360436072A35
:1015600000D004BE02D0F8D700D0D8900536063699
:101570000350015C04500258D8A006D00350015E0D
:101580000450025A058000D0D89004320332072E4E
:10159000ECD700D005C001F006C002F012000A6EC0
:1015A000F2503F0BF26E000E0B6E020E0B6401D078
:1015B00014D00B50010D3A0EF324D96E000EF42016
:1015C000DA6E0A500B24016E026A0236EBEC0BF065
:1015D000DF6E1DEC0CF00B2AE8D7F250C009F26E5A
:1015E0004AEC0BF001C007F002C008F003C009F09C
:1015F00000D01200086E05C001F006C002F007C05E
:1016000003F08CEC0BF0F2503F0BF26E000E096E03
:10161000020E096401D014D008C001F0026A09501A
:10162000010D3A0EF324D96E000EF420DA6EDF506D
:10163000036E6CEC0BF0082A1DEC0CF0092AE8D7BD
:10164000F250C009F26E120003500410D8B41DD03D
:10165000010E056E05D0D89003360436052A00D059
:1016600004BE02D0F8D700D00350015C04500258E9
:10167000D8A005D00350015E0450025A00D0D89083
:1016800004320332052EF0D700D001C001F002C0B1
:1016900002F01200040E496E000E4A6E49C0D9FFD6
:1016A0004AC0DAFF3AC0DFFF20EE01F04950D926E8
:1016B0004A50DA223BC0DFFF20EE02F04950D92623
:1016C0004A50DA223CC0DFFF04C001F005C002F03E
:1016D00006C003F000D01200000E046E0250030B8F
:1016E000AA6E01C0A9FF03C0A8FFA69EA69CA6845F
:1016F000000EF2BE010E046EF29E550EA76EAA0EEB
:10170000A76EA68200D0A6B2FED704B002D0F29E89
:1017100001D0F28EA6941200010E496E000E4A6EA0
:1017200049C0D9FF4AC0DAFFDF503A6E20EE01F01F
:101730004950D9264A50DA22DF503B6E20EE02F0A3
:101740004950D9264A50DA22DF503C6E12000BD0A5
:1017500002C0F6FF03C0F7FF0800F55011EC0CF0D3
:10176000024A032A00D002C0F6FF03C0F7FF0800B8
:10177000F5500009D8A4ECD71200066EF2503F0BCA
:10178000F26E06C001F0026A05C003F06CEC0BF0CB
:101790001DEC0CF0F250C009F26E1200036EF25014
:1017A0003F0BF26E03C001F0026AEBEC0BF0046E2B
:1017B000F250C009F26E045000D0120000EE34F076
:1017C000180EEE6AE806FDE1000EF86E100EF76ED8
:1017D0000001D4EF09F00250030BAA6E01C0A9FF6B
:1017E000A69CA69EA68000F000F0A85000D0120093
:1017F000240EAC6E900EAB6E000E7E6E150EAF6EAC
:101800009D8A1200A69EA69CA6843D0ED26EA08440
:10181000A28412000A0E11EC0CF00D0E11EC0CF06B
:101820001200016E01C0ADFF00D09EA8FED71200CD
:10183000F8EC0BF002EC0CF0120000D0A6B2FED7D0
:02184000120094
:020000040020DA
:08000000FFFFFFFFFFFFFFFF00
:020000040030CA
:0E000000FF061F1EF38385FFFFC0FFE0FF40D9
:00000001FF
