:0400000050EF09F0C4
:1010000000486572652069732074686520646F7597
:10101000626C6520737472696E6720616761696EC6
:101020003A20004865726520697320746865206401
:101030006F75626C6520737472696E673A20004147
:101040006E6420686572652069732074686520632A
:10105000686172000000CDEC09F02BC01BF02CC0C1
:101060001CF02DC01DF0000EDFEC08F02EC01BF0B0
:10107000080E86EC09F0000E2E6E000E2B6E000E90
:101080002C6E000E2D6E230E186E100E196EB3EC22
:1010900008F0140E186E000E196EB3EC08F00A0E6C
:1010A000C6EC09F00D0EC6EC09F0000E09EC09F0D3
:1010B00026C02BF027C02CF028C02DF0080E97EC8E
:1010C00009F02E6E010E186E100E196EB3EC08F0BA
:1010D000140E186E000E196EB3EC08F03F0E186E69
:1010E000100E196EB3EC08F02E50300FC6EC09F05C
:1010F000FFD700EF00F0220E2F6E000E306E030EB1
:10110000256E2550D8B428D001D026D0FF0E1A6EF7
:10111000FF0E1B6E25501C6E1D6A1A501C261B509C
:101120001D22140E1C24D96E000E1D20DA6EFF0E37
:101130001E6EFF0E1F6E2550206E216A1E50202647
:101140001F50212220502F24E16E21503020E26ECA
:10115000DFCFE7FF2506D5D722C017F023C018F050
:1011600024C019F0120016D018C0F6FF19C0F7FFFE
:10117000000EF86E0F0EF76403D00800F55005D08E
:10118000F6CFE1FFF7CFE2FFE750C6EC09F0184ACF
:10119000192A00D018C0F6FF19C0F7FF000EF86E2C
:1011A0000F0EF76403D00800F55005D0F6CFE1FF2D
:1011B000F7CFE2FFE7500009D8A4D6D712001E6E81
:1011C0001BC017F01CC018F01DC019F06BEC09F023
:1011D000F2503F0BF26E000E1F6E020E1F6401D024
:1011E00014D01EC017F0186A1F50010D140EF324FE
:1011F000D96E000EF420DA6EDF50196E30EC09F073
:101200001E2AD2EC09F01F2AE8D7F250C009F26E6C
:101210001200296EF2503F0BF26E000E2A6E020E83
:101220002A6401D010D02A50010D140EF324D96E77
:10123000000EF420DA6E29C017F0186AA7EC09F046
:10124000DF6E2A2AECD7F250C009F26E7BEC08F070
:1012500017C026F018C027F019C028F000D01200DF
:10126000000E1A6E1850030BAA6E17C0A9FF19C002
:10127000A8FFA69EA69CA684000EF2BE010E1A6EC2
:10128000F29E550EA76EAA0EA76EA68200D0A6B239
:10129000FED71AB002D0F29E01D0F28EA6941200B0
:1012A00000EE01F0160EEE6AE806FDE1AC0EF66EF9
:1012B000130EF76E000EF86E00EE2BF010EE04F039
:1012C0000900F5CFEEFFE550E150FAE1000EF86EAF
:1012D00000012BEF08F0170E2F6E000E306E2FC09E
:1012E000D9FF30C0DAFFDF50146E20EE01F02F502E
:1012F000D9263050DA22DF50156E20EE02F02F5042
:10130000D9263050DA22DF50166E12001C6EF250D1
:101310003F0BF26E1CC017F0186A1BC019F030ECBE
:1013200009F0D2EC09F0F250C009F26E1200196E09
:10133000F2503F0BF26E19C017F0186AA7EC09F0D3
:101340001A6EF250C009F26E1A5000D012001850F6
:10135000030BAA6E17C0A9FFA69CA69EA68000F04C
:1013600000F0A85000D01200240EAC6E900EAB6EB0
:10137000000E7E6E150EAF6E9D8A1200A69EA69C74
:10138000A6843D0ED26EA084A2841200176E17C0F0
:10139000ADFF00D09EA8FED71200B4EC09F0BEEC61
:1013A00009F0120000D0A6B2FED71200634B45062A
:020000040020DA
:08000000FFFFFFFFFFFFFFFF00
:020000040030CA
:0E000000FF061F1EF38385FFFFC0FFE0FF40D9
:00000001FF
