:0400000051EF09F0C3
:1010000000383638303A2000383732323A20000083
:10101000000E0C6E06AE08D0F60E055CFF0E0658EC
:10102000D8B002D0B78E1FD006BE08D0065004E15B
:101030000B0E055CD8A002D0B79E15D006BE06D018
:10104000065011E10B0E055CD8B00DD006AE06D0EF
:10105000F60E055CFF0E0658D8A005D0000E066EF1
:10106000000E056E00D005C001F006C002F0E6ECEF
:1010700008F001C005F002C006F0D8900534096EF2
:1010800006340A6E09C007F00AC008F0D89008328A
:101090000732D890083207320750B86E09C007F0FF
:1010A000030E0716073AB7500718CF0B0718B76E8D
:1010B0001200036E3F0EC716000EC66E0350C61216
:1010C0000250C71205D0C78C13D0C78CC68810D069
:1010D0000150000AD8B4F7D7020AD8B4F6D7010AEB
:1010E000D8B4F4D705D0978E94860AD0949608D0B9
:1010F0000350040AD8B4F7D7010AD8B4F5D7F6D705
:101100009488949AC68A120092948084020E016E8A
:10111000800E026E020E59EC08F0000E036E010EF6
:1011200019EC09F0000E036E000E19EC09F0000E28
:10113000036E000E26EC09F03F0EA9EC08F00F0E2E
:10114000A9EC08F0010EA9EC08F0060EA9EC08F0D5
:101150001200056E000E036E120E26EC09F0000E52
:1011600048EC09F005C003F0130E26EC09F0000E60
:1011700048EC09F0400E036E120E26EC09F0000E4A
:1011800048EC09F0000E036E120E26EC09F0000E7A
:1011900048EC09F01200000E956E9294938281A2A1
:1011A00003D08084010E04D081B204D08094000E5C
:1011B0000B6E00D0C280C250010BC26EC250040937
:1011C000C26E0D0EC16EB40EC06E120002AE0DD016
:1011D00001C003F002C004F0031E041E034A042AE7
:1011E00003C001F004C002F004D001C001F002C04D
:1011F00002F01200026EC9CF01F09E96C69E02C098
:10120000C9FFC6BE07D002D005D000D09EB602D01E
:10121000FDD700D012009890969896969896938055
:1012200092984C0EB76ECB68000EB16E040ECA6E6B
:101230001200046E8094400EFAEC08F00450FAECB0
:1012400008F00350FAEC08F080841200046E8094D9
:10125000400EFAEC08F00450FAEC08F00350FAECF7
:1012600008F0808412003EEC09F0FF0E066ECE0EF0
:10127000056E08EC08F0F9D700EF00F00BEC09F070
:10128000CBEC08F084EC08F0F250C009F26E1200CA
:10129000016E030EE82EFED700F0012EFAD700D023
:0C12A00012000C6A0B6A000133EF09F029
:020000040020DA
:08000000FFFFFFFFFFFFFFFF00
:020000040030CA
:0E000000FF061F1EF38385FFFFC0FFE0FF40D9
:00000001FF
