:040000000CEF00F011
:10000800FACF31F0FBCF32F0E9CF33F0B6ED15F08F
:0400180095EF17F059
:101000000057656C636F6D6520746F207468652090
:10101000776F726C64206F6620746F6D6F72726F81
:10102000772121210020202056616C75653A20002F
:101030004B65793A20003F3F3F0056454C00504FEA
:10104000530076656C00706F73004B44004B490091
:101050004B5000415A006B64006B69006B7000617B
:101060007A000000000E0001B46F26EC18F07AD16F
:101070000001BB05D8A4FCD7000E0001BB6F000126
:10108000DE05D8B402D070D100D080B2FED7020EF7
:101090005218D8B412D0030E5218D8B40ED0040E81
:1010A0005218D8B40AD0060E5218D8B406D0080E7A
:1010B0005218D8B402D016D100D0020E5218D8A4BB
:1010C00032D0010E0001816F5250B1EC16F0DA0EF1
:1010D0000001AF6F000E0001B06F010E0001B16F93
:1010E00055EC14F053EC17F080C0B5F081C0B6F0A9
:1010F00082C0B7F0000E0001B46F040E0001B419F5
:10110000D8B4E9D001D0E7D00001B451010DDA0E16
:10111000F324D96E000EF420DA6E000EDF6E0001AB
:10112000B42BEBD7D8D0030E5218D8A432D0010E6E
:101130000001816F5250B1EC16F0DA0E0001AF6F72
:10114000000E0001B06F010E0001B16F55EC14F0FC
:1011500053EC17F080C0B8F081C0B9F082C0BAF08B
:10116000000E0001B46F040E0001B419D8B4B3D05E
:1011700001D0B1D00001B451010DDA0EF324D96EC3
:10118000000EF420DA6E000EDF6E0001B42BEBD7F8
:10119000A2D0040E5218D8A432D0010E0001816FE3
:1011A0005250B1EC16F0DA0E0001AF6F000E0001E4
:1011B000B06F010E0001B16F55EC14F053EC17F055
:1011C00080C045F081C046F082C047F0000E0001AB
:1011D000B46F040E0001B419D8B47DD001D07BD017
:1011E0000001B451010DDA0EF324D96E000EF42083
:1011F000DA6E000EDF6E0001B42BEBD76CD0060E5A
:101200005218D8A432D0010E0001816F5250B1ECB7
:1012100016F0DA0E0001AF6F000E0001B06F010E84
:101220000001B16F55EC14F053EC17F080C042F0A0
:1012300081C043F082C044F0000E0001B46F040E80
:101240000001B419D8B447D001D045D00001B45141
:10125000010DDA0EF324D96E000EF420DA6E000EC2
:10126000DF6E0001B42BEBD736D0080E5218D8A48D
:1012700032D0010E0001816F5250B1EC16F0DA0E3F
:101280000001AF6F000E0001B06F010E0001B16FE1
:1012900055EC14F053EC17F080C03FF081C040F0E3
:1012A00082C041F0000E0001B46F040E0001B419B9
:1012B000D8B411D001D00FD00001B451010DDA0E15
:1012C000F324D96E000EF420DA6E000EDF6E0001FA
:1012D000B42BEBD700D03AEC15F00009D8A4C8D64F
:1012E000ECD6C6D65204D8B40CD0050E5218D8B4D9
:1012F00008D0070E5218D8B404D0090E5218D8A43A
:10130000B7D6010E0001816F5250B1EC16F04BC000
:1013100082F04CC083F04DC084F031EC17F0809621
:1013200000D080B2FED7320E13EC18F0000E000190
:10133000B46F040E0001B419D8B414D001D012D087
:10134000010E0001816F0001B451010DDA0EF3248A
:10135000D96E000EF420DA6EDF50B1EC16F0000109
:10136000B42BE7D7808684D6020E0001DE19D8A4FC
:101370007FD6020E5218D8B412D0030E5218D8B429
:101380000ED0040E5218D8B40AD0060E5218D8B493
:1013900006D0080E5218D8B402D016D100D0020ED2
:1013A0005218D8A432D0020E0001816F5250B1EC15
:1013B00016F0DA0E0001AF6F000E0001B06F020EE2
:1013C0000001B16F55EC14F053EC17F080C0B5F08C
:1013D00081C0B6F082C0B7F0000E0001B46F040EF9
:1013E0000001B419D8B4E9D001D0E7D00001B4515C
:1013F000010DDA0EF324D96E000EF420DA6E000E21
:10140000DF6E0001B42BEBD7D8D0030E5218D8A44E
:1014100032D0020E0001816F5250B1EC16F0DA0E9C
:101420000001AF6F000E0001B06F020E0001B16F3E
:1014300055EC14F053EC17F080C0B8F081C0B9F04F
:1014400082C0BAF0000E0001B46F040E0001B4199E
:10145000D8B4B3D001D0B1D00001B451010DDA0E2F
:10146000F324D96E000EF420DA6E000EDF6E000158
:10147000B42BEBD7A2D0040E5218D8A432D0020E4F
:101480000001816F5250B1EC16F0DA0E0001AF6F1F
:10149000000E0001B06F020E0001B16F55EC14F0A8
:1014A00053EC17F080C045F081C046F082C047F091
:1014B000000E0001B46F040E0001B419D8B47DD041
:1014C00001D07BD00001B451010DDA0EF324D96EA6
:1014D000000EF420DA6E000EDF6E0001B42BEBD7A5
:1014E0006CD0060E5218D8A432D0020E0001816FC3
:1014F0005250B1EC16F0DA0E0001AF6F000E000191
:10150000B06F020E0001B16F55EC14F053EC17F000
:1015100080C042F081C043F082C044F0000E000160
:10152000B46F040E0001B419D8B447D001D045D02F
:101530000001B451010DDA0EF324D96E000EF4202F
:10154000DA6E000EDF6E0001B42BEBD736D0080E3A
:101550005218D8A432D0020E0001816F5250B1EC63
:1015600016F0DA0E0001AF6F000E0001B06F020E30
:101570000001B16F55EC14F053EC17F080C03FF050
:1015800081C040F082C041F0000E0001B46F040E33
:101590000001B419D8B411D001D00FD00001B4515A
:1015A000010DDA0EF324D96E000EF420DA6E000E6F
:1015B000DF6E0001B42BEBD700D03AEC15F0000938
:1015C000D8A456D5ECD654D55204D8B40CD0050EB8
:1015D0005218D8B408D0070E5218D8B404D0090E47
:1015E0005218D8A445D5020E0001816F5250B1ECBB
:1015F00016F04BC082F04CC083F04DC084F031EC4B
:1016000017F0809800D080B4FED7320E13EC18F09B
:10161000000E0001B46F040E0001B419D8B414D048
:1016200001D012D0020E0001816F0001B451010DF2
:10163000DA0EF324D96E000EF420DA6EDF50B1EC2E
:1016400016F00001B42BE7D7808812D50CEF00F01C
:10165000000E2E6E000E2D6E0FD02E2A2E50010D74
:10166000F3502424D96EF4502520DA6E3D0EDE1896
:10167000D8A402D0010E01D0000E2C6E00D02E5046
:10168000010DF3502424D96EF4502520DA6E3D0E5E
:10169000DE18D8B40BD02E50286E296A2650285C4C
:1016A00027502958D8B002D0D8D700D02E50286E55
:1016B000296A2650285C27502958D8B000D12C50D0
:1016C000D8B4FDD0000E2D6E22D02D50010DF35058
:1016D0002424D96EF4502520DA6EDF50AFEC17F0D9
:1016E000D8B013D02D50010DF3502424D96EF450EE
:1016F0002520DA6E2D50010D5D0EF324E16E000EF3
:10170000F420E26EDFCFE7FF00D02D2A00D02E506C
:101710002D5CD8B004D0040E2D64D7D700D0300E85
:10172000026E100E036EDDEC16F05D0E026E000E02
:10173000036EDDEC16F0000E2D6E15D02E2A2E5005
:10174000010DF3502424D96EF4502520DA6E2D506B
:10175000010D530EF324E16E000EF420E26EDFCF94
:10176000E7FF2D2A00D02E50286E296A010E282668
:10177000000E292228502424D96E29502520DA6E03
:10178000DF50D8A4DBD7250E026E100E036EDDEC01
:1017900016F0530E026E000E036EDDEC16F05D0EB9
:1017A000016E000E026E3E0E036E100E046E09EC0A
:1017B00017F001500210D8B40ED05D0E016E000E6D
:1017C000026E460E036E100E046E09EC17F0015007
:1017D0000210D8A406D0010E526E3B0E2DEC18F06C
:1017E00099D15D0E016E000E026E500E036E100E4A
:1017F000046E09EC17F001500210D8B40ED05D0E43
:10180000016E000E026E5C0E036E100E046E09EC8B
:1018100017F001500210D8A406D0050E526E3B0EF0
:101820002DEC18F077D15D0E016E000E026E4D0E9C
:10183000036E100E046E09EC17F001500210D8B4BC
:101840000ED05D0E016E000E026E590E036E100E6C
:10185000046E09EC17F001500210D8A406D0070E50
:10186000526E3B0E2DEC18F055D15D0E016E000E40
:10187000026E4A0E036E100E046E09EC17F0015052
:101880000210D8B40ED05D0E016E000E026E560E20
:10189000036E100E046E09EC17F001500210D8A46C
:1018A00006D0090E526E3B0E2DEC18F033D1360ED9
:1018B000026E100E036EDDEC16F029D12BD12C50E8
:1018C000D8A428D1000E2D6E14D02D50010DF35048
:1018D0002424D96EF4502520DA6E2D50010D5D0EB2
:1018E000F324E16E000EF420E26EDFCFE7FF2D2A35
:1018F00000D02D50010DF3502424D96EF450252032
:10190000DA6E0D0EDE18D8A4E0D7300E026E100E7F
:10191000036EDDEC16F05D0E026E000E036EDDEC64
:1019200016F05D0E016E000E026E530E036E100E69
:10193000046E09EC17F001500210D8B40ED05D0E01
:10194000016E000E026E5F0E036E100E046E09EC47
:1019500017F001500210D8A407D0010E0001DE6F6D
:101960003B0E2DEC18F0D6D05D0E016E000E026E0F
:101970003B0E036E100E046E09EC17F001500210BE
:10198000D8B40ED05D0E016E000E026E430E036ED3
:10199000100E046E09EC17F001500210D8A407D005
:1019A000020E0001DE6F3B0E2DEC18F0B3D05D0E81
:1019B000016E000E026E3E0E036E100E046E09ECF8
:1019C00017F001500210D8B40ED05D0E016E000E5B
:1019D000026E460E036E100E046E09EC17F00150F5
:1019E0000210D8A406D0020E526E3B0E2DEC18F059
:1019F00091D05D0E016E000E026E3A0E036E100E57
:101A0000046E09EC17F001500210D8B40ED05D0E30
:101A1000016E000E026E420E036E100E046E09EC93
:101A200017F001500210D8A406D0030E526E3B0EE0
:101A30002DEC18F06FD05D0E016E000E026E500E90
:101A4000036E100E046E09EC17F001500210D8B4AA
:101A50000ED05D0E016E000E026E5C0E036E100E57
:101A6000046E09EC17F001500210D8A406D0040E41
:101A7000526E3B0E2DEC18F04DD05D0E016E000E37
:101A8000026E4D0E036E100E046E09EC17F001503D
:101A90000210D8B40ED05D0E016E000E026E590E0B
:101AA000036E100E046E09EC17F001500210D8A45A
:101AB00006D0060E526E3B0E2DEC18F02BD05D0EAC
:101AC000016E000E026E4A0E036E100E046E09ECDB
:101AD00017F001500210D8B40ED05D0E016E000E4A
:101AE000026E560E036E100E046E09EC17F00150D4
:101AF0000210D8A406D0080E526E3B0E2DEC18F042
:101B000009D0360E026E100E036EDDEC16F0000EDC
:101B1000526E00D0530E186E000E196E2A0E1A6EF9
:101B2000000E1B6ED6EC0DF018C04BF019C04CF037
:101B30001AC04DF0000E2E6E040E2E6401D00CD093
:101B40002E50010D5D0EF324D96E000EF420DA6ED6
:101B5000000EDF6E2E2AF0D7000E2E6E090E2E64B8
:101B600001D00CD02E50010D530EF324D96E000E6F
:101B7000F420DA6E000EDF6E2E2AF0D7000E2E6EE5
:101B80001D0E2E6401D00CD02E50010DBC0EF3247E
:101B9000D96E000EF420DA6E000EDF6E2E2AF0D71A
:101BA000000E2C6E010E0001BB6F12001A501B10AC
:101BB000D8B40CD01AC0D9FF1BC0DAFF18C0DEFFA2
:101BC00019C0DDFF03D0184A192A00D018C0D9FF68
:101BD00019C0DAFFDF501D6E1D50AFEC17F0D8B002
:101BE000F2D7000E1E6E2D0E1D18D8A403D0010EC4
:101BF0001E6E04D02B0E1D18D8A403D0184A192A23
:101C000000D0000E1D6E000E206E000E216E000E24
:101C1000226E000E236E000E1F6E00D01EB80AD07A
:101C200018C0D9FF19C0DAFF2E0EDE18D8A402D0D2
:101C30001E8840D018C0D9FF19C0DAFFDF50EBEC86
:101C400017F0D8A03AD001D038D01E82080E1D1847
:101C5000D8B42CD01EB81F061D2A20C001F021C008
:101C600002F022C003F023C004F00A0E056E000E3D
:101C7000066E000E076E000E086E84EC16F001C0B2
:101C800020F002C021F003C022F004C023F018C0ED
:101C9000D9FF19C0DAFFDF501C6ED00E1C261C5075
:101CA0002026000E21222222232204D01EB802D098
:101CB0001F2A00D0184A192AB1D7000E1D6E18C06D
:101CC000D9FF19C0DAFF650EDE18D8B408D018C0E5
:101CD000D9FF19C0DAFF450EDE18D8A465D0184A1E
:101CE000192A18C0D9FF19C0DAFF2D0EDE18D8A4A2
:101CF00002D01E8608D018C0D9FF19C0DAFF2B0EFB
:101D0000DE18D8A406D0184A192A03D0184A192A6E
:101D100000D018C0D9FF19C0DAFF300EDE18D8B4D1
:101D2000F5D718C0D9FF19C0DAFFDF50EBEC17F078
:101D3000D8A036D018C0D9FF19C0DAFFDF50D00FB5
:101D40001D6E184A192A18C0D9FF19C0DAFFDF50D2
:101D5000EBEC17F0D8A024D018C0D9FF19C0DAFFD7
:101D6000DF501C6E1D500A0DF3501C24D00F1D6E49
:101D7000184A192A18C0D9FF19C0DAFFDF50EBEC56
:101D800017F0D8A00DD018C0D9FF19C0DAFFDF5066
:101D90001C6E1D500A0DF3501C24D00F1D6E00D078
:101DA0001EA602D01D6C00D01D501F261A501B10FD
:101DB000D8A41EA209D01AC0D9FF1BC0DAFF18C0D0
:101DC000DEFF19C0DDFF00D020C009F021C00AF0FD
:101DD00022C00BF023C00CF078EC15F009C020F005
:101DE0000AC021F00BC022F0205021102210D8A4EC
:101DF00005D0000E186E000EA6D0C2D01FAE4CD07B
:101E00001F6C17D020C009F021C00AF022C00BF0CF
:101E1000030E0C6E150E0D6E500E0E6E81EC13F04F
:101E200009C020F00AC021F00BC022F0F60E1F26D8
:101E300000D01F50800A760FD8A018D0E3D716D054
:101E400020C009F021C00AF022C00BF0000E0C6E79
:101E5000200E0D6E410E0E6E81EC13F009C020F0C5
:101E60000AC021F00BC022F01F0600D01F50D8A4DA
:101E7000E7D720C001F021C002F022C003F0000E1D
:101E8000046E800E056E000E066EAEEC14F04DD0A2
:101E900077D056D075D05CD01F50800A7F0FD8B055
:101EA00019D056D017D020C009F021C00AF022C0A6
:101EB0000BF0030E0C6E150E0D6E500E0E6E05EC33
:101EC00013F009C020F00AC021F00BC022F0F60E7A
:101ED0001F2600D00A0E1F60E6D716D020C009F0DA
:101EE00021C00AF022C00BF0000E0C6E200E0D6E09
:101EF000410E0E6E05EC13F009C020F00AC021F06F
:101F00000BC022F01F0600D01F50D8A4E7D7FF0E49
:101F1000016E7F0E026E7F0E036E20C004F021C0A2
:101F200005F022C006F0AEEC14F0D8B011D01EA01F
:101F300007D0000E186E800E196E800E06D020D0CD
:101F4000000E186E800E196E000E1A6E19D000D099
:101F50001EA00FD020C001F021C002F022C003F06B
:101F6000D9EC17F001C020F002C021F003C022F02C
:101F700000D020C018F021C019F022C01AF000D003
:101F80001200000E00018B6FC80E00018C6F420E14
:101F900000018D6FA6C088F0A7C089F0A8C08AF0A4
:101FA00085EC10F088C097F089C098F08AC099F04D
:101FB000DCEC11F097C0A9F098C0AAF0A9C080F09D
:101FC000AAC081F0270E0001836F100E826FF9EC1A
:101FD00014F080C0ABF081C0ACF0A9C080F0AAC002
:101FE00081F0270E0001836F100E826FEFEC15F069
:101FF00080C0ADF081C0AEF00001AB510001AC116A
:10200000D8B405D00001AB51300F1EEC18F0ADC0B4
:1020100080F0AEC081F0030E0001836FE80E826F86
:10202000F9EC14F080C0ABF081C0ACF0ADC080F032
:10203000AEC081F0030E0001836FE80E826FEFECFB
:1020400015F080C0ADF081C0AEF00001AB510001D1
:10205000AC11D8B405D00001AB51300F1EEC18F014
:10206000ADC080F0AEC081F0000E0001836F640E41
:10207000826FF9EC14F080C0ABF081C0ACF0ADC061
:1020800080F0AEC081F0000E0001836F640E826F9D
:10209000EFEC15F080C0ADF081C0AEF00001AB51A7
:1020A000300F1EEC18F02E0E1EEC18F0ADC080F0B4
:1020B000AEC081F0000E0001836F0A0E826FF9EC52
:1020C00014F080C0ABF081C0ACF0ADC080F0AEC009
:1020D00081F0000E0001836F0A0E826FEFEC15F0A5
:1020E00080C0ADF081C0AEF00001AB51300F1EECEE
:1020F00018F00001AD51300F1EEC18F00A0E1EEC66
:1021000018F00D0E1EEC18F012008AC08EF00001BF
:102110008F6B906B0001893500018E3701E38F8151
:1021200000018E510001916F00019151D8A402D09D
:1021300014D098D08DC08EF000018F6B906B000191
:102140008C3500018E3701E38F8100018E51000133
:10215000966F00019651D8A40AD0000E0001886F36
:10216000000E0001896F000E00018A6F7BD0000114
:1021700096517B0F000191278AC096F000018D5186
:102180000001961B800E000196170001898F000147
:102190008C8FFF0E00018B17FF0E00018C17000EB5
:1021A00000018D17000E0001926F000E0001936F69
:1021B000000E0001946F070E0001956F00D0000122
:1021C00088A10DD000018B510001922700018C5194
:1021D0000001932300018D510001942300D00001E0
:1021E000D8908A33893388330001D8908B378C3765
:1021F0008D370001952FE3D700D0090E0001956FB0
:1022000000D0000188A10DD000018B510001922760
:1022100000018C510001932300018D510001942392
:1022200000D00001D8908A33893388330001D890D8
:102230009433933392330001952FE3D700D092C0AB
:1022400080F093C081F094C082F091C083F096C07A
:1022500084F075EC12F080C088F081C089F082C0F3
:102260008AF000D01200000E306E00D09EAAFED779
:102270003050010DBC0EF324D96E000EF420DA6E3E
:10228000AECFDFFFAE502DEC18F03050010DBC0E7C
:10229000F324D96E000EF420DA6E080EDE18D8B4DE
:1022A0000CD03050010DBC0EF324D96E000EF4207A
:1022B000DA6E7F0EDE18D8A410D03050D8B402D019
:1022C000300600D03050010DBC0EF324D96E000E44
:1022D000F420DA6E000EDF6E1AD03050010DBC0E05
:1022E000F324D96E000EF420DA6E080EDE18D8B48E
:1022F0000ED03050010DBC0EF324D96E000EF42028
:10230000DA6E0D0EDE18D8B402D0302A00D00D0ED1
:10231000AE18D8A4ABD70A0E2DEC18F00D0E2DEC8C
:1023200018F0BC0E246E000E256E000E276E1E0ED9
:10233000266E28EC0BF00A0E2DEC18F00D0E2DEC8D
:1023400018F05204D8A415D04B50481807E14C504F
:10235000491804E14D504A18D8B408D04BC048F091
:102360004CC049F04DC04AF0030E01D0010E506E32
:1023700021D0050E5218D8A407D04BC045F04CC050
:1023800046F04DC047F016D0070E5218D8A407D01B
:102390004BC042F04CC043F04DC044F00BD0090E8E
:1023A0005218D8A407D04BC03FF04CC040F04DC0ED
:1023B00041F000D09E9A120099C09BF000019C6BE6
:1023C0009D6B0001983500019B3701E39C81000162
:1023D0009B510001A56F0001A551D8A402D051D096
:1023E00083D0170E00019B6F97C09CF098C09DF0A2
:1023F00099C09EF000019B2900019F6F05D000014C
:10240000D8909E339D339C3300019F2FF8D7000155
:102410009C510001A06F0001988FFF0E00019717DB
:10242000FF0E00019817000E000199170001975147
:102430000001A16F000198510001A26F00019951A4
:102440000001A36F0001A46B8E0E0001A55F0001C7
:10245000A5AF13D00001A551800A8F0FD8B003D0CB
:1024600010D042D000D00001D890A433A333A233BF
:10247000A1330001A53FF7D71FD0170E0001A565B6
:1024800014D0000E0001976F000E986F000E996F28
:10249000000E9A6F29D009D00001D890A137A23739
:1024A000A337A4370001A50700D00001A551000102
:1024B000D8B402D0F1D700D00001A0510001D8B4A7
:1024C0000AD00001A41FA31FA21FA16D000EA2230A
:1024D000A323A42300D0A1C097F0A2C098F0A3C06A
:1024E00099F0A4C09AF000D01200000183510001BD
:1024F000D8B408D00001805100018111000182117F
:10250000D8A413D0000E0001806F000E0001816F6F
:10251000000E0001826F78D008D00001832B0001EB
:10252000D89082338133803300D0000E00018015B3
:102530000001856F000E000181150001866FFE0EFF
:10254000000182150001876F00018551000186118D
:1025500000018711D8B413D0E0D711D00001832B2C
:10256000010E00018027000E00018123000E0001F2
:1025700082230001D89082338133803300D0000E53
:10258000000180150001856F000E0001811500011A
:10259000866FFF0E000182150001876F00018551D3
:1025A0000001861100018711D8B40AD0D7D708D00E
:1025B000000183070001D89080378137823700D02F
:1025C000000181BF05D0020E00018361F1D700D068
:1025D000000183B103D00001819F00D00001D89099
:1025E00083330001835100018213000184510001F3
:1025F000D8B403D00001828F00D080C080F081C0A9
:1026000081F082C082F000D012000BC00FF0106A7F
:10261000116A0A340F3601E310800F50126E125007
:10262000D8A402D00ED06CD00EC00FF0106A116A80
:102630000D340F3601E310800F50176E1750D8A4D9
:1026400007D0000E096E000E0A6E000E0B6E58D0F9
:1026500017507B0F12260BC017F00E50171A800E62
:1026600017160A8E0D8EFF0E0C16FF0E0D16000E9D
:102670000E16000E136E000E146E000E156E070E71
:10268000166E00D009A007D00C5013260D5014224E
:102690000E50152200D0D8900B320A320932D89051
:1026A0000C360D360E36162EEDD700D0090E166EEE
:1026B00000D009A007D00C5013260D5014220E5044
:1026C000152200D0D8900B320A320932D890153238
:1026D00014321332162EEDD700D013C001F014C0FF
:1026E00002F015C003F012C004F017C005F0F2ECC0
:1026F00013F001C009F002C00AF003C00BF000D0D3
:1027000012000BC00FF0106A116A0A340F3601E391
:1027100010800F50166E1650D8A402D00ED061D083
:102720000EC00FF0106A116A0D340F3601E31080ED
:102730000F50176E1750D8A407D0000E096E000E68
:102740000A6E000E0B6E4DD0000E136E000E146E4E
:10275000000E156E1750890F165E0BC017F00E5045
:10276000171A800E17160A8EFF0E0916FF0E0A168C
:10277000000E0B160D8EFF0E0C16FF0E0D16000E22
:102780000E16180E126E00D0D89013361436153669
:102790000C50095C0D500A580E500B58D8A007D0A9
:1027A0000C50095E0D500A5A0E500B5A1380D890E7
:1027B00009360A360B36122EE7D700D013C001F0C7
:1027C00014C002F015C003F016C004F017C005F0E5
:1027D000F2EC13F001C009F002C00AF003C00BF0E4
:1027E00000D012000450D8B405D0015002100310DC
:1027F000D8A40ED0000E016E000E026E000E036E05
:1028000053D006D0042AD89003320232013200D0CD
:10281000000E0114066E000E0214076EFE0E031465
:10282000086E065007100810D8B40ED0EBD70CD0A5
:10283000042A010E0126000E0222000E0322D89067
:1028400003320232013200D0000E0114066E000E77
:102850000214076EFF0E0314086E065007100810CE
:10286000D8B408D0E5D706D00406D8900136023691
:10287000033600D002BE04D0020E0460F5D700D0AB
:1028800004B002D0029E00D0D8900432045003124B
:102890000550D8B402D0038E00D001C001F002C0B0
:1028A00002F003C003F000D012000001B105D8A46B
:1028B0002AD0809600D080B2FED7190E13EC18F003
:1028C000000E0001B26F030E0001B26501D00FD0FF
:1028D0000001B251010DDA0EF324D96E000EF4207E
:1028E000DA6E08EC18F0DF6E0001B22BECD753EC77
:1028F00017F080C0A6F081C0A7F082C0A8F0C1EC9C
:102900000FF080862AD0020E0001B119D8A425D07C
:10291000809800D080B4FED7320E13EC18F0000E71
:102920000001B36F020E0001B36501D011D00001A8
:10293000B351010DF3500001AF25D96EF4500001E1
:10294000B021DA6E08EC18F0DF6E0001B32BEAD785
:10295000010E13EC18F0808800D0120003AE17D0DF
:1029600001C007F002C008F003C009F0071E081EEE
:10297000091E072A000E08220922000E0724016EF4
:10298000000E0820026E800E0920036E00D006AEF5
:1029900017D004C007F005C008F006C009F0071EF4
:1029A000081E091E072A000E08220922000E07240D
:1029B000046E000E0820056E800E0920066E00D001
:1029C000000E011A000E021A800E031A000E041ADD
:1029D000000E051A800E061A0450015C05500258BC
:1029E00006500358D8B002D0D89002D0D88000D07A
:1029F0001200000E0001866F000E856F00018251EB
:102A000000018311D8B431D0010E0001846F07D0CA
:102A10000001D890823783370001842B00D0000159
:102A200083BF02D0F5D700D00001D8908537863714
:102A3000000182510001805D000183510001815934
:102A4000D8A00BD0000182510001805F00018351AA
:102A50000001815B0001858100D00001D8908333A3
:102A600082330001842FE0D700D085C080F086C07B
:102A700081F01200000E0001846F000E0001856FCE
:102A8000030E00018519D8B411D001D00FD0000178
:102A90008551010DDA0EF324D96E000EF420DA6EA2
:102AA000DF50000184270001852BEAD70001DD51AA
:102AB0000001806F816B0001801F811F804B812B83
:102AC000000184510001826F836B0001805100017D
:102AD00082270001815100018323000182510001FE
:102AE0008311D8A402D0010E02D0000E00D0120033
:102AF000000E126E8E0E116E0CAE12D00C1E0B1E3E
:102B00000A1E096C000E0A220B220C22010E126E04
:102B100007D0D8900C320B320A320932112A00D079
:102B2000000E09140D6E000E0A140E6E000E0B142A
:102B30000F6EFF0E0C14106E0D500E100F101010B3
:102B4000D8A4E7D709C001F00AC002F00BC003F017
:102B500011C004F012C005F0F2EC13F001C009F04E
:102B600002C00AF003C00BF000D012000600EACF4A
:102B700034F0E1CF35F0E2CF36F0D9CF37F0DACF0D
:102B800038F0F3CF39F0F4CF3AF0F6CF3BF0F7CF8F
:102B90003CF0F8CF3DF0F5CF3EF09EAA03D033ECE9
:102BA00011F000D03EC0F5FF3DC0F8FF3CC0F7FF7C
:102BB0003BC0F6FF3AC0F4FF39C0F3FF38C0DAFF7C
:102BC00037C0D9FF36C0E2FF35C0E1FF34C0EAFFAD
:102BD00033C0E9FF32C0FBFF31C0FAFF1100000132
:102BE000825100018311D8B42BD0010E0001846FF3
:102BF00007D00001D890823783370001842B00D0A2
:102C0000000183BF02D0F5D700D00001825100013E
:102C1000805D0001835100018159D8A009D00001D5
:102C200082510001805F000183510001815B00D06F
:102C30000001D890833382330001842FE6D700D07F
:102C400080C080F081C081F012000001826F3F0ED1
:102C5000C716000EC66E00018251C61200018151D6
:102C6000C71205D0C78C16D0C78CC68813D00001F8
:102C70008051000AD8B4F6D7020AD8B4F5D7010AB1
:102C8000D8B4F3D707D09486928A0DD094860BD00F
:102C9000949609D000018251040AD8B4F4D7010AED
:102CA000D8B4F4D7F5D79488949AC68A120017D06E
:102CB00081C0F6FF82C0F7FF000EF86E0F0EF764BA
:102CC00003D00800F55005D0F6CFE9FFF7CFEAFFB3
:102CD000EF501EEC18F00001814B822B00D081C018
:102CE000F6FF82C0F7FF000EF86E0F0EF76403D0F8
:102CF0000800F55005D0F6CFE9FFF7CFEAFFEF5017
:102D00000009D8A4D5D71200000E096E000E0A6E75
:102D1000000E0B6E000E0C6E00D001A009D0055005
:102D2000092606500A2207500B2208500C2200D018
:102D3000D8900536063607360836D8900432033266
:102D4000023201320150021003100410D8A4E5D75A
:102D500009C001F00AC002F00BC003F00CC004F07F
:102D600012000001846F00018105D8A410D0809664
:102D7000010E13EC18F0C9CF82F09E9684C0C9FFF3
:102D800000D09EA6FED7C9CF84F0808615D0020E53
:102D900000018119D8A410D08098010E13EC18F00E
:102DA000C9CF83F09E9684C0C9FF00D09EA6FED7EF
:102DB000C9CF84F0809600D0120016D002C0F6FF72
:102DC00003C0F7FF000EF86E0F0EF76403D0080083
:102DD000F55005D0F6CFE9FFF7CFEAFFEF502DEC25
:102DE00018F0024A032A00D002C0F6FF03C0F7FF22
:102DF000000EF86E0F0EF76403D00800F55005D0F2
:102E0000F6CFE9FFF7CFEAFFEF500009D8A4D6D7F5
:102E1000120005D0014A022A034A042A00D001C048
:102E2000D9FF02C0DAFFDF50056E03C0F6FF04C011
:102E3000F7FF0800F55000080524066E0650D8A4D8
:102E400009D001C0D9FF02C0DAFFDF50D8B402D0E8
:102E5000E1D700D00650016E026A01BE020600D022
:102E60001200820E4E6E000E4F6E4EC0D9FF4FC044
:102E7000DAFFDF500001DA6F20EE01F04E50D92664
:102E80004F50DA22DF500001DB6F20EE02F04E508F
:102E9000D9264F50DA22DF500001DC6F75EC17F0B5
:102EA0000001DD6F1200830E4E6E000E4F6E4EC09D
:102EB000D9FF4FC0DAFFDAC0DFFF20EE01F04E503D
:102EC000D9264F50DA22DBC0DFFF20EE02F04E5051
:102ED000D9264F50DA22DCC0DFFF83C080F084C0E7
:102EE00081F085C082F000D01200000E0001806FDA
:102EF000000E0001816F030E00018119D8B411D0BA
:102F000001D00FD000018151010DDA0EF324D96EEA
:102F1000000EF420DA6EDF50000180270001812BC3
:102F2000EAD70001805100D0120000EEB5F0290E62
:102F3000EE6AE806FDE100EE3FF0230EEE6AE806D9
:102F4000FDE1680EF66E300EF76E000EF86E0900A9
:102F5000F5CFDEF0000EF86E000132EF08F0036EE0
:102F6000010E026E200E0318D8B40AD00E0E0360B4
:102F700004D0090E036004D000D0000E026E00D011
:102F800002C001F0013000D01200240EAC6E900E91
:102F9000AB6E000EB86E150EAF6ED08E9F8A9D8AF6
:102FA000010E0001816F100E0001826F57EC16F0C8
:102FB0001200015002100310D8B406D0000E011AFE
:102FC000000E021A800E031A01C001F002C002F0C6
:102FD00003C003F01200036E000E026E3A0E03608F
:102FE00006D02F0E036403D0010E026E00D002C083
:102FF00001F0013000D01200000E0001806F000EC1
:103000000001816F000E25EC16F09282929612005C
:10301000C9CF80F09E96000EC96E00D09EA6FED746
:10302000C95000D012000001806F030EE82EFED7B9
:1030300000F00001802FF9D700D012000001806F4E
:1030400080C0ADFF00D09EA8FED71200FCEC17F0A8
:10305000C5EC17F0F28EF28C1200016E01C0ADFFCC
:0A30600000D09EA8FED71200010068
:020000040020DA
:08000000FFFFFFFFFFFFFFFF00
:020000040030CA
:0E000000FF061F1EFF8385FF0FC00FE00F409D
:00000001FF
