:040000000CEF00F011
:10000800FACF0AF0FBCF0BF0E9CF0CF0D2ED11F0EC
:040018006DEF12F086
:101000000058020807000A0E0001A66F000E00013A
:10101000A96F000E0001A86F000EA76F76EC15F007
:10102000C9C0C9FF829C00D00001C705D8A4E9D07F
:10103000000E0001C76FF29E020E4118D8B410D006
:10104000030E4118D8B40CD0040E4118D8B408D0FF
:10105000060E4118D8B404D0080E4118D8A45DD0AB
:10106000020E4118D8A409D0AAC01AF0ABC01BF0D8
:10107000ACC01CF022EC15F034D0030E4118D8A4FB
:1010800009D0ADC01AF0AEC01BF0AFC01CF022EC0E
:1010900015F027D0040E4118D8A409D0B6C01AF014
:1010A000B7C01BF0B8C01CF022EC15F01AD0060E29
:1010B0004118D8A409D0B3C01AF0B4C01BF0B5C011
:1010C0001CF022EC15F00DD0080E4118D8A409D060
:1010D000B0C01AF0B1C01BF0B2C01CF022EC15F089
:1010E00000D0829C000E0001A96F030E0001A965CB
:1010F00001D00FD00001A951010D350EF324D96E96
:10110000000EF420DA6EDF50BEEC15F00001A92BC2
:10111000ECD7CDEC16F0828C6CD04104D8B40CD056
:10112000050E4118D8B408D0070E4118D8B404D021
:10113000090E4118D8A459D0829C000E0001A96F55
:10114000040E0001A919D8B411D001D00FD00001AC
:10115000A951010D350EF324D96E000EF420DA6E7C
:10116000EBEC15F0DF6E0001A92BEAD7828C41046D
:10117000D8A40FD080EC14F018C03CF019C03DF09A
:101180001AC03EF0030E0001C56F000E0001C46FCF
:1011900027D0050E4118D8A409D080EC14F018C04F
:1011A000B6F019C0B7F01AC0B8F01AD0070E41183F
:1011B000D8A409D080EC14F018C0B3F019C0B4F072
:1011C0001AC0B5F00DD0090E4118D8A409D080EC92
:1011D00014F018C0B0F019C0B1F01AC0B2F000D0CD
:1011E000CDEC16F0C6EC10F004D0C9CF99F09E9665
:1011F00000D0F28E9D86829C0001A651ECEC16F088
:1012000000D0828C81EC16F0829C0A0EECEC16F079
:101210000001C405D8A411D0828CF29EDDEC12F03E
:1012200018C088F019C089F040EC0EF0F28E829C54
:101230000001A651ECEC16F000D00001C505D8A4C1
:1012400032D00001C805D8A42ED0828CF29E14ECB6
:1012500013F019C075F01AC076F003EC15F075C0E4
:10126000AAF076C0ABF077C0ACF0AAC084F0ABC0F7
:1012700085F0ACC086F03CC087F03DC088F03EC031
:1012800089F0B1EC0AF0C2C088F0C3C089F07EECEE
:1012900011F0000E0001C86FF28E829C0001A65171
:1012A000ECEC16F053D0030E0001C519D8A430D0D1
:1012B000828CF29EDB0ED76E600ED66E14EC13F0AD
:1012C00019C075F01AC076F003EC15F075C0AAF0DD
:1012D00076C0ABF077C0ACF0AAC084F0ABC085F0AC
:1012E000ACC086F03CC087F03DC088F03EC089F0BD
:1012F000B1EC0AF0C2C088F0C3C089F07EEC11F0F6
:10130000F28ED58E829C0001A651ECEC16F01ED018
:101310000001C805D8A41AD0828CF29E14EC13F0F8
:1013200019C075F01AC076F003EC15F075C0AAF07C
:1013300076C0ABF077C0ACF0F28E000E0001C86F43
:10134000829C0001A651ECEC16F000D00001C6050D
:10135000D8A46AD6828CB6C09AF0B7C09BF0B8C049
:101360009CF0B3C09DF0B4C09EF0B5C09FF0B0C07B
:10137000A0F0B1C0A1F0B2C0A2F03CC0A3F03DC04B
:10138000A4F03EC0A5F0F29EF29AD59E96EC0DF028
:101390009AC0B6F09BC0B7F09CC0B8F09DC0B3F047
:1013A0009EC0B4F09FC0B5F0A0C0B0F0A1C0B1F035
:1013B000A2C0B2F0DB0ED76E600ED66E030E000137
:1013C000C56F000E3C6E700E3D6E420E3E6E000EFE
:1013D0000001A86F000EA76FD58EB180809667D0F0
:1013E00014EC13F019C075F01AC076F003EC15F088
:1013F00075C0AAF076C0ABF077C0ACF0AAC084F09C
:10140000ABC085F0ACC086F03CC087F03DC088F032
:101410003EC089F0B1EC0AF0C2C088F0C3C089F0C8
:101420007EEC11F03CD08086F60EB36E3C0EB26EB0
:10143000A7C01FF0A8C020F0000E226E030E216E80
:1014400000EC16F0CD0E1F24D96E000E2020DA6EAF
:1014500014EC13F019C075F01AC076F003EC15F017
:1014600075C0DEFF76C0DEFF77C0DEFF809600D05D
:10147000A1A2FED7A192010EF66E100EF76E000E1D
:10148000F86E0900F5500001A75D0900F550000154
:10149000A859D8B004D00001A74BA82B00D0F2A4C3
:1014A000C2D7F294DB0ED76E600ED66E00D0010E5E
:1014B000F66E100EF76E000EF86E0900F550000182
:1014C000A75D0900F5500001A859D8A089D7CD0E15
:1014D000256E000E266ED50E276E070E286EF3ECD5
:1014E0000FF0CDEC16F0829C000E0001A86F000EEC
:1014F000A76F030EF66E100EF76E000EF86E090061
:10150000F5500001A71908E10900F5500001A819DC
:10151000D8B412D001D010D0D50E0001A725D96EB5
:10152000070E0001A821DA6EDF50BEEC15F00001B5
:10153000A74BA82BDED7F0D7828CCDEC16F0000E8F
:101540000001C66FF28AF28CF28EA3C03CF0A4C0F8
:101550003DF0A5C03EF0030E0001C56F65D50CEF50
:1015600000F0030E0001C519D8A41FD0000E000121
:10157000B96F000E0001BA6F000E0001BB6F000EC4
:101580000001BF6F000E0001C06F000E0001C16FAF
:10159000000E0001BC6F000E0001BD6F000E0001C7
:1015A000BE6F010E0001C56F00D084C018F085C069
:1015B00019F086C01AF03AEC16F018C020F019C0E5
:1015C00021F01AC022F087C023F088C024F089C01F
:1015D00025F006EC0CF020C0B9F021C0BAF022C012
:1015E000BBF0000E186E340E196E430E1A6EB9C0A1
:1015F0001BF0BAC01CF0BBC01DF022EC12F0D8B03A
:1016000015D0B9C02CF0BAC02DF0BBC02EF0000E22
:101610002F6EB40E306E430E316E1AEC14F02CC0E7
:10162000B9F02DC0BAF02EC0BBF025D0B9C018F06B
:10163000BAC019F0BBC01AF0000E1B6E340E1C6E3F
:10164000C30E1D6E22EC12F0D8B015D0B9C020F038
:10165000BAC021F0BBC022F0000E236EB40E246E7F
:10166000430E256E06EC0CF020C0B9F021C0BAF094
:1016700022C0BBF000D0BFC018F0C0C019F0C1C07C
:101680001AF03AEC16F018C020F019C021F01AC078
:1016900022F0B9C023F0BAC024F0BBC025F006EC9C
:1016A0000CF020C08AF021C08BF022C08CF0BCC0AE
:1016B00020F0BDC021F0BEC022F0B9C023F0BAC0F6
:1016C00024F0BBC025F006EC0CF020C0BCF021C01B
:1016D000BDF022C0BEF0000E186EFA0E196E440E58
:1016E0001A6EBCC01BF0BDC01CF0BEC01DF022ECC9
:1016F00012F0D8B00AD0000E0001BC6FFA0E000143
:10170000BD6F440E0001BE6F00D0BCC069F0BDC00B
:101710006AF0BEC06BF0B3C066F0B4C067F0B5C08D
:1017200068F0E8EC0CF066C08DF067C08EF068C021
:101730008FF0CAC069F0CBC06AF0CCC06BF08DC02E
:1017400066F08EC067F08FC068F0E8EC0CF066C001
:1017500023F067C024F068C025F0B9C069F0BAC0B2
:101760006AF0BBC06BF0B6C066F0B7C067F0B8C037
:1017700068F0E8EC0CF066C020F067C021F068C0AB
:1017800022F006EC0CF020C090F021C091F022C0B5
:1017900092F0B0C069F0B1C06AF0B2C06BF0CAC0DC
:1017A0002FF0CBC030F0CCC031F08AC02CF08BC011
:1017B0002DF08CC02EF073EC0FF02CC066F02DC015
:1017C00067F02EC068F0E8EC0CF066C023F067C04C
:1017D00024F068C025F090C020F091C021F092C0A4
:1017E00022F006EC0CF020C075F021C076F022C08B
:1017F00077F0DAEC0EF075C0C2F076C0C3F0B9C075
:10180000BFF0BAC0C0F0BBC0C1F0120022C026F0C9
:10181000276A286A2134263601E3278026502B6E5A
:1018200025C026F0276A286A2434263601E327805B
:1018300026502A6E2B50D8B40BD02A502B5CD8B02F
:101840000ED02B5000082A24266E180E266407D0CE
:1018500023C020F024C021F025C022F0B8D02A50A7
:10186000D8B40BD02B502A5CD8B00ED02A50000828
:101870002B24266E180E266407D020C020F021C02D
:1018800021F022C022F0A3D0060E296E22AE02D093
:10189000298E00D025BE298C218EFF0E2016FF0E2A
:1018A0002116000E2216248EFF0E2316FF0E24167C
:1018B000000E25162A502B5CD8B01ED0D8902336A7
:1018C000243625362A062B502A18D8B40FD02906DC
:1018D00029C026F0070E2616D8B408D0EFD706D0B8
:1018E000D8902232213220322B2A00D02A502B18B5
:1018F000D8B424D0F5D722D02B502A5CD8B01ED033
:10190000D8902036213622362B062B502A18D8B4F0
:101910000FD0290629C026F0070E2616D8B408D005
:10192000EFD706D0D8902532243223322A2A00D08D
:101930002A502B18D8B402D0F5D700D029AE0CD03D
:10194000FF0E201AFF0E211AFF0E221A010E20266A
:10195000000E2122000E222229AC0DD0FF0E231AE8
:10196000FF0E241AFF0E251A010E2326000E242234
:10197000000E252200D0000E296E20502326215073
:1019800024222250252225AE0FD0FF0E231AFF0E4F
:10199000241AFF0E251A010E2326000E2422000E03
:1019A0002522010E296E00D023C018F024C019F0A2
:1019B00025C01AF02BC01BF029C01CF063EC10F0FE
:1019C00018C020F019C021F01AC022F000D0120077
:1019D00068C06CF000016D6B6E6B00016735000133
:1019E0006C3701E36D8100016C5100016F6F0001E4
:1019F0006F51D8A402D014D098D06BC06CF0000105
:101A00006D6B6E6B00016A3500016C3701E36D810F
:101A100000016C510001746F00017451D8A40AD008
:101A2000000E0001666F000E0001676F000E0001DE
:101A3000686F7BD0000174517B0F00016F2768C075
:101A400074F000016B510001741B800E00017417CB
:101A50000001678F00016A8FFF0E00016917FF0EFA
:101A600000016A17000E00016B17000E0001706F75
:101A7000000E0001716F000E0001726F070E000171
:101A8000736F00D0000166A10DD000016951000103
:101A9000702700016A510001712300016B510001A0
:101AA000722300D00001D890683367336633000199
:101AB000D89069376A376B370001732FE3D700D0AE
:101AC000090E0001736F00D0000166A10DD0000166
:101AD00069510001702700016A5100017123000162
:101AE0006B510001722300D00001D8906833673336
:101AF00066330001D8907233713370330001732F55
:101B0000E3D700D070C018F071C019F072C01AF09D
:101B10006FC01BF074C01CF063EC10F018C066F0CE
:101B200019C067F01AC068F000D01200000E000162
:101B3000B36F000E0001B46F400E0001B56F000ED0
:101B40000001B66F000E0001B76F3F0E0001B86FC5
:101B5000000E0001B06F000E0001B16F000E000119
:101B6000B26FDB0ED76E600ED66E030E0001C56F2E
:101B7000000E3C6E000E3D6E000E3E6EF29EF29C1C
:101B8000D58E00D014EC13F019C075F01AC076F0A1
:101B900003EC15F075C0AAF076C0ABF077C0ACF0DE
:101BA000AAC084F0ABC085F0ACC086F03CC087F022
:101BB0003DC088F03EC089F0B1EC0AF0C2C088F0A8
:101BC000C3C089F07EEC11F000D0F2A4FED7F294ED
:101BD000DB0ED76E600ED66EAAC023F0ABC024F029
:101BE000ACC025F096C020F097C021F098C022F03C
:101BF00006EC0CF020C02CF021C02DF022C02EF0FD
:101C0000000E2F6E000E306E400E316E73EC0FF032
:101C10002CC093F02DC094F02EC095F0AAC096F081
:101C2000ABC097F0ACC098F0000E186E800E196E25
:101C30003F0E1A6E93C01BF094C01CF095C01DF0AF
:101C400022EC12F0D8B01BD0B9C075F0BAC076F053
:101C5000BBC077F0DAEC0EF075C084F076C085F08A
:101C6000D5EC15F0000185BF0AD0000185518AE14D
:101C7000020E0001845DD8A002D084D700D01200EB
:101C800045500001885D00018951800A00018A6F7A
:101C90004650800A00018A59D8B002D0B78E0FD0C2
:101CA00000018851435C4450800A00018A6F0001A2
:101CB0008951800A00018A59D8B005D0B79E000E1C
:101CC0000001C56F2AD000018851435C4450800A4E
:101CD00000018A6F00018951800A00018A59D8A049
:101CE0001CD045500001885D00018951800A000127
:101CF0008A6F4650800A00018A59D8A00ED0000190
:101D0000C551D8A40AD0000E0001896F000E886F5B
:101D1000000EB86EB79AB79800D045500001885DA4
:101D200000018951800A00018A6F4650800A000133
:101D30008A59D8A00ED000018851435C4450800AD3
:101D400000018A6F00018951800A00018A59D8B0C8
:101D500030D088C084F089C085F0D5EC15F084C0FF
:101D600088F085C089F0D8900001883500018C6F1B
:101D70000001893500018D6F8CC08AF08DC08BF019
:101D80000001D8908B338A330001D8908B338A338B
:101D900000018A51B86E8CC08AF0030E00018A17C8
:101DA00000018A3BB75000018A19CF0B8A19B76E20
:101DB00000D0120077C079F000017A6B7B6B0001D4
:101DC00076350001793701E37A810001795100010C
:101DD000836F00018351D8A402D051D083D0170E55
:101DE0000001796F75C07AF076C07BF077C07CF027
:101DF0000001792900017D6F05D00001D8907C3366
:101E00007B337A3300017D2FF8D700017A5100012E
:101E10007E6F0001768FFF0E00017517FF0E000127
:101E20007617000E000177170001755100017F6FD2
:101E3000000176510001806F000177510001816F30
:101E40000001826B8E0E0001835F000183AF13D00F
:101E500000018351800A8F0FD8B003D010D042D038
:101E600000D00001D8908233813380337F3300016A
:101E7000833FF7D71FD0170E0001836514D0000EE3
:101E80000001756F000E766F000E776F000E786F91
:101E900029D009D00001D8907F3780378137823729
:101EA0000001830700D0000183510001D8B402D0A3
:101EB000F1D700D000017E510001D8B40AD0000152
:101EC000821F811F801F7F6D000E8023812382234C
:101ED00000D07FC075F080C076F081C077F082C0FE
:101EE00078F000D012002EC032F0336A346A2D34FC
:101EF000323601E3338032500001646F00016451D7
:101F0000D8A402D010D06ED031C032F0336A346A17
:101F10003034323601E3338032500001656F000106
:101F20006551D8A407D0000E2C6E000E2D6E000E49
:101F30002E6E58D0000E0001616F000E0001626F1E
:101F4000000E0001636F00016551890F0001645F9D
:101F50002EC065F031500001651B800E0001651731
:101F60002D8EFF0E2C16FF0E2D16000E2E16308E07
:101F7000FF0E2F16FF0E3016000E3116180E000140
:101F8000606F00D00001D8906137623763372F50FF
:101F90002C5C30502D5831502E58D8A008D02F50DE
:101FA0002C5E30502D5A31502E5A00016181D8904C
:101FB0002C362D362E360001602FE4D700D061C0BC
:101FC00018F062C019F063C01AF064C01BF065C05D
:101FD0001CF063EC10F018C02CF019C02DF01AC0E2
:101FE0002EF000D01200000E2C6E000E2B6E2D0E67
:101FF0003F6E000E406E000E2C6E000E2B6E080E13
:102000002B1806E1070E2C18D8B45CD001D05AD09A
:10201000000E1B6E030E1A6E2BC018F02CC019F0A8
:1020200042EC13F018C01FF019C020F0000E226E11
:10203000030E216E00EC16F01F502524D96E20509F
:102040002620DA6EDECF2DF0DECF2EF0DDCF2FF0A2
:102050003FC0D9FF40C0DAFF2B502724E16E2C503F
:102060002820E26EDFCFE7FF20EE01F03F50D926B7
:102070004050DA22010E2B24296E000E2C202A6EED
:1020800029502724E16E2A502820E26EDFCFE7FF97
:1020900020EE02F03F50D9264050DA22020E2B24C7
:1020A000296E000E2C202A6E29502724E16E2A501A
:1020B0002820E26EDFCFE7FF030E2B26000E2C2236
:1020C0009ED7A6D712001B50D8B405D018501910AF
:1020D0001A10D8A40ED0000E186E000E196E000E45
:1020E0001A6E53D006D01B2AD8901A3219321832E1
:1020F00000D0000E18141D6E000E19141E6EFE0E78
:102100001A141F6E1D501E101F10D8B40ED0EBD71E
:102110000CD01B2A010E1826000E1922000E1A22BE
:10212000D8901A321932183200D0000E18141D6ED1
:10213000000E19141E6EFF0E1A141F6E1D501E1075
:102140001F10D8B408D0E5D706D01B06D890183693
:1021500019361A3600D019BE04D0020E1B60F5D70E
:1021600000D01BB002D0199E00D0D8901B321B505B
:102170001A121C50D8B402D01A8E00D018C018F011
:1021800019C019F01AC01AF000D012003CC01CF09F
:102190003DC01DF03EC01EF0000EC6EC13F0B6C0F0
:1021A0001CF0B7C01DF0B8C01EF0030EC6EC13F053
:1021B000B3C01CF0B4C01DF0B5C01EF0060EC6ECD6
:1021C00013F0B0C01CF0B1C01DF0B2C01EF0090E7B
:1021D000C6EC13F080CF1CF00C0E70EC16F081CF23
:1021E0001CF00D0E70EC16F082CF1CF00E0E70EC91
:1021F00016F083CF1CF00F0E70EC16F084CF1CF09D
:10220000100E70EC16F085CF1CF0110E70EC16F06D
:1022100086CF1CF0120E70EC16F087CF1CF0130E58
:1022200070EC16F088CF1CF0140E70EC16F0C5C0E0
:102230001CF0150E70EC16F0010E1C6E160E70ECF4
:1022400016F012003CC005F03DC006F03EC007F09D
:10225000000EF0EC13F0B6C005F0B7C006F0B8C041
:1022600007F0030EF0EC13F0B3C005F0B4C006F0B5
:10227000B5C007F0060EF0EC13F0B0C005F0B1C029
:1022800006F0B2C007F0090EF0EC13F080CF05F0B5
:102290000C0E92EC16F081CF05F00D0E92EC16F0BC
:1022A00082CF05F00E0E92EC16F083CF05F00F0EE4
:1022B00092EC16F084CF05F0100E92EC16F085CF5C
:1022C00005F0110E92EC16F086CF05F0120E92EC8E
:1022D00016F087CF05F0130E92EC16F088CF05F0BC
:1022E000140E92EC16F0C5C005F0150E92EC16F027
:1022F000010E056E160E92EC16F01200000189BF59
:1023000009D000018905D8A005D0000E0001896F11
:10231000886910D0000189AF0DD000018805FF0E3B
:1023200000018959D8B006D0FF0E0001896F010E57
:10233000886F00D0000189AF02D0B78E0CD00001A9
:1023400089BF09D00001895104E100018805D8A0A6
:1023500002D0B79E00D088C084F089C085F0D5EC4B
:1023600015F084C088F085C089F088C08AF089C0E3
:102370008BF000018B358B338A3300018B358B3327
:102380008A3300018A51B86E88C08AF0030E0001BA
:102390008A1700018A3BB75000018A19CF0B8A19AE
:1023A000B76E12000600EACF0DF0E1CF0EF0E2CFDB
:1023B0000FF0D9CF10F0DACF11F0F3CF12F0F4CF45
:1023C00013F0F6CF14F0F7CF15F0F8CF16F0F5CFE5
:1023D00017F0828C9EA603D027EC16F000D0F2A452
:1023E00003D0F5EC16F000D0F2A203D05EEC16F0AC
:1023F00000D0A1A406D080988096809422EC11F0A1
:1024000000D0A1AE02D0FF0000D017C0F5FF16C06B
:10241000F8FF15C0F7FF14C0F6FF13C0F4FF12C099
:10242000F3FF11C0DAFF10C0D9FF0FC0E2FF0EC0EA
:10243000E1FF0DC0EAFF0CC0E9FF0BC0FBFF0AC0C3
:10244000FAFF11001AAE17D018C01EF019C01FF005
:102450001AC020F01E1E1F1E201E1E2A000E1F2244
:102460002022000E1E24186E000E1F20196E800EF2
:1024700020201A6E00D01DAE17D01BC01EF01CC04D
:102480001FF01DC020F01E1E1F1E201E1E2A000E43
:102490001F222022000E1E241B6E000E1F201C6E09
:1024A000800E20201D6E00D0000E181A000E191A82
:1024B000800E1A1A000E1B1A000E1C1A800E1D1A0E
:1024C0001B50185C1C5019581D501A58D8B002D017
:1024D000D89002D0D88000D0120000EECDF01EEED1
:1024E00010F0EE6AE550E150FCE1E250FAE100EE56
:1024F000AAF0200EEE6AE806FDE100EE35F00E0EC1
:10250000EE6AE806FDE13B0EF66E2E0EF76E000E4B
:10251000F86E0900F5CFCAF00900F5CFCBF009003D
:10252000F5CFCCF0360EF66E2E0EF76E000EF86E6E
:1025300000EE43F010EE05F00900F5CFEEFFE55098
:10254000E150FAE1000103EF08F0160EA3EC16F0DB
:102550000009D8B431D0000E70EC13F01EC03CF06E
:102560001FC03DF020C03EF0030E70EC13F01EC003
:10257000B6F01FC0B7F020C0B8F0060E70EC13F034
:102580001EC0B3F01FC0B4F020C0B5F0090E70EC4F
:1025900013F01EC0B0F01FC0B1F020C0B2F0150E95
:1025A000A3EC16F00001C56F0001C505D8A404D046
:1025B000030E0001C56F00D01200C28200D0C2B26B
:1025C000FED7C4CF1DF01E6A1D501E6E1D6A1D5021
:1025D000C3101D6E1E501E6E000E1D241B6EFE0EBF
:1025E0001E201C6E1B50435C4450800A1A6E1C5007
:1025F000800A1A58D8A00AD045501B5C1C50800A8B
:102600001A6E4650800A1A58D8B008D0000E000141
:10261000C56F1BC018F01CC019F005D0000E196E54
:10262000000E186E00D01200F29E84828490000E7C
:10263000226E03D005D000F0222A070E2264FBD7B9
:1026400084848494010EECEC16F087CF1EF083CFC7
:102650001FF0848484801FC020F0216A1EC01BF0FC
:102660000F0E1B161B501D6E1C6A20501C10206E76
:1026700021501D10216EF28E20C019F021C01AF0D9
:1026800000D01200000E1D6E000E1C6E1A501B10A2
:10269000D8B421D0010E1E6E05D0D8901A361B3644
:1026A0001E2A00D01BBE02D0F8D700D0D8901C360E
:1026B0001D361A50185C1B501958D8A006D01A5055
:1026C000185E1B50195A1C8000D0D8901B321A3249
:1026D0001E2EECD700D01CC018F01DC019F012003F
:1026E000216EF2503F0BF26E000E226E020E22643B
:1026F00001D014D02250010D390EF324D96E000EF2
:10270000F420DA6E21502224186E196A1936C0ECB2
:1027100016F0DF6E13EC17F0222AE8D7F250C0094A
:10272000F26E5EEC14F018C01EF019C01FF01AC053
:1027300020F000D012001A6E3F0EC716000EC66EB3
:102740001A50C6121950C71205D0C78C13D0C78CA7
:10275000C68810D01850000AD8B4F7D7020AD8B4E7
:10276000F6D7010AD8B4F4D705D0978E94860AD04C
:10277000949608D01A50040AD8B4F7D7010AD8B4EE
:10278000F5D7F6D79488949AC68A12001F6E1CC09B
:1027900018F01DC019F01EC01AF040EC15F0F250F0
:1027A0003F0BF26E000E206E020E206401D014D09A
:1027B0001FC018F0196A2050010D390EF324D96E8C
:1027C000000EF420DA6EDF501A6EC3EC14F01F2AEC
:1027D00013EC17F0202AE8D7F250C009F26E12006D
:1027E000086E05C001F006C002F007C003F05BEC04
:1027F00015F0F2503F0BF26E000E096E020E0964E6
:1028000001D014D008C001F0026A0950010D390E40
:10281000F324D96E000EF420DA6EDF50036EE3EC81
:1028200014F0082A17EC17F0092AE8D7F250C0096B
:10283000F26E12002F5030103110D8B407D0000EB5
:102840002F1A000E301A800E311A00D02CC020F042
:102850002DC021F02EC022F02FC023F030C024F074
:1028600031C025F006EC0CF020C02CF021C02DF07A
:1028700022C02EF000D01200000E0001B96F000E31
:102880000001BA6F000E0001BB6F000E0001BF6FA8
:10289000000E0001C06F000E0001C16F000E0001AC
:1028A000BC6F000E0001BD6F000E0001BE6F040E74
:1028B000D56EDB0ED76E600ED66E12001B0E3F6E0D
:1028C000000E406E3FC0D9FF40C0DAFF39C0DFFFC5
:1028D00020EE01F03F50D9264050DA223AC0DFFF07
:1028E00020EE02F03F50D9264050DA223BC0DFFFF5
:1028F0001BC018F01CC019F01DC01AF000D0120047
:102900001B0E3F6E000E406E3FC0D9FF40C0DAFF85
:1029100035C0DFFF20EE01F03F50D9264050DA22CB
:1029200036C0DFFF20EE02F03F50D9264050DA22B9
:1029300037C0DFFF1BC018F01CC019F01DC01AF013
:1029400000D012004150D8B41BD00B0E416018D0FB
:10295000000E186E000E196E030E1918D8B40ED0A2
:1029600001D00CD01950010D350EF324D96E000E94
:10297000F420DA6EDF501826192AEED7185002D04C
:10298000FF0E00D01200000E1B6E1950030BAA6E32
:1029900018C0A9FF1AC0A8FFA69EA69CA684000E78
:1029A000F2BE010E1B6EF29E550EA76EAA0EA76E0A
:1029B000A68200D0A6B2FED71BB002D0F29E01D0F4
:1029C000F28EA6941200000E046E0250030BAA6E43
:1029D00001C0A9FF03C0A8FFA69EA69CA684000E66
:1029E000F2BE010E046EF29E550EA76EAA0EA76EE1
:1029F000A68200D0A6B2FED704B002D0F29E01D0CB
:102A0000F28EA694120075C020F076C021F014EC6E
:102A100016F020C066F021C067F022C068F0000EFA
:102A20000001696FB40E00016A6F3D0E00016B6F0B
:102A3000E8EC0CF066C075F067C076F068C077F01F
:102A400000D012001A0E3F6E000E406E3FC0D9FF3C
:102A500040C0DAFFDF50356E20EE01F03F50D9263E
:102A60004050DA22DF50366E20EE02F03F50D92679
:102A70004050DA22DF50376EA2EC14F0386E1200AC
:102A8000180E3F6E000E406E3FC0D9FF40C0DAFF07
:102A9000DF50396E20EE01F03F50D9264050DA2247
:102AA000DF503A6E20EE02F03F50D9264050DA2235
:102AB000DF503B6E1200010E3F6E000E406E3FC0B5
:102AC000D9FF40C0DAFFDF50396E20EE01F03F50F1
:102AD000D9264050DA22DF503A6E20EE02F03F5005
:102AE000D9264050DA22DF503B6E120000D0D3A628
:102AF000FED7828C8FEC15F0B3EC16F0A7EC15F036
:102B00004CEC16F03CEC14F096EC0DF0D9EC16F011
:102B10000FEC17F004EC17F092968086120095687F
:102B200099689690969296949A90968A968C968E9C
:102B300088900A0EECEC16F08880140EE3EC16F088
:102B40008490010EFEEC16F084808494120092941E
:102B5000938281A203D08084010E04D081B205D07B
:102B60008094000E0001C46F00D0C280C250010BDF
:102B7000C26E0D0EC16EB40EC06E12001D6E1DC071
:102B8000C9FF9E96C9CF1CF09E90CD8047C0CFFF55
:102B900042C0CEFF05D09EA003D0CDEC16F000D0F1
:102BA0009EA6F9D7C69C9E961200000185AF0ED056
:102BB00084C086F085C087F00001861F871F864B82
:102BC000872B86C084F087C085F004D084C084F051
:102BD00085C085F01200000EC96E9E90CD8047C062
:102BE000CFFF42C0CEFF05D09EA003D0CDEC16F0A3
:102BF00000D09EA6F9D79E96C69CC95000D0120060
:102C00001F502102F3CF23F0F4CF24F01F502202F3
:102C1000F350242620502102F350242623C01FF015
:102C200024C020F000D0120020C018F021C019F0FC
:102C30001A6A8E0E1B6E000E1C6E63EC10F018C02C
:102C400020F019C021F01AC022F000D01200828CAE
:102C5000F29EC9CF41F09E969D960A0E4118D8A4C7
:102C600004D0010E0001C66F04D0010E0001C76F31
:102C700000D01200185019101A10D8B406D0000E47
:102C8000181A000E191A800E1A1A18C018F019C056
:102C900019F01AC01AF01200989096989696989685
:102CA00093809298000EB86EB798B79A4C0EB76E94
:102CB000CB68000EB16E040ECA6E12000AEC17F05B
:102CC0008096D58EF29E808800D0000ED76E000EC2
:102CD000D66E00D0F2A4FED7F2948050F6D7120040
:102CE0001D6EF2503F0BF26E1DC018F0196A1CC029
:102CF0001AF0C3EC14F013EC17F0F250C009F26EA6
:102D0000120081B203D08094000E08D081A209D0B5
:102D10000001C451D8A405D08084010E0001C46F05
:102D200000D01200066EF2503F0BF26E06C001F0AA
:102D3000026A05C003F0E3EC14F017EC17F0F25050
:102D4000C009F26E12001A6EF2503F0BF26E1AC0FA
:102D500018F0196AC0EC16F01B6EF250C009F26E42
:102D60001B5000D012009488949A978E949C000E69
:102D7000186E000E196E040E9BEC13F09D86120067
:102D80001950030BAA6E18C0A9FFA69CA69EA68088
:102D900000F000F0A85000D012009E86C9CF1BF0B2
:102DA000C69A000E186E000E196E040E9BEC13F0FE
:102DB0001200A69EA69CA684A5EC12F03D0ED26E33
:102DC000A084A2841200186EFA0E00F0E82EFDD73F
:102DD000182EFAD700D01200186E030EE82EFED778
:102DE00000F0182EFAD700D01200DB0ED76E600E5E
:102DF000D66E010E0001C86FF2941200186E00F03A
:102E0000182EFDD700D01200F28EF28CF28AD58EE9
:102E1000A08E12008088B750F00BB76E1200300EF3
:102E2000B112B192120000D0A6B2FED7120000D0AB
:0E2E3000A6B2FED71200C80038FFC0C3F53CA2
:020000040020DA
:08000000FFFFFFFFFFFFFFFF00
:020000040030CA
:0E000000FF061F1EF38385FFFFC0FFE0FF40D9
:00000001FF
