:040000000CEF00F011
:10000800FACF0AF0FBCF0BF0E9CF0CF00BED08F0BC
:100018001EEF09F0000E0001916F5CEC0BF0829C62
:10002800B1C0C9FF00D00001AF05D8A4F0D0000EC0
:100038000001AF6F020E0001AC19D8B414D0030E42
:100048000001AC19D8B40FD0040E0001AC19D8B413
:100058000AD0060E0001AC19D8B405D0080E00016C
:10006800AC19D8A463D0020E0001AC19D8A409D0E9
:1000780092C01AF093C01BF094C01CF0A9EC0AF0CF
:1000880038D0030E0001AC19D8A409D095C01AF0D5
:1000980096C01BF097C01CF0A9EC0AF02AD0040EF9
:1000A8000001AC19D8A409D09EC01AF09FC01BF05B
:1000B800A0C01CF0A9EC0AF01CD0060E0001AC1977
:1000C800D8A409D09BC01AF09CC01BF09DC01CF09E
:1000D800A9EC0AF00ED0080E0001AC19D8A409D07A
:1000E80098C01AF099C01BF09AC01CF0A9EC0AF04D
:1000F80000D0F29E829C000E0001916F0FD012D0AA
:1001080000019151010D380EF324D96E000EF42030
:10011800DA6EDF5006EC0CF00001912B030E0001A3
:100128009165EED7C9CF90F0F28E6FD00001AC0583
:10013800D8B40FD0050E0001AC19D8B40AD0070EF8
:100148000001AC19D8B405D0090E0001AC19D8A427
:100158005CD0F29E829C000E0001916F040E00019B
:100168009119D8B411D001D00FD000019151010DCF
:10017800380EF324D96E000EF420DA6E2EEC0CF053
:10018800DF6E0001912BEAD7F28E0001AC05D8A4EE
:100198000FD067EC0AF018C03FF019C040F01AC041
:1001A80041F0030E0001AE6F000E0001AD6F2AD0C2
:1001B800050E0001AC19D8A409D067EC0AF018C0E4
:1001C8009EF019C09FF01AC0A0F01CD0070E0001C5
:1001D800AC19D8A409D067EC0AF018C09BF019C074
:1001E8009CF01AC09DF00ED0090E0001AC19D8A4DD
:1001F80009D067EC0AF018C098F019C099F01AC035
:100208009AF000D0C9CF90F000D09D8600D0BAEC0B
:100218000BF00001AD05D8A409D0E7EC08F018C030
:1002280085F019C086F030EC04F000D00001AE056E
:10023800D8A42DD00001B005D8A429D0828CF29E74
:100248004CEC09F019C066F01AC067F0C7EC0AF068
:1002580066C092F067C093F068C094F092C081F0D5
:1002680093C082F094C083F03FC084F040C085F012
:1002780041C086F096EC01F0AAC085F0ABC086F0CC
:10028800B7EC07F0000E0001B06FF28E2FD0030E0E
:100298000001AE19D8A42CD0828CF29EDB0ED76E4A
:1002A800600ED66E4CEC09F019C066F01AC067F003
:1002B800C7EC0AF066C092F067C093F068C094F08B
:1002C80092C081F093C082F094C083F03FC084F064
:1002D80040C085F041C086F096EC01F0AAC085F0D8
:1002E800ABC086F0B7EC07F0F28ED58E829C9BD619
:1002F8000001B005D8A497D6F29E4CEC09F019C0BD
:1003080066F01AC067F0C7EC0AF066C092F067C0E2
:1003180093F068C094F0F28E000E0001B06F83D69F
:100328000CEF00F0030E0001AE19D8A41FD0000E88
:100338000001A16F000E0001A26F000E0001A36F63
:10034800000E0001A76F000E0001A86F000E00014B
:10035800A96F000E0001A46F000E0001A56F000E2A
:100368000001A66F010E0001AE6F00D081C018F029
:1003780082C019F083C01AF084EC0BF018C066F044
:1003880019C067F01AC068F084C069F085C06AF0C7
:1003980086C06BF0F1EC02F066C0A1F067C0A2F075
:1003A80068C0A3F0000E186E340E196E430E1A6E54
:1003B800A1C01BF0A2C01CF0A3C01DF05CEC08F0AB
:1003C800D8B018D0A1C072F0A2C073F0A3C074F066
:1003D800000E0001756FB40E0001766F430E000128
:1003E800776FFAEC09F072C0A1F073C0A2F074C084
:1003F800A3F028D0A1C018F0A2C019F0A3C01AF029
:10040800000E1B6E340E1C6EC30E1D6E5CEC08F0E5
:10041800D8B018D0A1C066F0A2C067F0A3C068F039
:10042800000E0001696FB40E00016A6F430E0001EF
:100438006B6FF1EC02F066C0A1F067C0A2F068C073
:10044800A3F000D0A7C018F0A8C019F0A9C01AF0EE
:1004580084EC0BF018C066F019C067F01AC068F099
:10046800A1C069F0A2C06AF0A3C06BF0F1EC02F081
:1004780066C087F067C088F068C089F0A4C066F0DD
:10048800A5C067F0A6C068F0A1C069F0A2C06AF074
:10049800A3C06BF0F1EC02F066C0A4F067C0A5F051
:1004A80068C0A6F0000E186EFA0E196E440E1A6E89
:1004B800A4C01BF0A5C01CF0A6C01DF05CEC08F0A1
:1004C800D8B00AD0000E0001A46FFA0E0001A56F83
:1004D800440E0001A66F00D0A4C032F0A5C033F0CE
:1004E800A6C034F09BC02FF09CC030F09DC031F006
:1004F800F5EC05F02FC08AF030C08BF031C08CF0DD
:10050800B2C032F0B3C033F0B4C034F08AC02FF0B8
:100518008BC030F08CC031F0F5EC05F02FC069F0DD
:1005280030C06AF031C06BF0A1C032F0A2C033F025
:10053800A3C034F09EC02FF09FC030F0A0C031F0AF
:10054800F5EC05F02FC066F030C067F031C068F0F8
:10055800F1EC02F066C08DF067C08EF068C08FF0D5
:1005680098C032F099C033F09AC034F0B2C023F08A
:10057800B3C024F0B4C025F087C020F088C021F0B3
:1005880089C022F087EC06F020C02FF021C030F09F
:1005980022C031F0F5EC05F02FC069F030C06AF0E8
:1005A80031C06BF08DC066F08EC067F08FC068F008
:1005B800F1EC02F066C072F067C073F068C074F0C6
:1005C800CAEC04F072C0AAF073C0ABF0A1C0A7F0E7
:1005D800A2C0A8F0A3C0A9F0120068C06CF0000186
:1005E8006D6B6E6B0001673500016C3701E36D813F
:1005F80000016C510001716F6BC06CF000016D6BF4
:100608006E6B00016A3500016C3701E36D810001F2
:100618006C510001706F000171510001D8B411D004
:10062800000170510001715DD8B012D00001715104
:1006380000080001702500016C6F180E00016C6540
:1006480007D069C066F06AC067F06BC068F003D174
:10065800000170510001D8B411D00001715100019E
:10066800705DD8B012D000017051000800017125EA
:1006780000016C6F180E00016C6507D066C066F04B
:1006880067C067F068C068F0E6D0060E00016F6FBB
:10069800000168AF03D000016F8F00D000016BAF7D
:1006A80002D000016F8D0001678FFF0E00016617F1
:1006B800FF0E00016717000E0001681700016A8F1E
:1006C800FF0E00016917FF0E00016A17000E0001F6
:1006D8006B17000170510001715DD8B028D000017E
:1006E800D89069376A376B3700017007000171517C
:1006F80000017019D8B413D000016F076FC06CF0F7
:10070800070E00016C17D8B40AD0E9D708D0000149
:10071800D8906833673366330001712B00D000012D
:10072800705100017119D8B430D0F1D72ED0000122
:1007380071510001705DD8B028D00001D89066379B
:10074800673768370001710700017151000170199E
:10075800D8B413D000016F076FC06CF0070E00010A
:100768006C17D8B40AD0E9D708D00001D8906B33F9
:100778006A3369330001702B00D000017051000109
:100788007119D8B402D0F1D700D000016FAF12D0E0
:10079800FF0E0001661BFF0E0001671BFF0E000124
:1007A800681B010E00016627000E00016723000E7A
:1007B8000001682300016FAD13D0FF0E0001691B13
:1007C800FF0E00016A1BFF0E00016B1B010E0001EA
:1007D8006927000E00016A23000E00016B2300D078
:1007E800000E00016F6F00016651000169270001CA
:1007F800675100016A230001685100016B23000161
:100808006BAF16D0FF0E0001691BFF0E00016A1BBB
:10081800FF0E00016B1B010E00016927000E00018D
:100828006A23000E00016B23010E00016F6F00D0D8
:1008380069C018F06AC019F06BC01AF071C01BF0DB
:100848006FC01CF0F8EC06F018C066F019C067F02D
:100858001AC068F000D0120046500001855D000102
:100868008651800A0001876F4750800A0001875926
:10087800D8B002D0B78E0FD000018551445C4550E6
:10088800800A0001876F00018651800A000187599C
:10089800D8B005D0B79E000E0001AE6F2AD0000177
:1008A8008551445C4550800A0001876F00018651DC
:1008B800800A00018759D8A01CD046500001855DE8
:1008C80000018651800A0001876F4750800A0001A5
:1008D8008759D8A00ED00001AE51D8A40AD0000E76
:1008E8000001866F000E856F000EB86EB79AB79834
:1008F80000D046500001855D00018651800A000144
:10090800876F4750800A00018759D8A00ED0000190
:100918008551445C4550800A0001876F000186516B
:10092800800A00018759D8B030D085C081F086C0D0
:1009380082F046EC0BF081C085F082C086F0D8903A
:10094800000185350001896F0001863500018A6F35
:1009580089C087F08AC088F00001D890883387332F
:100968000001D8908833873300018751B86E89C059
:1009780087F0030E000187170001873BB75000017D
:100988008719CF0B8719B76E00D0120074C076F0A4
:100998000001776B786B000173350001763701E34E
:1009A8007781000176510001806F00018051D8A441
:1009B80002D051D083D0170E0001766F72C077F045
:1009C80073C078F074C079F00001762900017A6F5D
:1009D80005D00001D89079337833773300017A2F26
:1009E800F8D70001775100017B6F0001738FFF0E6C
:1009F80000017217FF0E00017317000E0001741733
:100A08000001725100017C6F0001735100017D6F7C
:100A18000001745100017E6F00017F6B8E0E000192
:100A2800805F000180AF13D000018051800A8F0FD2
:100A3800D8B003D010D042D000D00001D8907F3376
:100A48007E337D337C330001803FF7D71FD0170EEC
:100A58000001806514D0000E0001726F000E736FE4
:100A6800000E746F000E756F29D009D00001D89060
:100A78007C377D377E377F370001800700D0000143
:100A880080510001D8B402D0F1D700D000017B51C9
:100A98000001D8B40AD000017F1F7E1F7D1F7C6D26
:100AA800000E7D237E237F2300D07CC072F07DC0A2
:100AB80073F07EC074F07FC075F000D01200000E95
:100AC8000001926F000E0001936F400E0001946FB9
:100AD800000E00019B6F800E00019C6F3F0E00010D
:100AE8009D6F000E00019E6F000E00019F6F400E6B
:100AF8000001A06FCD0E0001986F4C0E0001996F98
:100B08003D0E00019A6FDB0ED76E600ED66ED58E45
:100B1800030E0001AE6F000E3F6E000E406E000E19
:100B2800416E00D04CEC09F019C066F01AC067F0AD
:100B3800C7EC0AF066C092F067C093F068C094F002
:100B480092C081F093C082F094C083F03FC084F0DB
:100B580040C085F041C086F096EC01F0AAC085F04F
:100B6800ABC086F0B7EC07F000D0F2A4FED7F29441
:100B7800DB0ED76E600ED66EA1C072F0A2C073F005
:100B8800A3C074F0CAEC04F072C081F073C082F0A4
:100B980046EC0BF0000182BF08D000018251C2E18F
:100BA800020E0001815DD8B0BDD7000E00019B6F19
:100BB800000E00019C6F000E00019D6F000E0001E9
:100BC8009E6F000E00019F6F000E0001A06F000EC7
:100BD8000001986F000E0001996F000E00019A6FD6
:100BE800120031C035F0366A376A3034353601E3E1
:100BF800368035500001606F00016051D8A402D0E2
:100C080010D080D034C035F0366A376A3334353680
:100C180001E3368035500001656F00016551D8A4A5
:100C280007D0000E2F6E000E306E000E316E6AD0A7
:100C3800000165517B0F0001602731C065F0345019
:100C48000001651B800E00016517308E338EFF0E84
:100C58003216FF0E3316000E3416000E0001616FB7
:100C6800000E0001626F000E0001636F070E0001A5
:100C7800646F00D02FA00AD0325000016127335092
:100C88000001622334500001632300D0D890313230
:100C980030322F32D8903236333634360001642F52
:100CA800E9D700D0090E0001646F00D02FA00AD048
:100CB8003250000161273350000162233450000193
:100CC800632300D0D890313230322F320001D890CF
:100CD8006333623361330001642FE8D700D061C009
:100CE80018F062C019F063C01AF060C01BF065C04C
:100CF8001CF0F8EC06F018C02FF019C030F01AC03C
:100D080031F000D0120022C026F0276A286A213468
:100D1800263601E3278026502D6E2D50D8A402D008
:100D28000ED061D025C026F0276A286A24342636DA
:100D380001E3278026502E6E2E50D8A407D0000E2F
:100D4800206E000E216E000E226E4DD0000E2A6E0F
:100D5800000E2B6E000E2C6E2E50890F2D5E22C0B9
:100D68002EF025502E1A800E2E16218EFF0E2016DC
:100D7800FF0E2116000E2216248EFF0E2316FF0EDC
:100D88002416000E2516180E296E00D0D8902A3683
:100D98002B362C362350205C2450215825502258BD
:100DA800D8A007D02350205E2450215A2550225A1B
:100DB8002A80D890203621362236292EE7D700D02F
:100DC8002AC018F02BC019F02CC01AF02DC01BF047
:100DD8002EC01CF0F8EC06F018C020F019C021F065
:100DE8001AC022F000D012001B50D8B405D01850F9
:100DF80019101A10D8A40ED0000E186E000E196E15
:100E0800000E1A6E53D006D01B2AD8901A32193207
:100E1800183200D0000E18141D6E000E19141E6E24
:100E2800FE0E1A141F6E1D501E101F10D8B40ED0BF
:100E3800EBD70CD01B2A010E1826000E1922000E23
:100E48001A22D8901A321932183200D0000E18140B
:100E58001D6E000E19141E6EFF0E1A141F6E1D5003
:100E68001E101F10D8B408D0E5D706D01B06D8909E
:100E7800183619361A3600D019BE04D0020E1B6077
:100E8800F5D700D01BB002D0199E00D0D8901B32E5
:100E98001B501A121C50D8B402D01A8E00D018C099
:100EA80018F019C019F01AC01AF000D012003FC08B
:100EB80005F040C006F041C007F0000ED0EC09F084
:100EC8009EC005F09FC006F0A0C007F0030ED0EC4E
:100ED80009F09BC005F09CC006F09DC007F0060E07
:100EE800D0EC09F098C005F099C006F09AC007F058
:100EF800090ED0EC09F080CF05F00C0ECBEC0BF00E
:100F080081CF05F00D0ECBEC0BF082CF05F00E0E65
:100F1800CBEC0BF083CF05F00F0ECBEC0BF084CFAE
:100F280005F0100ECBEC0BF085CF05F0110ECBECD5
:100F38000BF086CF05F0120ECBEC0BF087CF05F047
:100F4800130ECBEC0BF088CF05F0140ECBEC0BF0A6
:100F5800AEC005F0150ECBEC0BF0010E056E160EAB
:100F6800CBEC0BF01200000186BF09D0000186050A
:100F7800D8A005D0000E0001866F856910D0000149
:100F880086AF0DD000018505FF0E00018659D8B047
:100F980006D0FF0E0001866F010E856F00D000019C
:100FA80086AF02D0B78E0CD0000186BF09D00001F1
:100FB800865104E100018505D8A002D0B79E00D073
:100FC80085C081F086C082F046EC0BF081C085F0C8
:100FD80082C086F085C087F086C088F00001883519
:100FE8008833873300018835883387330001875178
:100FF800B86E85C087F0030E000187170001873B94
:10100800B75000018719CF0B8719B76E1200060079
:10101800EACF0DF0E1CF0EF0E2CF0FF0D9CF10F00C
:10102800DACF11F0F3CF12F0F4CF13F0F6CF14F0BB
:10103800F7CF15F0F8CF16F0F5CF17F0828C9EA6F3
:1010480003D040EC0CF000D0F2A404D037EC0CF044
:10105800829C00D0F2A203D0A8EC0BF000D0A1A48F
:1010680006D08098809680945BEC07F000D0A1AE03
:1010780002D0FF0000D017C0F5FF16C0F8FF15C05A
:10108800F7FF14C0F6FF13C0F4FF12C0F3FF11C03E
:10109800DAFF10C0D9FF0FC0E2FF0EC0E1FF0DC09C
:1010A800EAFF0CC0E9FF0BC0FBFF0AC0FAFF110002
:1010B8001AAE17D018C01EF019C01FF01AC020F0C1
:1010C8001E1E1F1E201E1E2A000E1F222022000E7A
:1010D8001E24186E000E1F20196E800E20201A6E16
:1010E80000D01DAE17D01BC01EF01CC01FF01DC0C5
:1010F80020F01E1E1F1E201E1E2A000E1F22202248
:10110800000E1E241B6E000E1F201C6E800E202059
:101118001D6E00D0000E181A000E191A800E1A1A29
:10112800000E1B1A000E1C1A800E1D1A1B50185C8C
:101138001C5019581D501A58D8B002D0D89002D057
:10114800D88000D01200160EDCEC0BF00009D8B4E1
:1011580039D0000EA5EC09F01EC03FF01FC040F0CA
:1011680020C041F0030EA5EC09F01EC09EF01FC080
:101178009FF020C0A0F0060EA5EC09F01EC09BF061
:101188001FC09CF020C09DF0090EA5EC09F01EC000
:1011980098F01FC099F020C09AF0150EDCEC0BF007
:1011A8000001AE6F0001AE51236E246A010E2312B6
:1011B800000E241223042410D8A404D0030E000126
:1011C800AE6F00D01200C28200D0C2B2FED7C4CF28
:1011D8001DF01E6A1D501E6E1D6A1D50C3101D6E27
:1011E8001E501E6E000E1D241B6EFE0E1E201C6E51
:1011F8001B50445C4550800A1A6E1C50800A1A58CD
:10120800D8A00AD046501B5C1C50800A1A6E475062
:10121800800A1A58D8B008D0000E0001AE6F1BC063
:1012280018F01CC019F005D0000E196E000E186ECB
:1012380000D0120000EE92F0200EEE6AE806FDE102
:1012480000EE38F00C0EEE6AE806FDE1CA0EF66E06
:10125800180EF76E000EF86E0900F5CFB2F009000F
:10126800F5CFB3F00900F5CFB4F0C60EF66E180E40
:10127800F76E000EF86E00EE44F010EE04F0090070
:10128800F5CFEEFFE550E150FAE100010EEF00F076
:10129800F29E84828490000E226E03D005D000F066
:1012A800222A070E2264FBD784848494010E25EC3D
:1012B8000CF087CF1EF083CF1FF0848484801FC07A
:1012C80020F0216A1EC01BF00F0E1B161B501D6E4E
:1012D8001C6A20501C10206E21501D10216EF28EA9
:1012E80020C019F021C01AF000D012001A6E3F0E6B
:1012F800C716000EC66E1A50C6121950C71205D06E
:10130800C78C13D0C78CC68810D01850000AD8B420
:10131800F7D7020AD8B4F6D7010AD8B4F4D705D05B
:10132800978E94860AD0949608D01A50040AD8B496
:10133800F7D7010AD8B4F5D7F6D79488949AC68A0D
:101348001200216EF2503F0BF26E000E226E020E5A
:10135800226401D014D02250010D3C0EF324D96E22
:10136800000EF420DA6E21502224186E196A1936FC
:10137800F9EC0BF0DF6E5BEC0CF0222AE8D7F250A8
:10138800C009F26E45EC0AF018C01EF019C01FF033
:101398001AC020F000D01200086E05C001F006C087
:1013A80002F007C003F0E3EC0AF0F2503F0BF26ED4
:1013B800000E096E020E096401D014D008C001F0B5
:1013C800026A0950010D3C0EF324D96E000EF42078
:1013D800DA6EDF50036E89EC0AF0082A5FEC0CF035
:1013E800092AE8D7F250C009F26E120000017551BF
:1013F8000001761100017711D8B40AD0000E00015F
:10140800751B000E0001761B800E0001771B00D0B3
:1014180072C066F073C067F074C068F075C069F098
:1014280076C06AF077C06BF0F1EC02F066C072F03B
:1014380067C073F068C074F000D01200000E00019D
:10144800A16F000E0001A26F000E0001A36F000E35
:101458000001A76F000E0001A86F000E0001A96F20
:10146800000E0001A46F000E0001A56F000E000120
:10147800A66F040ED56EDB0ED76E600ED66EF184A5
:1014880012001B0E426E000E436E42C0D9FF43C0CD
:10149800DAFF3CC0DFFF20EE01F04250D92643506E
:1014A800DA223DC0DFFF20EE02F04250D926435039
:1014B800DA223EC0DFFF1BC018F01CC019F01DC0A7
:1014C8001AF000D012001B0E426E000E436E42C08E
:1014D800D9FF43C0DAFF38C0DFFF20EE01F04250E9
:1014E800D9264350DA2239C0DFFF20EE02F04250FD
:1014F800D9264350DA223AC0DFFF1BC018F01CC0BF
:1015080019F01DC01AF000D01200000E046E02502F
:10151800030BAA6E01C0A9FF03C0A8FFA69EA69C44
:10152800A684000EF2BE010E046EF29E550EA76E42
:10153800AA0EA76EA68200D0A6B2FED704B002D02B
:10154800F29E01D0F28EA69412001A0E426E000E80
:10155800436E42C0D9FF43C0DAFFDF50386E20EE39
:1015680001F04250D9264350DA22DF50396E20EE7E
:1015780002F04250D9264350DA22DF503A6EFEEC90
:101588000AF03B6E120066C020F067C021F071ECD3
:101598000BF020C02FF021C030F022C031F0000E37
:1015A800326EB40E336E3D0E346EF5EC05F02FC07E
:1015B80066F030C067F031C068F000D01200010E4C
:1015C800426E000E436E42C0D9FF43C0DAFFDF50BF
:1015D8003C6E20EE01F04250D9264350DA22DF500B
:1015E8003D6E20EE02F04250D9264350DA22DF50F9
:1015F8003E6E1200000E186E000E196E030E1918BA
:10160800D8B40ED001D00CD01950010D380EF324E7
:10161800D96E000EF420DA6EDF501826192AEED79C
:10162800185000D0120095689968969096929694F2
:101638009A90968A968C968E88900A0E25EC0CF0D5
:101648008880140E1CEC0CF08490010E50EC0CF009
:101658008480849412009294938281A203D080841F
:10166800010E04D081B205D08094000E0001AD6F48
:1016780000D0C280C250010BC26E0D0EC16EB40EF6
:10168800C06E1200000182AF0ED081C083F082C00C
:1016980084F00001831F841F834B842B83C081F057
:1016A80084C082F004D081C081F082C082F0120030
:1016B80000D0D3A6FED717EC0BF0ECEC0BF02FEC18
:1016C8000BF096EC0BF022EC0AF012EC0CF063EC49
:1016D80005F049EC0CF08086120020C018F021C0FB
:1016E80019F01A6A8E0E1B6E000E1C6EF8EC06F0CE
:1016F80018C020F019C021F01AC022F000D0120042
:10170800185019101A10D8B406D0000E181A000E66
:10171800191A800E1A1A18C018F019C019F01AC030
:101728001AF01200989096989696989693809298A8
:10173800000EB86EB798B79A4C0EB76ECB68000E0D
:10174800B16E040ECA6E120056EC0CF08096D58E5F
:10175800F29E808800D0000ED76E000ED66E00D0A4
:10176800F2A4FED7F2948050F6D7120081B203D0CB
:101778008094000E08D081A209D00001AD51D8A4F0
:1017880005D08084010E0001AD6F00D01200066EF6
:10179800F2503F0BF26E06C001F0026A05C003F07A
:1017A80089EC0AF05FEC0CF0F250C009F26E1200FE
:1017B8001A6EF2503F0BF26E1AC018F0196AF9EC63
:1017C8000BF01B6EF250C009F26E1B5000D01200D5
:1017D8009488949A978E949C000E186E000E196E39
:1017E800040E7AEC09F09D8612001950030BAA6EBC
:1017F80018C0A9FFA69CA69EA68000F000F0A850DD
:1018080000D01200196E19C0C9FF9E96C9CF18F0F2
:1018180000D09EA6FED7C69C9E961200A69EA69CA9
:10182800A684A7EC08F03D0ED26EA084A284120014
:10183800186EFA0E00F0E82EFDD7182EFAD700D051
:101848001200186E030EE82EFED700F0182EFAD7F5
:1018580000D01200000EC96E00D09EA6FED79E963C
:10186800C95000D01200DB0ED76E600ED66E010E86
:101878000001B06FF2941200C9CFACF0828C9E9632
:101888009D96010E0001AF6F1200F28EF28CF28A63
:10189800D58EA08EA28E1200186E00F0182EFDD7DD
:1018A80000D012008088B750F00BB76E120000D03D
:1018B800A6B2FED7120000D0A6B2FED71200C8000A
:0618C80038FFC3F53C00EF
:020000040020DA
:08000000FFFFFFFFFFFFFFFF00
:020000040030CA
:0E000000FF061F1EF38385FFFFC0FFE0FF40D9
:00000001FF
