:040000000CEF00F011
:10000800FACF0AF0FBCF0BF0E9CF0CF0D5ED11F0E9
:0400180070EF12F083
:101000000058020807000A0E00019D6F000E000143
:10101000A06F000E00019F6F000E9E6FC3EC15F0D5
:10102000C0C0C9FF829C00D00001BE05D8A4EBD08F
:10103000000E0001BE6FF29E020E4118D8B410D00F
:10104000030E4118D8B40CD0040E4118D8B408D0FF
:10105000060E4118D8B404D0080E4118D8A45ED0AA
:10106000020E4118D8A409D0A1C01AF0A2C01BF0EA
:10107000A3C01CF00CEC15F034D0030E4118D8A41A
:1010800009D0A4C01AF0A5C01BF0A6C01CF00CEC3F
:1010900015F027D0040E4118D8A409D0ADC01AF01D
:1010A000AEC01BF0AFC01CF00CEC15F01AD0060E51
:1010B0004118D8A409D0AAC01AF0ABC01BF0ACC02C
:1010C0001CF00CEC15F00DD0080E4118D8A409D076
:1010D000A7C01AF0A8C01BF0A9C01CF00CEC15F0BA
:1010E00000D0829C000E0001A06F0FD012D0000132
:1010F000A051010D350EF324D96E000EF420DA6EE6
:10110000DF5094EC15F00001A02B030E0001A06548
:10111000EED7C9CF9CF09E96828C6DD04104D8B496
:101120000CD0050E4118D8B408D0070E4118D8B419
:1011300004D0090E4118D8A45AD0829C000E000198
:10114000A06F040E0001A019D8B411D001D00FD0A7
:101150000001A051010D350EF324D96E000EF420CC
:10116000DA6E03EC16F0DF6E0001A02BEAD7828C5A
:101170004104D8A40FD089EC14F018C03CF019C079
:101180003DF01AC03EF0030E0001BC6F000E0001DE
:10119000BB6F27D0050E4118D8A409D089EC14F0F4
:1011A00018C0ADF019C0AEF01AC0AFF01AD0070EDB
:1011B0004118D8A409D089EC14F018C0AAF019C0BD
:1011C000ABF01AC0ACF00DD0090E4118D8A409D06C
:1011D00089EC14F018C0A7F019C0A8F01AC0A9F043
:1011E00000D0C9CF9CF09E96C9EC10F004D0C9CFB6
:1011F0009CF09E9600D0F28E9D86829C00019D51AF
:10120000E3EC16F000D0828C84EC16F0829C0A0E7F
:10121000E3EC16F00001BB05D8A411D0828CF29E3D
:10122000E0EC12F018C088F019C089F026EC0DF03F
:10123000F28E829C00019D51E3EC16F000D000017B
:10124000BC05D8A432D00001BF05D8A42ED0828C12
:10125000F29E17EC13F019C069F01AC06AF02AEC7C
:1012600015F069C0A1F06AC0A2F06BC0A3F0A1C0E4
:1012700084F0A2C085F0A3C086F03CC087F03DC0DA
:1012800088F03EC089F08CEC0AF0B9C088F0BAC092
:1012900089F081EC11F0000E0001BF6FF28E829C8C
:1012A00000019D51E3EC16F053D0030E0001BC1970
:1012B000D8A430D0828CF29EDB0ED76E600ED66E34
:1012C00017EC13F019C069F01AC06AF02AEC15F097
:1012D00069C0A1F06AC0A2F06BC0A3F0A1C084F005
:1012E000A2C085F0A3C086F03CC087F03DC088F066
:1012F0003EC089F08CEC0AF0B9C088F0BAC089F021
:1013000081EC11F0F28ED58E829C00019D51E3ECB0
:1013100016F01ED00001BF05D8A41AD0828CF29E10
:1013200017EC13F019C069F01AC06AF02AEC15F036
:1013300069C0A1F06AC0A2F06BC0A3F0F28E000EEB
:101340000001BF6F829C00019D51E3EC16F000D0BC
:101350000001BD05D8A468D6828CADC093F0AEC0A4
:1013600094F0AFC095F0AAC096F0ABC097F0ACC0B7
:1013700098F0A7C099F0A8C09AF0A9C09BF0F29E7F
:10138000F29AF1EC0EF093C0ADF094C0AEF095C0BF
:10139000AFF096C0AAF097C0ABF098C0ACF099C07F
:1013A000A7F09AC0A8F09BC0A9F0D59EDB0ED76E1F
:1013B000600ED66EE70EB36E960EB26E030E00018F
:1013C000BC6F000E3C6E700E3D6E420E3E6E000E07
:1013D00000019F6F000E9E6FD58EB18055D017EC27
:1013E00013F019C069F01AC06AF02AEC15F069C050
:1013F000A1F06AC0A2F06BC0A3F0A1C084F0A2C0AB
:1014000085F0A3C086F03CC087F03DC088F03EC0A8
:1014100089F08CEC0AF0B9C088F0BAC089F081EC90
:1014200011F02AD09EC01FF09FC020F0000E226E47
:10143000030E216EEFEC15F0C40E1F24D96E000EC2
:101440002020DA6E17EC13F019C069F01AC06AF0A8
:101450002AEC15F069C0DEFF6AC0DEFF6BC0DEFF5C
:1014600000D0A1A2FED7A192E70EB36E960EB26E87
:1014700000019E4B9F2B00D0F2A4D4D7F294DB0E38
:10148000D76E600ED66E00D0580E00019E5D020E23
:1014900000019F59D8A0A3D7C40E256E000E266E5A
:1014A000CC0E276E070E286EF6EC0FF0C69A000ED3
:1014B000186E000E196E040E73EC13F0829C000E71
:1014C00000019F6F000E9E6F080E00019E1907E13C
:1014D000070E00019F19D8B412D001D010D0CC0E45
:1014E00000019E25D96E070E00019F21DA6EDF50A4
:1014F00094EC15F000019E4B9F2BE6D7F0D7C9CF97
:101500009CF09E96000E0001BD6FF28EF28CF28A66
:10151000828C8AD50CEF00F0030E0001BC19D8A410
:101520001FD0000E0001B06F000E0001B16F000E61
:101530000001B26F000E0001B66F000E0001B76F20
:10154000000E0001B86F000E0001B36F000E000125
:10155000B46F000E0001B56F010E0001BC6F00D02A
:1015600084C018F085C019F086C01AF03DEC16F062
:1015700018C069F019C06AF01AC06BF087C06CF02F
:1015800088C06DF089C06EF0E7EC0BF069C0B0F078
:101590006AC0B1F06BC0B2F0000E186E340E196E56
:1015A000430E1A6EB0C01BF0B1C01CF0B2C01DF0EB
:1015B00025EC12F0D8B018D0B0C075F0B1C076F0FC
:1015C000B2C077F0000E0001786FB40E0001796FA1
:1015D000430E00017A6F1DEC14F075C0B0F076C0B8
:1015E000B1F077C0B2F028D0B0C018F0B1C019F097
:1015F000B2C01AF0000E1B6E340E1C6EC30E1D6EB0
:1016000025EC12F0D8B018D0B0C069F0B1C06AF0C3
:10161000B2C06BF0000E00016C6FB40E00016D6F74
:10162000430E00016E6FE7EC0BF069C0B0F06AC0CA
:10163000B1F06BC0B2F000D0B6C018F0B7C019F06E
:10164000B8C01AF03DEC16F018C069F019C06AF085
:101650001AC06BF0B0C06CF0B1C06DF0B2C06EF0EB
:10166000E7EC0BF069C08AF06AC08BF06BC08CF0BD
:10167000B3C069F0B4C06AF0B5C06BF0B0C06CF034
:10168000B1C06DF0B2C06EF0E7EC0BF069C0B3F022
:101690006AC0B4F06BC0B5F0000E186EFA0E196E89
:1016A000440E1A6EB3C01BF0B4C01CF0B5C01DF0E0
:1016B00025EC12F0D8B00AD0000E0001B36FFA0E7C
:1016C0000001B46F440E0001B56F00D0B3C032F01A
:1016D000B4C033F0B5C034F0AAC02FF0ABC030F0C6
:1016E000ACC031F059EC0EF02FC08DF030C08EF050
:1016F00031C08FF0C1C032F0C2C033F0C3C034F08B
:101700008DC02FF08EC030F08FC031F059EC0EF04C
:101710002FC06CF030C06DF031C06EF0B0C032F050
:10172000B1C033F0B2C034F0ADC02FF0AEC030F075
:10173000AFC031F059EC0EF02FC069F030C06AF044
:1017400031C06BF0E7EC0BF069C090F06AC091F02B
:101750006BC092F0A7C032F0A8C033F0A9C034F03B
:10176000C1C023F0C2C024F0C3C025F08AC020F05D
:101770008BC021F08CC022F085EC0FF020C02FF040
:1017800021C030F022C031F059EC0EF02FC06CF0C7
:1017900030C06DF031C06EF090C069F091C06AF059
:1017A00092C06BF0E7EC0BF069C075F06AC076F0A0
:1017B0006BC077F0C0EC0DF075C0B9F076C0BAF030
:1017C000B0C0B6F0B1C0B7F0B2C0B8F012006BC094
:1017D0006FF00001706B716B00016A3500016F37AB
:1017E00001E3708100016F510001746F6EC06FF0F2
:1017F0000001706B716B00016D3500016F3701E303
:10180000708100016F510001736F0001745100017C
:10181000D8B411D0000173510001745DD8B012D05A
:101820000001745100080001732500016F6F180E4C
:1018300000016F6507D06CC069F06DC06AF06EC0C2
:101840006BF003D1000173510001D8B411D0000135
:1018500074510001735DD8B012D0000173510008BB
:101860000001742500016F6F180E00016F6507D02D
:1018700069C069F06AC06AF06BC06BF0E6D0060E12
:101880000001726F00016BAF03D00001728F00D0B6
:1018900000016EAF02D00001728D00016A8FFF0E51
:1018A00000016917FF0E00016A17000E00016B1797
:1018B00000016D8FFF0E00016C17FF0E00016D1708
:1018C000000E00016E17000173510001745DD8B065
:1018D00028D00001D8906C376D376E370001730740
:1018E0000001745100017319D8B413D000017207BC
:1018F00072C06FF0070E00016F17D8B40AD0E9D795
:1019000008D00001D8906B336A3369330001742B1F
:1019100000D00001735100017419D8B430D0F1D750
:101920002ED0000174510001735DD8B028D00001A1
:10193000D89069376A376B3700017407000174511A
:1019400000017319D8B413D00001720772C06FF090
:10195000070E00016F17D8B40AD0E9D708D00001EC
:10196000D8906E336D336C330001732B00D00001BF
:10197000735100017419D8B402D0F1D700D000011E
:1019800072AF12D0FF0E0001691BFF0E00016A1B2F
:10199000FF0E00016B1B010E00016927000E000104
:1019A0006A23000E00016B23000172AD13D0FF0EFD
:1019B00000016C1BFF0E00016D1BFF0E00016E1B72
:1019C000010E00016C27000E00016D23000E0001C6
:1019D0006E2300D0000E0001726F000169510001FA
:1019E0006C2700016A5100016D2300016B51000159
:1019F0006E2300016EAF16D0FF0E00016C1BFF0EB0
:101A000000016D1BFF0E00016E1B010E00016C2713
:101A1000000E00016D23000E00016E23010E000177
:101A2000726F00D06CC018F06DC019F06EC01AF063
:101A300074C01BF072C01CF066EC10F018C069F0A6
:101A400019C06AF01AC06BF000D0120045500001B6
:101A5000885D00018951800A00018A6F4650800A22
:101A600000018A59D8B002D0B78E0FD0000188513A
:101A7000435C4450800A00018A6F00018951800A4A
:101A800000018A59D8B005D0B79E000E0001BC6F86
:101A90002AD000018851435C4450800A00018A6FBB
:101AA00000018951800A00018A59D8A01CD04550F4
:101AB0000001885D00018951800A00018A6F46504B
:101AC000800A00018A59D8A00ED00001BC51D8A4C8
:101AD0000AD0000E0001896F000E886F000EB86EEC
:101AE000B79AB79800D045500001885D0001895130
:101AF000800A00018A6F4650800A00018A59D8A0E6
:101B00000ED000018851435C4450800A00018A6F66
:101B100000018951800A00018A59D8B030D088C0AC
:101B200084F089C085F0D9EC15F084C088F085C0B8
:101B300089F0D8900001883500018C6F000189354B
:101B400000018D6F8CC08AF08DC08BF00001D890A1
:101B50008B338A330001D8908B338A3300018A514A
:101B6000B86E8CC08AF0030E00018A1700018A3B10
:101B7000B75000018A19CF0B8A19B76E00D0120036
:101B800077C079F000017A6B7B6B0001763500013C
:101B9000793701E37A81000179510001836F0001F7
:101BA0008351D8A402D051D083D0170E0001796F91
:101BB00075C07AF076C07BF077C07CF0000179299F
:101BC00000017D6F05D00001D8907C337B337A33E0
:101BD00000017D2FF8D700017A5100017E6F0001CE
:101BE000768FFF0E00017517FF0E00017617000EAD
:101BF000000177170001755100017F6F00017651D8
:101C00000001806F000177510001816F0001826B3C
:101C10008E0E0001835F000183AF13D0000183515A
:101C2000800A8F0FD8B003D010D042D000D000016E
:101C3000D8908233813380337F330001833FF7D7DD
:101C40001FD0170E0001836514D0000E0001756FC0
:101C5000000E766F000E776F000E786F29D009D0D6
:101C60000001D8907F3780378137823700018307A2
:101C700000D0000183510001D8B402D0F1D700D0C8
:101C800000017E510001D8B40AD00001821F811FDB
:101C9000801F7F6D000E80238123822300D07FC0B0
:101CA00075F080C076F081C077F082C078F000D007
:101CB000120031C060F00001616B626B30340001D2
:101CC000603701E36181000160510001636F000131
:101CD0006351D8A402D013D083D034C060F0000187
:101CE000616B626B33340001603701E36181000195
:101CF00060510001686F00016851D8A407D0000E40
:101D00002F6E000E306E000E316E6AD000016851E9
:101D10007B0F0001632731C068F034500001681B5D
:101D2000800E00016817308E338EFF0E3216FF0EC4
:101D30003316000E3416000E0001646F000E000111
:101D4000656F000E0001666F070E0001676F00D01F
:101D50002FA00AD0325000016427335000016523C0
:101D600034500001662300D0D890313230322F3207
:101D7000D8903236333634360001672FE9D700D099
:101D8000090E0001676F00D02FA00AD03250000169
:101D9000642733500001652334500001662300D0CE
:101DA000D890313230322F320001D890663365330B
:101DB00064330001672FE8D700D064C018F065C015
:101DC00019F066C01AF063C01BF068C01CF066EC26
:101DD00010F018C02FF019C030F01AC031F000D048
:101DE0001200000E0001A16F000E0001A26F400E54
:101DF0000001A36F000E0001AA6F800E0001AB6FFF
:101E00003F0E0001AC6F000E0001AD6F000E00012F
:101E1000AE6F400E0001AF6F000E0001A76F000E05
:101E20000001A86F000E0001A96FDB0ED76E600ED7
:101E3000D66ED58E030E0001BC6F000E3C6E000EF8
:101E40003D6E000E3E6EF29EF29C00D017EC13F039
:101E500019C069F01AC06AF02AEC15F069C0A1F047
:101E60006AC0A2F06BC0A3F0A1C084F0A2C085F04C
:101E7000A3C086F03CC087F03DC088F03EC089F02A
:101E80008CEC0AF0B9C088F0BAC089F081EC11F08E
:101E900000D0F2A4FED7F294DB0ED76E600ED66EA1
:101EA000B0C075F0B1C076F0B2C077F0C0EC0DF004
:101EB00075C084F076C085F0D9EC15F0000185BFBF
:101EC00008D000018551C2E1020E0001845DD8B046
:101ED000BDD7000E0001AA6F000E0001AB6F000E0F
:101EE0000001AC6F000E0001AD6F000E0001AE6F7F
:101EF000000E0001AF6F000E0001A76F000E000181
:101F0000A86F000E0001A96F120022C026F0276AF8
:101F1000286A2134263601E3278026502D6E2D5065
:101F2000D8A402D00ED061D025C026F0276A286A36
:101F30002434263601E3278026502E6E2E50D8A456
:101F400007D0000E206E000E216E000E226E4DD0C6
:101F5000000E2A6E000E2B6E000E2C6E2E50890F76
:101F60002D5E22C02EF025502E1A800E2E16218EA8
:101F7000FF0E2016FF0E2116000E2216248EFF0ED5
:101F80002316FF0E2416000E2516180E296E00D0FB
:101F9000D8902A362B362C362350205C24502158DA
:101FA00025502258D8A007D02350205E2450215A13
:101FB0002550225A2A80D890203621362236292EC2
:101FC000E7D700D02AC018F02BC019F02CC01AF0A7
:101FD0002DC01BF02EC01CF066EC10F018C020F0D5
:101FE00019C021F01AC022F000D01200000E2C6E91
:101FF000000E2B6E2D0E3F6E000E406E000E2C6EEE
:10200000000E2B6E080E2B1806E1070E2C18D8B404
:102010005CD001D05AD0000E1B6E030E1A6E2BC07E
:1020200018F02CC019F045EC13F018C01FF019C0BF
:1020300020F0000E226E030E216EEFEC15F01F5003
:102040002524D96E20502620DA6EDECF2DF0DECF8B
:102050002EF0DDCF2FF03FC0D9FF40C0DAFF2B506C
:102060002724E16E2C502820E26EDFCFE7FF20EE20
:1020700001F03F50D9264050DA22010E2B24296E60
:10208000000E2C202A6E29502724E16E2A50282089
:10209000E26EDFCFE7FF20EE02F03F50D92640503E
:1020A000DA22020E2B24296E000E2C202A6E2950D3
:1020B0002724E16E2A502820E26EDFCFE7FF030ECF
:1020C0002B26000E2C229ED7A6D712001B50D8B468
:1020D00005D0185019101A10D8A40ED0000E186E82
:1020E000000E196E000E1A6E53D006D01B2AD8901F
:1020F0001A321932183200D0000E18141D6E000E5C
:1021000019141E6EFE0E1A141F6E1D501E101F1085
:10211000D8B40ED0EBD70CD01B2A010E1826000E17
:102120001922000E1A22D8901A321932183200D011
:10213000000E18141D6E000E19141E6EFF0E1A14D8
:102140001F6E1D501E101F10D8B408D0E5D706D042
:102150001B06D890183619361A3600D019BE04D08E
:10216000020E1B60F5D700D01BB002D0199E00D024
:10217000D8901B321B501A121C50D8B402D01A8EA1
:1021800000D018C018F019C019F01AC01AF000D009
:1021900012003CC01CF03DC01DF03EC01EF0000E01
:1021A000C9EC13F0ADC01CF0AEC01DF0AFC01EF006
:1021B000030EC9EC13F0AAC01CF0ABC01DF0ACC0FC
:1021C0001EF0060EC9EC13F0A7C01CF0A8C01DF04D
:1021D000A9C01EF0090EC9EC13F080CF1CF00C0E44
:1021E00073EC16F081CF1CF00D0E73EC16F082CF5D
:1021F0001CF00E0E73EC16F083CF1CF00F0E73EC78
:1022000016F084CF1CF0100E73EC16F085CF1CF086
:10221000110E73EC16F086CF1CF0120E73EC16F054
:1022200087CF1CF0130E73EC16F088CF1CF0140E41
:1022300073EC16F0BCC01CF0150E73EC16F0010E1A
:102240001C6E160E73EC16F012003CC005F03DC07B
:1022500006F03EC007F0000EF3EC13F0ADC005F041
:10226000AEC006F0AFC007F0030EF3EC13F0AAC047
:1022700005F0ABC006F0ACC007F0060EF3EC13F0AF
:10228000A7C005F0A8C006F0A9C007F0090EF3EC3E
:1022900013F080CF05F00C0E95EC16F081CF05F011
:1022A0000D0E95EC16F082CF05F00E0E95EC16F0A3
:1022B00083CF05F00F0E95EC16F084CF05F0100ECD
:1022C00095EC16F085CF05F0110E95EC16F086CF43
:1022D00005F0120E95EC16F087CF05F0130E95EC75
:1022E00016F088CF05F0140E95EC16F0BCC005F082
:1022F000150E95EC16F0010E056E160E95EC16F007
:102300001200000189BF09D000018905D8A005D0BD
:10231000000E0001896F886910D0000189AF0DD0CF
:1023200000018805FF0E00018959D8B006D0FF0EC4
:102330000001896F010E886F00D0000189AF02D0C3
:10234000B78E0CD0000189BF09D00001895104E18A
:1023500000018805D8A002D0B79E00D088C084F0C4
:1023600089C085F0D9EC15F084C088F085C089F06B
:1023700088C08AF089C08BF000018B358B338A339B
:1023800000018B358B338A3300018A51B86E88C0C7
:102390008AF0030E00018A1700018A3BB750000142
:1023A0008A19CF0B8A19B76E12000600EACF0DF01A
:1023B000E1CF0EF0E2CF0FF0D9CF10F0DACF11F06D
:1023C000F3CF12F0F4CF13F0F6CF14F0F7CF15F0EF
:1023D000F8CF16F0F5CF17F0828C9EA603D02AEC2A
:1023E00016F000D0F2A403D0ECEC16F000D0F2A26C
:1023F00003D061EC16F000D0A1A406D0809880969E
:10240000809425EC11F000D0A1AE02D0FF0000D0E6
:1024100017C0F5FF16C0F8FF15C0F7FF14C0F6FF90
:1024200013C0F4FF12C0F3FF11C0DAFF10C0D9FFD0
:102430000FC0E2FF0EC0E1FF0DC0EAFF0CC0E9FFD4
:102440000BC0FBFF0AC0FAFF11001AAE17D018C06C
:102450001EF019C01FF01AC020F01E1E1F1E201EE5
:102460001E2A000E1F222022000E1E24186E000EAF
:102470001F20196E800E20201A6E00D01DAE17D0BE
:102480001BC01EF01CC01FF01DC020F01E1E1F1E12
:10249000201E1E2A000E1F222022000E1E241B6E4C
:1024A000000E1F201C6E800E20201D6E00D0000E1E
:1024B000181A000E191A800E1A1A000E1B1A000E96
:1024C0001C1A800E1D1A1B50185C1C5019581D50E8
:1024D0001A58D8B002D0D89002D0D88000D01200BC
:1024E00000EEC4F01EEE10F0EE6AE550E150FCE1A3
:1024F000E250FAE100EEA1F0200EEE6AE806FDE1FE
:1025000000EE35F00E0EEE6AE806FDE1210EF66EE5
:102510002E0EF76E000EF86E0900F5CFC1F009001F
:10252000F5CFC2F00900F5CFC3F01C0EF66E2E0EEB
:10253000F76E000EF86E00EE43F010EE05F00900A5
:10254000F5CFEEFFE550E150FAE1000103EF08F0AE
:10255000160EA6EC16F00009D8B431D0000E9EEC91
:1025600013F01EC03CF01FC03DF020C03EF0030E33
:102570009EEC13F01EC0ADF01FC0AEF020C0AFF057
:10258000060E9EEC13F01EC0AAF01FC0ABF020C0D8
:10259000ACF0090E9EEC13F01EC0A7F01FC0A8F00F
:1025A00020C0A9F0150EA6EC16F00001BC6F0001CA
:1025B000BC05D8A404D0030E0001BC6F00D01200EB
:1025C000C28200D0C2B2FED7C4CF1DF01E6A1D5019
:1025D0001E6E1D6A1D50C3101D6E1E501E6E000E15
:1025E0001D241B6EFE0E1E201C6E1B50435C4450AF
:1025F000800A1A6E1C50800A1A58D8A00AD045507A
:102600001B5C1C50800A1A6E4650800A1A58D8B0BB
:1026100008D0000E0001BC6F1BC018F01CC019F0E0
:1026200005D0000E196E000E186E00D01200F29E3A
:1026300084828490000E226E03D005D000F0222AFE
:10264000070E2264FBD784848494010EE3EC16F019
:1026500087CF1EF083CF1FF0848484801FC020F0BA
:10266000216A1EC01BF00F0E1B161B501D6E1C6A2C
:1026700020501C10206E21501D10216EF28E20C0A3
:1026800019F021C01AF000D01200000E1D6E000ECD
:102690001C6E1A501B10D8B421D0010E1E6E05D02E
:1026A000D8901A361B361E2A00D01BBE02D0F8D78F
:1026B00000D0D8901C361D361A50185C1B50195883
:1026C000D8A006D01A50185E1B50195A1C8000D092
:1026D000D8901B321A321E2EECD700D01CC018F036
:1026E0001DC019F012001A6E3F0EC716000EC66EFE
:1026F0001A50C6121950C71205D0C78C13D0C78CF8
:10270000C68810D01850000AD8B4F7D7020AD8B437
:10271000F6D7010AD8B4F4D705D0978E94860AD09C
:10272000949608D01A50040AD8B4F7D7010AD8B43E
:10273000F5D7F6D79488949AC68A1200216EF25083
:102740003F0BF26E000E226E020E226401D014D0F6
:102750002250010D390EF324D96E000EF420DA6EEA
:1027600021502224186E196A1936C3EC16F0DF6E58
:1027700006EC17F0222AE8D7F250C009F26E67EC97
:1027800014F018C01EF019C01FF01AC020F000D0BD
:1027900012001F6E1CC018F01DC019F01EC01AF0E8
:1027A00046EC15F0F2503F0BF26E000E206E020E5A
:1027B000206401D014D01FC018F0196A2050010DF8
:1027C000390EF324D96E000EF420DA6EDF501A6E43
:1027D000CCEC14F01F2A06EC17F0202AE8D7F250B0
:1027E000C009F26E1200086E05C001F006C002F0CA
:1027F00007C003F061EC15F0F2503F0BF26E000ED3
:10280000096E020E096401D014D008C001F0026AFA
:102810000950010D390EF324D96E000EF420DA6E42
:10282000DF50036EECEC14F0082A0AEC17F0092ACA
:10283000E8D7F250C009F26E120000017851000191
:10284000791100017A11D8B40AD0000E0001781B6A
:10285000000E0001791B800E00017A1B00D075C0AC
:1028600069F076C06AF077C06BF078C06CF079C020
:102870006DF07AC06EF0E7EC0BF069C075F06AC0DD
:1028800076F06BC077F000D01200000E0001B06F40
:10289000000E0001B16F000E0001B26F000E0001CA
:1028A000B66F000E0001B76F000E0001B86F000E8A
:1028B0000001B36F000E0001B46F000E0001B56F90
:1028C000040ED56EDB0ED76E600ED66E12001B0E98
:1028D0003F6E000E406E3FC0D9FF40C0DAFF39C0E6
:1028E000DFFF20EE01F03F50D9264050DA223AC0F7
:1028F000DFFF20EE02F03F50D9264050DA223BC0E5
:10290000DFFF1BC018F01CC019F01DC01AF000D06A
:1029100012001B0E3F6E000E406E3FC0D9FF40C03C
:10292000DAFF35C0DFFF20EE01F03F50D9264050DE
:10293000DA2236C0DFFF20EE02F03F50D9264050A9
:10294000DA2237C0DFFF1BC018F01CC019F01DC011
:102950001AF000D012004150D8B41BD00A0E4160CA
:1029600018D0000E186E000E196E030E1918D8B488
:102970000ED001D00CD01950010D350EF324D96EB4
:10298000000EF420DA6EDF501826192AEED7185000
:1029900002D0FF0E00D01200000E1B6E1950030B68
:1029A000AA6E18C0A9FF1AC0A8FFA69EA69CA6845E
:1029B000000EF2BE010E1B6EF29E550EA76EAA0E01
:1029C000A76EA68200D0A6B2FED71BB002D0F29EA0
:1029D00001D0F28EA6941200000E046E0250030B7A
:1029E000AA6E01C0A9FF03C0A8FFA69EA69CA6844C
:1029F000000EF2BE010E046EF29E550EA76EAA0ED8
:102A0000A76EA68200D0A6B2FED704B002D0F29E76
:102A100001D0F28EA69412001A0E3F6E000E406E88
:102A20003FC0D9FF40C0DAFFDF50356E20EE01F025
:102A30003F50D9264050DA22DF50366E20EE02F0A9
:102A40003F50D9264050DA22DF50376EABEC14F0FD
:102A5000386E120069C020F06AC021F017EC16F041
:102A600020C02FF021C030F022C031F0000E326EB5
:102A7000B40E336E3D0E346E59EC0EF02FC069F07B
:102A800030C06AF031C06BF000D01200180E3F6EFB
:102A9000000E406E3FC0D9FF40C0DAFFDF50396EF4
:102AA00020EE01F03F50D9264050DA22DF503A6E36
:102AB00020EE02F03F50D9264050DA22DF503B6E24
:102AC0001200010E3F6E000E406E3FC0D9FF40C0A5
:102AD000DAFFDF50396E20EE01F03F50D92640502A
:102AE000DA22DF503A6E20EE02F03F50D9264050F5
:102AF000DA22DF503B6E12009568996896909692A4
:102B000096949A90968A968C968E88900A0EE3EC0C
:102B100016F08880140EDAEC16F08490010EF5ECB5
:102B200016F0848084941200196E19C0C9FF9E9615
:102B3000C9CF18F09E90CD8047C0CFFF42C0CEFFD6
:102B400006D09EA004D09E86C9CF18F000D09EA6C5
:102B5000F8D7C69C9E9612009294938281A203D0CD
:102B60008084010E04D081B205D08094000E000153
:102B7000BB6F00D0C280C250010BC26E0D0EC16E81
:102B8000B40EC06E120000D0D3A6FED7828C7CECAF
:102B900015F0B6EC16F0ACEC15F04FEC16F045EC79
:102BA00014F0F1EC0EF0D0EC16F0FBEC16F0808691
:102BB0001200000185AF0ED084C086F085C087F07A
:102BC0000001861F871F864B872B86C084F087C035
:102BD00085F004D084C084F085C085F012001F50B9
:102BE0002102F3CF23F0F4CF24F01F502202F35040
:102BF000242620502102F350242623C01FF024C095
:102C000020F000D01200000EC96E9E90CD8047C00B
:102C1000CFFF42C0CEFF04D09EA002D09E8600D03F
:102C20009EA6FAD79E96C69CC95000D0120020C01E
:102C300018F021C019F01A6A8E0E1B6E000E1C6E61
:102C400066EC10F018C020F019C021F01AC022F074
:102C500000D01200828CF29EC9CF41F09E969D96C4
:102C60000A0E4118D8A404D0010E0001BD6F04D093
:102C7000010E0001BE6F00D01200185019101A107A
:102C8000D8B406D0000E181A000E191A800E1A1A9F
:102C900018C018F019C019F01AC01AF01200989054
:102CA00096989696989693809298000EB86EB798DC
:102CB000B79A4C0EB76ECB68000EB16E040ECA6E9A
:102CC000120001EC17F08096D58EF29E808800D01D
:102CD000000ED76E000ED66E00D0F2A4FED7F2948E
:102CE0008050F6D712001D6EF2503F0BF26E1DC0E1
:102CF00018F0196A1CC01AF0CCEC14F006EC17F0AE
:102D0000F250C009F26E120081B203D08094000E1E
:102D100008D081A209D00001BB51D8A405D080847D
:102D2000010E0001BB6F00D01200066EF2503F0B87
:102D3000F26E06C001F0026A05C003F0ECEC14F07C
:102D40000AEC17F0F250C009F26E12001A6EF2503F
:102D50003F0BF26E1AC018F0196AC3EC16F01B6E26
:102D6000F250C009F26E1B5000D012009488949A61
:102D7000978E949C000E186E000E196E040E73EC64
:102D800013F09D8612001950030BAA6E18C0A9FFFC
:102D9000A69CA69EA68000F000F0A85000D01200CD
:102DA000A69EA69CA684A8EC12F03D0ED26EA0842E
:102DB000A2841200186EFA0E00F0E82EFDD7182E2D
:102DC000FAD700D01200186E030EE82EFED700F0DE
:102DD000182EFAD700D01200DB0ED76E600ED66E1A
:102DE000010E0001BF6FF2941200186E00F0182E51
:102DF000FDD700D01200F28EF28CF28AD58EA08E12
:102E000012008088B750F00BB76E120000D0A6B247
:102E1000FED7120000D0A6B2FED71200C80038FFBD
:042E2000C0C3F53CFA
:020000040020DA
:08000000FFFFFFFFFFFFFFFF00
:020000040030CA
:0E000000FF061F1EF38385FFFFC0FFE0FF40D9
:00000001FF
