:040000000CEF00F011
:10000800FACF0AF0FBCF0BF0E9CF0CF02CED09F09A
:1000180036EF0AF0030E0001BB19D8A41FD0000E5A
:100028000001AF6F000E0001B06F000E0001B16F4C
:10003800000E0001B56F000E0001B66F000E000142
:10004800B76F000E0001B26F000E0001B36F000E13
:100058000001B46F010E0001BB6F00D088C018F01A
:1000680089C019F08AC01AF035EC0DF018C069F093
:1000780019C06AF01AC06BF08BC06CF08CC06DF0C0
:100088008DC06EF0B0EC03F069C0AFF06AC0B0F09C
:100098006BC0B1F0000E186E340E196E430E1A6E56
:1000A800AFC01BF0B0C01CF0B1C01DF07CEC09F073
:1000B800D8B018D0AFC075F0B0C076F0B1C077F046
:1000C800000E0001786FB40E0001796F430E000135
:1000D8007A6F3CEC0BF075C0AFF076C0B0F077C02B
:1000E800B1F028D0AFC018F0B0C019F0B1C01AF004
:1000F800000E1B6E340E1C6EC30E1D6E7CEC09F0D8
:10010800D8B018D0AFC069F0B0C06AF0B1C06BF019
:10011800000E00016C6FB40E00016D6F430E0001FC
:100128006E6FB0EC03F069C0AFF06AC0B0F06BC09E
:10013800B1F000D0B5C018F0B6C019F0B7C01AF0C9
:1001480035EC0DF018C069F019C06AF01AC06BF0F0
:10015800AFC06CF0B0C06DF0B1C06EF0B0EC03F0A1
:1001680069C097F06AC098F06BC099F0B2C069F0A6
:10017800B3C06AF0B4C06BF0AFC06CF0B0C06DF043
:10018800B1C06EF0B0EC03F069C0B2F06AC0B3F071
:100198006BC0B4F0000E186EFA0E196E440E1A6E8B
:1001A800B2C01BF0B3C01CF0B4C01DF07CEC09F069
:1001B800D8B00AD0000E0001B26FFA0E0001B36F7A
:1001C800440E0001B46F00D0AFC075F0B0C076F037
:1001D800B1C077F089EC05F075C084F076C085F081
:1001E800F8EC0CF0000185BF7FD00001855105E1D6
:1001F800020E0001845DD8A077D0B2C032F0B3C03F
:1002080033F0B4C034F0A9C02FF0AAC030F0ABC0AE
:1002180031F022EC06F02FC09AF030C09BF031C0CC
:100228009CF0BFC032F0C0C033F0C1C034F09AC0F7
:100238002FF09BC030F09CC031F022EC06F02FC0AC
:100248006CF030C06DF031C06EF0AFC032F0B0C0AD
:1002580033F0B1C034F0ACC02FF0ADC030F0AEC058
:1002680031F022EC06F02FC069F030C06AF031C0DE
:100278006BF0B0EC03F069C08EF06AC08FF06BC011
:1002880090F0A6C032F0A7C033F0A8C034F0BFC0C9
:1002980023F0C0C024F0C1C025F097C020F098C05A
:1002A80021F099C022F04CEC07F020C02FF021C0BB
:1002B80030F022C031F022EC06F02FC06CF030C0D4
:1002C8006DF031C06EF08EC069F08FC06AF090C0DA
:1002D8006BF0B0EC03F069C075F06AC076F06BC0E3
:1002E80077F089EC05F08AD0B2C032F0B3C033F0B1
:1002F800B4C034F0A9C02FF0AAC030F0ABC031F0C0
:1003080022EC06F02FC09AF030C09BF031C09CF070
:10031800BFC032F0C0C033F0C1C034F09AC02FF073
:100328009BC030F09CC031F022EC06F02FC091F059
:1003380030C092F031C093F09A0E326E990E336E3F
:100348003F0E346E91C02FF092C030F093C031F060
:1003580022EC06F02FC06CF030C06DF031C06EF0AA
:10036800AFC032F0B0C033F0B1C034F0ACC02FF041
:10037800ADC030F0AEC031F022EC06F02FC069F00D
:1003880030C06AF031C06BF0B0EC03F069C094F093
:100398006AC095F06BC096F0A6C032F0A7C033F0E3
:1003A800A8C034F0BFC023F0C0C024F0C1C025F0FD
:1003B80097C020F098C021F099C022F04CEC07F0CB
:1003C80020C02FF021C030F022C031F022EC06F01E
:1003D8002FC06CF030C06DF031C06EF094C069F081
:1003E80095C06AF096C06BF0B0EC03F069C075F088
:1003F8006AC076F06BC077F089EC05F075C0B8F08C
:1004080076C0B9F000D0AFC0B5F0B0C0B6F0B1C09A
:10041800B7F01200000E00019F6F0A0E00019E6FD8
:10042800E2EC0CF0BEC0C9FF829C00D00001BC0504
:10043800D8A4EBD0000E0001BC6FF29E020E41184A
:10044800D8B410D0030E4118D8B40CD0040E4118FB
:10045800D8B408D0060E4118D8B404D0080E4118F4
:10046800D8A45ED0020E4118D8A409D0A0C01AF0B2
:10047800A1C01BF0A2C01CF02BEC0CF034D0030E72
:100488004118D8A409D0A3C01AF0A4C01BF0A5C075
:100498001CF02BEC0CF027D0040E4118D8A409D07E
:1004A800ACC01AF0ADC01BF0AEC01CF02BEC0CF0C9
:1004B8001AD0060E4118D8A409D0A9C01AF0AAC0AB
:1004C8001BF0ABC01CF02BEC0CF00DD0080E411843
:1004D800D8A409D0A6C01AF0A7C01BF0A8C01CF069
:1004E8002BEC0CF000D0829C000E00019F6F0FD007
:1004F80012D000019F51010D350EF324D96E000E64
:10050800F420DA6EDF50B3EC0CF000019F2B030EE1
:1005180000019F65EED7C9CF9DF09E96828C6DD065
:100528004104D8B40CD0050E4118D8B408D0070E31
:100538004118D8B404D0090E4118D8A45AD0829CC6
:10054800000E00019F6F040E00019F19D8B411D04E
:1005580001D00FD000019F51010D350EF324D96E43
:10056800000EF420DA6E0EEC0DF0DF6E00019F2B0A
:10057800EAD7828C4104D8A40FD0A8EC0BF018C09D
:100588003CF019C03DF01AC03EF0030E0001BB6FED
:10059800000E0001BA6F27D0050E4118D8A409D063
:1005A800A8EC0BF018C0ACF019C0ADF01AC0AEF052
:1005B8001AD0070E4118D8A409D0A8EC0BF018C01F
:1005C800A9F019C0AAF01AC0ABF00DD0090E411855
:1005D800D8A409D0A8EC0BF018C0A6F019C0A7F051
:1005E8001AC0A8F000D0C9CF9DF09E9620EC08F064
:1005F80004D0C9CF9DF09E9600D0F28E9D86829C35
:1006080000019E51E5EC0DF000D0828C7CEC0DF0E1
:10061800829C0A0EE5EC0DF00001BA05D8A411D0B1
:10062800828CF29EFFEC09F018C088F019C089F09E
:10063800EFEC04F0F28E829C00019E51E5EC0DF087
:1006480000D00001BB05D8A432D00001BD05D8A454
:100658002ED0828CF29E64EC0AF019C069F01AC0A0
:100668006AF049EC0CF069C0A0F06AC0A1F06BC058
:10067800A2F0A0C088F0A1C089F0A2C08AF03CC056
:100688008BF03DC08CF03EC08DF00EEC00F0B8C091
:1006980088F0B9C089F0D8EC08F0000E0001BD6FF1
:1006A800F28E829C00019E51E5EC0DF0BFD6030E40
:1006B8000001BB19D8A430D0828CF29EDB0ED76E15
:1006C800600ED66E64EC0AF019C069F01AC06AF0C0
:1006D80049EC0CF069C0A0F06AC0A1F06BC0A2F0B0
:1006E800A0C088F0A1C089F0A2C08AF03CC08BF0FD
:1006F8003DC08CF03EC08DF00EEC00F0B8C088F024
:10070800B9C089F0D8EC08F0F28ED58E829C000131
:100718009E51E5EC0DF08AD60001BD05D8A486D619
:10072800828CF29E64EC0AF019C069F01AC06AF073
:1007380049EC0CF069C0A0F06AC0A1F06BC0A2F04F
:10074800F28E000E0001BD6F829C00019E51E5EC07
:100758000DF06CD60CEF00F06BC06FF00001706B01
:10076800716B00016A3500016F3701E37081000188
:100778006F510001746F6EC06FF00001706B716B88
:1007880000016D3500016F3701E3708100016F5181
:100798000001736F000174510001D8B411D0000139
:1007A80073510001745DD8B012D000017451000873
:1007B8000001732500016F6F180E00016F6507D0E7
:1007C8006CC069F06DC06AF06EC06BF003D10001B7
:1007D80073510001D8B411D0000174510001735D48
:1007E800D8B012D00001735100080001742500012F
:1007F8006F6F180E00016F6507D069C069F06AC095
:100808006AF06BC06BF0E6D0060E0001726F000153
:100818006BAF03D00001728F00D000016EAF02D021
:100828000001728D00016A8FFF0E00016917FF0E2B
:1008380000016A17000E00016B1700016D8FFF0E93
:1008480000016C17FF0E00016D17000E00016E17F6
:10085800000173510001745DD8B028D00001D89010
:100868006C376D376E370001730700017451000152
:100878007319D8B413D00001720772C06FF0070E55
:1008880000016F17D8B40AD0E9D708D00001D89072
:100898006B336A3369330001742B00D00001735144
:1008A80000017419D8B430D0F1D72ED0000174519A
:1008B8000001735DD8B028D00001D89069376A3735
:1008C8006B37000174070001745100017319D8B423
:1008D80013D00001720772C06FF0070E00016F1786
:1008E800D8B40AD0E9D708D00001D8906E336D3358
:1008F8006C330001732B00D000017351000174198F
:10090800D8B402D0F1D700D0000172AF12D0FF0ED8
:100918000001691BFF0E00016A1BFF0E00016B1B23
:10092800010E00016927000E00016A23000E000174
:100938006B23000172AD13D0FF0E00016C1BFF0E7C
:1009480000016D1BFF0E00016E1B010E00016C27DC
:10095800000E00016D23000E00016E2300D0000E72
:100968000001726F0001695100016C2700016A5192
:1009780000016D2300016B5100016E2300016EAF71
:1009880016D0FF0E00016C1BFF0E00016D1BFF0E41
:1009980000016E1B010E00016C27000E00016D2383
:1009A800000E00016E23010E0001726F00D06CC0B2
:1009B80018F06DC019F06EC01AF074C01BF072C048
:1009C8001CF0BDEC07F018C069F019C06AF01AC035
:1009D8006BF000D0120045500001885D000189517C
:1009E800800A00018A6F4650800A00018A59D8B0EF
:1009F80002D0B78E0FD000018851435C4450800A62
:100A080000018A6F00018951800A00018A59D8B013
:100A180005D0B79E000E0001BB6F2AD00001885197
:100A2800435C4450800A00018A6F00018951800AA2
:100A380000018A59D8A01CD045500001885D0001EA
:100A48008951800A00018A6F4650800A00018A593C
:100A5800D8A00ED00001BB51D8A40AD0000E0001C6
:100A6800896F000E886F000EB86EB79AB79800D0DD
:100A780045500001885D00018951800A00018A6F94
:100A88004650800A00018A59D8A00ED0000188512A
:100A9800435C4450800A00018A6F00018951800A32
:100AA80000018A59D8B030D088C084F089C085F058
:100AB800F8EC0CF084C088F085C089F0D89000016B
:100AC800883500018C6F0001893500018D6F8CC05D
:100AD8008AF08DC08BF00001D8908B338A330001E7
:100AE800D8908B338A3300018A51B86E8CC08AF053
:100AF800030E00018A1700018A3BB75000018A19CA
:100B0800CF0B8A19B76E00D0120077C079F00001B8
:100B18007A6B7B6B000176350001793701E37A81C6
:100B2800000179510001836F00018351D8A402D0DC
:100B380051D083D0170E0001796F75C07AF076C056
:100B48007BF077C07CF00001792900017D6F05D02A
:100B58000001D8907C337B337A3300017D2FF8D79E
:100B680000017A5100017E6F0001768FFF0E0001AF
:100B78007517FF0E00017617000E000177170001A8
:100B8800755100017F6F000176510001806F0001EF
:100B980077510001816F0001826B8E0E0001835F27
:100BA800000183AF13D000018351800A8F0FD8B0A2
:100BB80003D010D042D000D00001D89082338133C6
:100BC80080337F330001833FF7D71FD0170E000112
:100BD800836514D0000E0001756F000E766F000E4D
:100BE800776F000E786F29D009D00001D8907F3731
:100BF8008037813782370001830700D00001835195
:100C08000001D8B402D0F1D700D000017E51000114
:100C1800D8B40AD00001821F811F801F7F6D000E8B
:100C280080238123822300D07FC075F080C076F0B6
:100C380081C077F082C078F000D0120031C060F037
:100C48000001616B626B30340001603701E3618140
:100C5800000160510001636F00016351D8A402D004
:100C680013D083D034C060F00001616B626B333401
:100C78000001603701E36181000160510001686F84
:100C880000016851D8A407D0000E2F6E000E306EF8
:100C9800000E316E6AD0000168517B0F0001632796
:100CA80031C068F034500001681B800E00016817DD
:100CB800308E338EFF0E3216FF0E3316000E3416AA
:100CC800000E0001646F000E0001656F000E000148
:100CD800666F070E0001676F00D02FA00AD0325050
:100CE8000001642733500001652334500001662356
:100CF80000D0D890313230322F32D8903236333655
:100D080034360001672FE9D700D0090E0001676F5C
:100D180000D02FA00AD032500001642733500001C0
:100D2800652334500001662300D0D8903132303228
:100D38002F320001D8906633653364330001672F82
:100D4800E8D700D064C018F065C019F066C01AF082
:100D580063C01BF068C01CF0BDEC07F018C02FF092
:100D680019C030F01AC031F000D01200000E000196
:100D7800A06F000E0001A16F400E0001A26F000ECF
:100D88000001A96F800E0001AA6F3F0E0001AB6F32
:100D9800000E0001AC6F000E0001AD6F400E0001A7
:100DA800AE6FCD0E0001A66F4C0E0001A76F3D0E71
:100DB8000001A86FDB0ED76E600ED66ED58E030EBF
:100DC8000001BB6F000E3C6E000E3D6E000E3E6EC5
:100DD80000D064EC0AF019C069F01AC06AF049EC56
:100DE8000CF069C0A0F06AC0A1F06BC0A2F0A0C06E
:100DF80088F0A1C089F0A2C08AF03CC08BF03DC049
:100E08008CF03EC08DF00EEC00F0B8C088F0B9C090
:100E180089F0D8EC08F000D0F2A4FED7F294DB0EEB
:100E2800D76E600ED66EAFC075F0B0C076F0B1C0A8
:100E380077F089EC05F075C084F076C085F0F8ECA1
:100E48000CF0000185BF08D000018551C2E1020EF7
:100E58000001845DD8B0BDD7000E0001A96F000E57
:100E68000001AA6F000E0001AB6F000E0001AC6F0D
:100E7800000E0001AD6F000E0001AE6F000E000104
:100E8800A66F000E0001A76F000E0001A86F1200E8
:100E980022C026F0276A286A2134263601E32780F3
:100EA80026502D6E2D50D8A402D00ED061D025C06A
:100EB80026F0276A286A2434263601E3278026503C
:100EC8002E6E2E50D8A407D0000E206E000E216E74
:100ED800000E226E4DD0000E2A6E000E2B6E000EF4
:100EE8002C6E2E50890F2D5E22C02EF025502E1A02
:100EF800800E2E16218EFF0E2016FF0E2116000ED4
:100F08002216248EFF0E2316FF0E2416000E251619
:100F1800180E296E00D0D8902A362B362C3623503E
:100F2800205C2450215825502258D8A007D023509F
:100F3800205E2450215A2550225A2A80D8902036E3
:100F480021362236292EE7D700D02AC018F02BC028
:100F580019F02CC01AF02DC01BF02EC01CF0BDECEF
:100F680007F018C020F019C021F01AC022F000D0F4
:100F780012001B50D8B405D0185019101A10D8A454
:100F88000ED0000E186E000E196E000E1A6E53D099
:100F980006D01B2AD8901A321932183200D0000E07
:100FA80018141D6E000E19141E6EFE0E1A141F6EF4
:100FB8001D501E101F10D8B40ED0EBD70CD01B2A12
:100FC800010E1826000E1922000E1A22D8901A3285
:100FD8001932183200D0000E18141D6E000E1914A4
:100FE8001E6EFF0E1A141F6E1D501E101F10D8B44F
:100FF80008D0E5D706D01B06D890183619361A3609
:1010080000D019BE04D0020E1B60F5D700D01BB06B
:1010180002D0199E00D0D8901B321B501A121C50B7
:10102800D8B402D01A8E00D018C018F019C019F020
:101038001AC01AF000D012003CC01CF03DC01DF0D0
:101048003EC01EF0000EE8EC0AF0ACC01CF0ADC0CB
:101058001DF0AEC01EF0030EE8EC0AF0A9C01CF0AB
:10106800AAC01DF0ABC01EF0060EE8EC0AF0A6C040
:101078001CF0A7C01DF0A8C01EF0090EE8EC0AF08D
:1010880080CF1CF00C0E6BEC0DF081CF1CF00D0E18
:101098006BEC0DF082CF1CF00E0E6BEC0DF083CFD5
:1010A8001CF00F0E6BEC0DF084CF1CF0100E6BECE7
:1010B8000DF085CF1CF0110E6BEC0DF086CF1CF0F7
:1010C800120E6BEC0DF087CF1CF0130E6BEC0DF0CD
:1010D80088CF1CF0140E6BEC0DF0BBC01CF0150E85
:1010E8006BEC0DF0010E1C6E160E6BEC0DF0120081
:1010F8003CC005F03DC006F03EC007F0000E12EC03
:101108000BF0ACC005F0ADC006F0AEC007F0030EA2
:1011180012EC0BF0A9C005F0AAC006F0ABC007F0AE
:10112800060E12EC0BF0A6C005F0A7C006F0A8C08A
:1011380007F0090E12EC0BF080CF05F00C0E8DECC9
:101148000DF081CF05F00D0E8DEC0DF082CF05F07E
:101158000E0E8DEC0DF083CF05F00F0E8DEC0DF01B
:1011680084CF05F0100E8DEC0DF085CF05F0110E33
:101178008DEC0DF086CF05F0120E8DEC0DF087CFBB
:1011880005F0130E8DEC0DF088CF05F0140E8DECE4
:101198000DF0BBC005F0150E8DEC0DF0010E056EBF
:1011A800160E8DEC0DF01200000189BF09D0000168
:1011B8008905D8A005D0000E0001896F886910D074
:1011C800000189AF0DD000018805FF0E0001895983
:1011D800D8B006D0FF0E0001896F010E886F00D0CD
:1011E800000189AF02D0B78E0CD0000189BF09D0A9
:1011F8000001895104E100018805D8A002D0B79EFA
:1012080000D088C084F089C085F0F8EC0CF084C068
:1012180088F085C089F088C08AF089C08BF0000109
:101228008B358B338A3300018B358B338A3300013E
:101238008A51B86E88C08AF0030E00018A1700012F
:101248008A3BB75000018A19CF0B8A19B76E120072
:101258000600EACF0DF0E1CF0EF0E2CF0FF0D9CFC4
:1012680010F0DACF11F0F3CF12F0F4CF13F0F6CF7D
:1012780014F0F7CF15F0F8CF16F0F5CF17F0828CF1
:101288009EA603D0D2EC0DF000D0F2A403D0EEEC71
:101298000DF000D0F2A203D059EC0DF000D0A1A4BB
:1012A80006D08098809680947CEC08F000D0A1AE9F
:1012B80002D0FF0000D017C0F5FF16C0F8FF15C018
:1012C800F7FF14C0F6FF13C0F4FF12C0F3FF11C0FC
:1012D800DAFF10C0D9FF0FC0E2FF0EC0E1FF0DC05A
:1012E800EAFF0CC0E9FF0BC0FBFF0AC0FAFF1100C0
:1012F8001AAE17D018C01EF019C01FF01AC020F07F
:101308001E1E1F1E201E1E2A000E1F222022000E37
:101318001E24186E000E1F20196E800E20201A6ED3
:1013280000D01DAE17D01BC01EF01CC01FF01DC082
:1013380020F01E1E1F1E201E1E2A000E1F22202205
:10134800000E1E241B6E000E1F201C6E800E202017
:101358001D6E00D0000E181A000E191A800E1A1AE7
:10136800000E1B1A000E1C1A800E1D1A1B50185C4A
:101378001C5019581D501A58D8B002D0D89002D015
:10138800D88000D01200160E9EEC0DF00009D8B4DB
:1013980031D0000EBDEC0AF01EC03CF01FC03DF07D
:1013A80020C03EF0030EBDEC0AF01EC0ACF01FC01A
:1013B800ADF020C0AEF0060EBDEC0AF01EC0A9F0DC
:1013C8001FC0AAF020C0ABF0090EBDEC0AF01EC089
:1013D800A6F01FC0A7F020C0A8F0150E9EEC0DF0D7
:1013E8000001BB6F0001BB05D8A404D0030E0001A7
:1013F800BB6F00D01200C28200D0C2B2FED7C4CFE9
:101408001DF01E6A1D501E6E1D6A1D50C3101D6EF4
:101418001E501E6E000E1D241B6EFE0E1E201C6E1E
:101428001B50435C4450800A1A6E1C50800A1A589C
:10143800D8A00AD045501B5C1C50800A1A6E465032
:10144800800A1A58D8B008D0000E0001BB6F1BC024
:1014580018F01CC019F005D0000E196E000E186E99
:1014680000D0120000EEA0F01F0EEE6AE806FDE1C3
:1014780000EE35F00E0EEE6AE806FDE1250EF66E7A
:101488001C0EF76E000EF86E0900F5CFBFF00900CC
:10149800F5CFC0F00900F5CFC1F0200EF66E1C0E96
:1014A800F76E000EF86E00EE43F010EE05F009003E
:1014B800F5CFEEFFE550E150FAE100010EEF02F042
:1014C800F29E84828490000E226E03D005D000F034
:1014D800222A070E2264FBD784848494010EE5EC4B
:1014E8000DF087CF1EF083CF1FF0848484801FC047
:1014F80020F0216A1EC01BF00F0E1B161B501D6E1C
:101508001C6A20501C10206E21501D10216EF28E76
:1015180020C019F021C01AF000D012001A6E3F0E38
:10152800C716000EC66E1A50C6121950C71205D03B
:10153800C78C13D0C78CC68810D01850000AD8B4EE
:10154800F7D7020AD8B4F6D7010AD8B4F4D705D029
:10155800978E94860AD0949608D01A50040AD8B464
:10156800F7D7010AD8B4F5D7F6D79488949AC68ADB
:101578001200216EF2503F0BF26E000E226E020E28
:10158800226401D014D02250010D390EF324D96EF3
:10159800000EF420DA6E21502224186E196A1936CA
:1015A800BBEC0DF0DF6E08EC0EF0222AE8D7F25003
:1015B800C009F26E86EC0BF018C01EF019C01FF0BF
:1015C8001AC020F000D012001F6E1CC018F01DC0F9
:1015D80019F01EC01AF065EC0CF0F2503F0BF26ED9
:1015E800000E206E020E206401D014D01FC018F027
:1015F800196A2050010D390EF324D96E000EF4201B
:10160800DA6EDF501A6EEBEC0BF01F2A08EC0EF0C6
:10161800202AE8D7F250C009F26E1200086E05C001
:1016280001F006C002F007C003F080EC0CF0F250A5
:101638003F0BF26E000E096E020E096401D014D041
:1016480008C001F0026A0950010D390EF324D96E61
:10165800000EF420DA6EDF50036E0BEC0CF0082A53
:101668000CEC0EF0092AE8D7F250C009F26E12000D
:10167800000178510001791100017A11D8B40AD01B
:10168800000E0001781B000E0001791B800E00017E
:101698007A1B00D075C069F076C06AF077C06BF02D
:1016A80078C06CF079C06DF07AC06EF0B0EC03F0E1
:1016B80069C075F06AC076F06BC077F000D0120090
:1016C800000E0001AF6F000E0001B06F000E0001A8
:1016D800B16F000E0001B56F000E0001B66F000E6D
:1016E8000001B76F000E0001B26F000E0001B36F6A
:1016F800000E0001B46F040ED56EDB0ED76E600EBF
:10170800D66E12001B0E3F6E000E406E3FC0D9FF12
:1017180040C0DAFF39C0DFFF20EE01F03F50D92684
:101728004050DA223AC0DFFF20EE02F03F50D926BF
:101738004050DA223BC0DFFF1BC018F01CC019F074
:101748001DC01AF000D012001B0E3F6E000E406E36
:101758003FC0D9FF40C0DAFF35C0DFFF20EE01F0FF
:101768003F50D9264050DA2236C0DFFF20EE02F083
:101778003F50D9264050DA2237C0DFFF1BC018F08F
:101788001CC019F01DC01AF000D012004150D8B486
:101798001BD00A0E416018D0000E186E000E196E8C
:1017A800030E1918D8B40ED001D00CD01950010D61
:1017B800350EF324D96E000EF420DA6EDF501826A9
:1017C800192AEED7185002D0FF0E00D01200000ED2
:1017D8001B6E1950030BAA6E18C0A9FF1AC0A8FFE8
:1017E800A69EA69CA684000EF2BE010E1B6EF29E5B
:1017F800550EA76EAA0EA76EA68200D0A6B2FED777
:101808001BB002D0F29E01D0F28EA6941200000EF8
:10181800046E0250030BAA6E01C0A9FF03C0A8FF03
:10182800A69EA69CA684000EF2BE010E046EF29E31
:10183800550EA76EAA0EA76EA68200D0A6B2FED736
:1018480004B002D0F29E01D0F28EA69412001A0EB5
:101858003F6E000E406E3FC0D9FF40C0DAFFDF5038
:10186800356E20EE01F03F50D9264050DA22DF5085
:10187800366E20EE02F03F50D9264050DA22DF5073
:10188800376ECAEC0BF0386E120069C020F06AC0DF
:1018980021F022EC0DF020C02FF021C030F022C042
:1018A80031F0000E326EB40E336E3D0E346E22EC03
:1018B80006F02FC069F030C06AF031C06BF000D07C
:1018C8001200180E3F6E000E406E3FC0D9FF40C098
:1018D800DAFFDF50396E20EE01F03F50D926405034
:1018E800DA22DF503A6E20EE02F03F50D9264050FF
:1018F800DA22DF503B6E1200010E3F6E000E406E82
:101908003FC0D9FF40C0DAFFDF50396E20EE01F04A
:101918003F50D9264050DA22DF503A6E20EE02F0CE
:101928003F50D9264050DA22DF503B6E12009568AE
:1019380099689690969296949A90968A968C968E96
:1019480088900A0EE5EC0DF08880140EDCEC0DF0A2
:101958008490010EF7EC0DF0848084941200196EC7
:1019680019C0C9FF9E96C9CF18F09E90CD8047C078
:10197800CFFF42C0CEFF06D09EA004D09E86C9CF1E
:1019880018F000D09EA6F8D7C69C9E961200929496
:10199800938281A203D08084010E04D081B205D045
:1019A8008094000E0001BA6F00D0C280C250010BB3
:1019B800C26E0D0EC16EB40EC06E120000D0D3A65A
:1019C800FED7828C9BEC0CF0AEEC0DF0CBEC0CF05F
:1019D80047EC0DF064EC0BF0C8EC0DF0BAEC06F037
:1019E800FDEC0DF080861200000185AF0ED084C09A
:1019F80086F085C087F00001861F871F864B872BDE
:101A080086C084F087C085F004D084C084F085C087
:101A180085F01200000EC96E9E90CD8047C0CFFFA2
:101A280042C0CEFF04D09EA002D09E8600D09EA6C3
:101A3800FAD79E96C69CC95000D0120020C018F054
:101A480021C019F01A6A8E0E1B6E000E1C6EBDECBA
:101A580007F018C020F019C021F01AC022F000D0F9
:101A68001200185019101A10D8B406D0000E181AFF
:101A7800000E191A800E1A1A18C018F019C019F099
:101A88001AC01AF012009890969896969896938095
:101A98009298000EB86EB798B79A4C0EB76ECB688E
:101AA800000EB16E040ECA6E120003EC0EF08096A2
:101AB800D58EF29E808800D0000ED76E000ED66EAE
:101AC80000D0F2A4FED7F2948050F6D712001D6E13
:101AD800F2503F0BF26E1DC018F0196A1CC01AF0C4
:101AE800EBEC0BF008EC0EF0F250C009F26E1200AD
:101AF80081B203D08094000E08D081A209D00001E1
:101B0800BA51D8A405D08084010E0001BA6F00D064
:101B18001200066EF2503F0BF26E06C001F0026A28
:101B280005C003F00BEC0CF00CEC0EF0F250C00901
:101B3800F26E12001A6EF2503F0BF26E1AC018F0D5
:101B4800196ABBEC0DF01B6EF250C009F26E1B5007
:101B580000D012009488949A978E949C000E186E68
:101B6800000E196E040E92EC0AF09D8612001950B0
:101B7800030BAA6E18C0A9FFA69CA69EA68000F01B
:101B880000F0A85000D01200A69EA69CA684C7EC20
:101B980009F03D0ED26EA084A2841200828CF29EBF
:101BA800C9CF41F09E969D96010E0001BC6F1200B0
:101BB800186EFA0E00F0E82EFDD7182EFAD700D0CE
:101BC8001200186E030EE82EFED700F0182EFAD772
:101BD80000D01200DB0ED76E600ED66E010E00012B
:101BE800BD6FF2941200186E00F0182EFDD700D0C9
:101BF8001200F28EF28CF28AD58EA08E12008088A6
:101C0800B750F00BB76E120000D0A6B2FED7120084
:101C180000D0A6B2FED71200C80038FFC0C3F53CFA
:020000040020DA
:08000000FFFFFFFFFFFFFFFF00
:020000040030CA
:0E000000FF061F1EF38385FFFFC0FFE0FF40D9
:00000001FF
