:040000000CEF00F011
:10000800FACF0CF0FBCF0DF0E9CF0EF095ED06F02E
:100018004EEF08F0000E356E8DEC0AF0829CB4C0ED
:10002800C9FF00D00001B205D8A4E7D0000E000136
:10003800B26F020E0001B019D8B414D0030E00013B
:10004800B019D8B40FD0040E0001B019D8B40AD032
:10005800060E0001B019D8B405D0080E0001B01979
:10006800D8A45FD0020E0001B019D8A409D096C058
:100078001CF097C01DF098C01EF0F8EC09F038D0BD
:10008800030E0001B019D8A409D099C01CF09AC079
:100098001DF09BC01EF0F8EC09F02AD0040E0001F8
:1000A800B019D8A409D0A2C01CF0A3C01DF0A4C0E8
:1000B8001EF0F8EC09F01CD0060E0001B019D8A407
:1000C80009D09FC01CF0A0C01DF0A1C01EF0F8EC24
:1000D80009F00ED0080E0001B019D8A409D09CC0B0
:1000E8001CF09DC01DF09EC01EF0F8EC09F000D079
:1000F800F29E829C000E356E0DD00FD03550010D4A
:10010800360EF324D96E000EF420DA6EDF5035EC8B
:100118000BF0352A030E3564F1D7C9CF34F0F28ECF
:100128006AD00001B005D8B40FD0050E0001B0198F
:10013800D8B40AD0070E0001B019D8B405D0090EFA
:100148000001B019D8A457D0F29E829C000E356EDB
:10015800040E3518D8B40FD001D00DD03550010D8C
:10016800360EF324D96E000EF420DA6E54EC0BF040
:10017800DF6E352AEDD7F28E0001B005D8A40ED077
:1001880097EC09F01AC03DF01BC03EF01CC03FF0D0
:10019800030E426E000E0001B16F2AD0050E000159
:1001A800B019D8A409D097EC09F01AC0A2F01BC066
:1001B800A3F01CC0A4F01CD0070E0001B019D8A4ED
:1001C80009D097EC09F01AC09FF01BC0A0F01CC022
:1001D800A1F00ED0090E0001B019D8A409D097ECEF
:1001E80009F01AC09CF01BC09DF01CC09EF000D006
:1001F800C9CF34F000D09D8600D0E9EC0AF00001A8
:10020800B105D8A409D018EC08F01AC021F01BC019
:1002180022F04CEC05F000D04204D8A42DD0000107
:10022800B305D8A429D0828CF29E7CEC08F01BC0C0
:100238006CF01CC06DF0D9EC09F06CC096F06DC084
:1002480097F06EC098F096C087F097C088F098C075
:1002580089F03DC08AF03EC08BF03FC08CF073EC53
:1002680001F0AEC01EF0AFC01FF098EC07F0000E12
:100278000001B36FF28E2FD0030E4218D8A4D2D645
:10028800828CF29EDB0ED76E600ED66E7CEC08F088
:100298001BC06CF01CC06DF0D9EC09F06CC096F076
:1002A8006DC097F06EC098F096C087F097C088F040
:1002B80098C089F03DC08AF03EC08BF03FC08CF0FA
:1002C80073EC01F0AEC01EF0AFC01FF098EC07F061
:1002D800F28EF28AD58E829CA5D60CEF00F0030E22
:1002E8004218D8A41ED0000E0001A56F000E000110
:1002F800A66F000E0001A76F000E0001AB6F000E85
:100308000001AC6F000E0001AD6F000E0001A86F78
:10031800000E0001A96F000E0001AA6F010E426EC7
:1003280000D087C01AF088C01BF089C01CF0C5EC4B
:100338000AF01AC06CF01BC06DF01CC06EF08AC0C9
:100348006FF08BC070F08CC071F0CCEC02F06CC018
:10035800A5F06DC0A6F06EC0A7F0000E1A6E340EA0
:100368001B6E430E1C6EA5C01DF0A6C01EF0A7C0D4
:100378001FF04DEC07F0D8B018D0A5C078F0A6C093
:1003880079F0A7C07AF0000E00017B6FB40E00016F
:100398007C6F430E00017D6F2AEC09F078C0A5F050
:1003A80079C0A6F07AC0A7F028D0A5C01AF0A6C0D8
:1003B8001BF0A7C01CF0000E1D6E340E1E6EC30E7F
:1003C8001F6E4DEC07F0D8B018D0A5C06CF0A6C0D1
:1003D8006DF0A7C06EF0000E00016F6FB40E000143
:1003E800706F430E0001716FCCEC02F06CC0A5F089
:1003F8006DC0A6F06EC0A7F000D0ABC01AF0ACC0BC
:100408001BF0ADC01CF0C5EC0AF01AC06CF01BC0A4
:100418006DF01CC06EF0A5C06FF0A6C070F0A7C04C
:1004280071F0CCEC02F06CC08DF06DC08EF06EC037
:100438008FF0A8C06CF0A9C06DF0AAC06EF0A5C07E
:100448006FF0A6C070F0A7C071F0CCEC02F06CC0E1
:10045800A8F06DC0A9F06EC0AAF0000E1A6EFA0ED0
:100468001B6E440E1C6EA8C01DF0A9C01EF0AAC0C9
:100478001FF04DEC07F0D8B00AD0000E0001A86FAD
:10048800FA0E0001A96F440E0001AA6F00D0A8C09F
:1004980063F0A9C064F0AAC065F09FC060F0A0C076
:1004A80061F0A1C062F00BEC04F060C090F061C094
:1004B80091F062C092F0B5C063F0B6C064F0B7C006
:1004C80065F090C060F091C061F092C062F00BECF2
:1004D80004F060C06FF061C070F062C071F0A5C038
:1004E80063F0A6C064F0A7C065F0A2C060F0A3C026
:1004F80061F0A4C062F00BEC04F060C06CF061C065
:100508006DF062C06EF0CCEC02F06CC093F06DC080
:1005180094F06EC095F09CC063F09DC064F09EC0DE
:1005280065F0B5C025F0B6C026F0B7C027F08DC07D
:1005380022F08EC023F08FC024F0C1EC05F022C059
:1005480060F023C061F024C062F00BEC04F060C0DE
:100558006FF061C070F062C071F093C06CF094C02D
:100568006DF095C06EF0CCEC02F06CC078F06DC008
:1005780079F06EC07AF0B3EC04F078C0AEF079C0D0
:10058800AFF0A5C0ABF0A6C0ACF0A7C0ADF01200AC
:100598006EC072F00001736B746B00016D35000161
:1005A800723701E37381000172510001776F71C0E6
:1005B80072F00001736B746B0001703500017237C3
:1005C80001E37381000172510001766F00017751D8
:1005D8000001D8B411D0000176510001775DD8B080
:1005E80012D0000177510008000176250001726FD2
:1005F800180E0001726507D06FC06CF070C06DF006
:1006080071C06EF003D1000176510001D8B411D049
:10061800000177510001765DD8B012D00001765103
:100628000008000177250001726F180E000172653D
:1006380007D06CC06CF06DC06DF06EC06EF0E6D087
:10064800060E0001756F00016EAF03D00001758FB3
:1006580000D0000171AF02D00001758D00016D8FCF
:10066800FF0E00016C17FF0E00016D17000E000150
:100678006E170001708FFF0E00016F17FF0E00014B
:100688007017000E00017117000176510001775DA7
:10069800D8B028D00001D8906F3770377137000173
:1006A80076070001775100017619D8B413D00001FC
:1006B800750775C072F0070E00017217D8B40AD01A
:1006C800E9D708D00001D8906E336D336C33000140
:1006D800772B00D00001765100017719D8B430D0BB
:1006E800F1D72ED0000177510001765DD8B028D01F
:1006F8000001D8906C376D376E370001770700011D
:10070800775100017619D8B413D00001750775C068
:1007180072F0070E00017217D8B40AD0E9D708D0D2
:100728000001D890713370336F330001762B00D0FD
:100738000001765100017719D8B402D0F1D700D062
:10074800000175AF12D0FF0E00016C1BFF0E0001F7
:100758006D1BFF0E00016E1B010E00016C27000EC1
:1007680000016D23000E00016E23000175AD13D04A
:10077800FF0E00016F1BFF0E0001701BFF0E000132
:10078800711B010E00016F27000E00017023000E7F
:100798000001712300D0000E0001756F00016C513B
:1007A80000016F2700016D510001702300016E5197
:1007B80000017123000171AF16D0FF0E00016F1BFD
:1007C800FF0E0001701BFF0E0001711B010E0001DE
:1007D8006F27000E00017023000E00017123010E27
:1007E8000001756F00D06FC01AF070C01BF071C0A7
:1007F8001CF077C01DF075C01EF032EC06F01AC070
:100808006CF01BC06DF01CC06EF000D0120062C00E
:1008180031F0326A336A00016135313601E33280E2
:1008280031500001666F00016651D8A402D011D082
:1008380095D065C031F0326A336A000164353136CB
:1008480001E33280315000016B6F00016B51D8A475
:100858000AD0000E0001606F000E0001616F000EEB
:100868000001626F7BD000016B517B0F000166278E
:1008780062C06BF00001655100016B1B800E000126
:100888006B170001618F0001648FFF0E0001631771
:10089800FF0E00016417000E00016517000E00012D
:1008A800676F000E0001686F000E0001696F070E88
:1008B80000016A6F00D0000160A10DD000016351F2
:1008C8000001672700016451000168230001655198
:1008D8000001692300D00001D8906233613360338E
:1008E8000001D89063376437653700016A2FE3D772
:1008F80000D0090E00016A6F00D0000160A10DD080
:100908000001635100016727000164510001682359
:10091800000165510001692300D00001D8906233BD
:10092800613360330001D89069336833673300015D
:100938006A2FE3D700D067C01AF068C01BF069C0FF
:100948001CF066C01DF06BC01EF032EC06F01AC039
:1009580060F01BC061F01CC062F000D012007AC0C9
:100968007CF000017D6B7E6B0001793500017C37DE
:1009780001E37D8100017C510001866F00018651F1
:10098800D8A402D051D083D0170E00017C6F78C054
:100998007DF079C07EF07AC07FF000017C290001EB
:1009A800806F05D00001D8907F337E337D330001FE
:1009B800802FF8D700017D510001816F0001798FE8
:1009C800FF0E00017817FF0E00017917000E0001D5
:1009D8007A17000178510001826F000179510001F6
:1009E800836F00017A510001846F0001856B8E0EC0
:1009F8000001865F000186AF13D000018651800A8E
:100A08008F0FD8B003D010D042D000D00001D890BA
:100A180085338433833382330001863FF7D71FD071
:100A2800170E0001866514D0000E0001786F000EC5
:100A3800796F000E7A6F000E7B6F29D009D0000104
:100A4800D89082378337843785370001860700D0EE
:100A5800000186510001D8B402D0F1D700D00001BE
:100A680081510001D8B40AD00001851F841F831F5B
:100A7800826D000E83238423852300D082C078F002
:100A880083C079F084C07AF085C07BF000D0120072
:100A98004550215C2250800A236E4650800A235814
:100AA800D8B002D0B78E0BD02150435C4450800A96
:100AB800236E2250800A2358D8B004D0B79E000E67
:100AC800426E20D02150435C4450800A236E22504D
:100AD800800A2358D8A016D04550215C2250800A9D
:100AE800236E4650800A2358D8A00CD04250D8A470
:100AF80009D0000E226E000E216E000EB86EB79A55
:100B0800B79800D04550215C2250800A236E465089
:100B1800800A2358D8A00AD02150435C4450800A48
:100B2800236E2250800A2358D8B026D021C01AF04C
:100B380022C01BF079EC0AF01AC021F01BC022F089
:100B4800D8902134256E2234266E25C023F026C085
:100B580024F0D89024322332D890243223322350E0
:100B6800B86E25C023F0030E2316233AB750231876
:100B7800CF0B2318B76E00D0120024C028F0296AC2
:100B88002A6A2334283601E3298028502F6E2F50F3
:100B9800D8A402D00ED061D027C028F0296A2A6ACA
:100BA8002634283601E329802850306E3050D8A4E6
:100BB80007D0000E226E000E236E000E246E4DD05C
:100BC800000E2C6E000E2D6E000E2E6E3050890F0A
:100BD8002F5E24C030F02750301A800E3016238E36
:100BE800FF0E2216FF0E2316000E2416268EFF0E69
:100BF8002516FF0E2616000E2716180E2B6E00D08F
:100C0800D8902C362D362E362550225C2650235867
:100C180027502458D8A007D02550225E2650235AA2
:100C28002750245A2C80D8902236233624362B2E4F
:100C3800E7D700D02CC01AF02DC01BF02EC01CF036
:100C48002FC01DF030C01EF032EC06F01AC022F0A2
:100C58001BC023F01CC024F000D012001D50D8B4D3
:100C680005D01A501B101C10D8A40ED0000E1A6EF6
:100C7800000E1B6E000E1C6E53D006D01D2AD89095
:100C88001C321B321A3200D0000E1A141F6E000ECE
:100C98001B14206EFE0E1C14216E1F5020102110F4
:100CA800D8B40ED0EBD70CD01D2A010E1A26000E90
:100CB8001B22000E1C22D8901C321B321A3200D084
:100CC800000E1A141F6E000E1B14206EFF0E1C144B
:100CD800216E1F5020102110D8B408D0E5D706D0B7
:100CE8001D06D8901A361B361C3600D01BBE04D001
:100CF800020E1D60F5D700D01DB002D01B9E00D09B
:100D0800D8901D321D501C121E50D8B402D01C8E13
:100D180000D01AC01AF01BC01BF01CC01CF000D079
:100D280012000600EACF0FF0E1CF10F0E2CF11F089
:100D3800D9CF12F0DACF13F0F3CF14F0F4CF15F0C7
:100D4800F6CF16F0F7CF17F0F8CF18F0F5CF19F067
:100D5800828C9EA603D06FEC0BF000D0F2A40FD0CB
:100D680042500A6E0B6A010E0A12000E0B120A0498
:100D78000B10D8A404D066EC0BF0829C00D0F2A231
:100D880003D0D7EC0AF000D0A1A406D080988096B2
:100D98008094F1EC06F000D0A1AE02D0FF0000D0A4
:100DA80019C0F5FF18C0F8FF17C0F7FF16C0F6FF07
:100DB80015C0F4FF14C0F3FF13C0DAFF12C0D9FF47
:100DC80011C0E2FF10C0E1FF0FC0EAFF0EC0E9FF4B
:100DD8000DC0FBFF0CC0FAFF11003DC005F03EC07E
:100DE80006F03FC007F0000E00EC09F0A2C005F0C5
:100DF800A3C006F0A4C007F0030E00EC09F09FC0E2
:100E080005F0A0C006F0A1C007F0060E00EC09F03E
:100E18009CC005F09DC006F09EC007F0090E00ECCE
:100E280009F080CF05F00C0EFAEC0AF081CF05F03E
:100E38000D0EFAEC0AF082CF05F00E0EFAEC0AF06D
:100E480083CF05F00F0EFAEC0AF084CF05F0100EF0
:100E5800FAEC0AF085CF05F0110EFAEC0AF086CF0D
:100E680005F0120EFAEC0AF087CF05F0130EFAEC33
:100E78000AF088CF05F0140EFAEC0AF042C005F02B
:100E8800150EFAEC0AF0010E056E160EFAEC0AF0D1
:100E980012001CAE17D01AC020F01BC021F01CC0D5
:100EA80022F0201E211E221E202A000E212222228C
:100EB800000E20241A6E000E21201B6E800E2220A8
:100EC8001C6E00D01FAE17D01DC020F01EC021F030
:100ED8001FC022F0201E211E221E202A000E2122C1
:100EE8002222000E20241D6E000E21201E6E800E70
:100EF80022201F6E00D0000E1A1A000E1B1A800E38
:100F08001C1A000E1D1A000E1E1A800E1F1A1D50E4
:100F18001A5C1E501B581F501C58D8B002D0D890CD
:100F280002D0D88000D012001FBE07D01F04D8A05E
:100F380004D0000E1F6E1E680CD01FAE0AD01E040F
:100F4800FF0E1F58D8B005D0FF0E1F6E010E1E6E83
:100F580000D01FAE02D0B78E09D01FBE07D01F50D9
:100F680003E11E04D8A002D0B79E00D01EC01AF01C
:100F78001FC01BF079EC0AF01AC01EF01BC01FF04E
:100F88001EC020F01FC021F021342132203221342C
:100F9800213220322050B86E1EC020F0030E2016D9
:100FA800203AB7502018CF0B2018B76E1200160E33
:100FB8000BEC0BF00009D8B436D0000ED5EC08F0D5
:100FC80020C03DF021C03EF022C03FF0030ED5EC1A
:100FD80008F020C0A2F021C0A3F022C0A4F0060EA1
:100FE800D5EC08F020C09FF021C0A0F022C0A1F0ED
:100FF800090ED5EC08F020C09CF021C09DF022C05D
:101008009EF0150E0BEC0BF0426E4250256E266AD0
:10101800010E2512000E261225042610D8A403D08E
:10102800030E426E00D01200C28200D0C2B2FED7B8
:10103800C4CF1FF0206A1F50206E1F6A1F50C310B4
:101048001F6E2050206E000E1F241D6EFE0E2020E5
:101058001E6E1D50435C4450800A1C6E1E50800A50
:101068001C58D8A00AD045501D5C1E50800A1C6E22
:101078004650800A1C58D8B007D0000E426E1DC0DA
:101088001AF01EC01BF005D0000E1B6E000E1A6E63
:1010980000D0120000EE96F01F0EEE6AE806FDE1A1
:1010A80000EE36F00D0EEE6AE806FDE1240EF66E4F
:1010B800170EF76E000EF86E0900F5CFB5F00900AF
:1010C800F5CFB6F00900F5CFB7F0200EF66E170E83
:1010D800F76E000EF86E00EE43F010EE04F0090013
:1010E800F5CFEEFFE550E150FAE100010EEF00F018
:1010F800F29E84828490000E246E03D005D000F006
:10110800242A070E2464FBD784848494010E5DECA2
:101118000BF087CF20F083CF21F08484848021C016
:1011280022F0236A20C01DF00F0E1D161D501F6EE1
:101138001E6A22501E10226E23501F10236EF28E3C
:1011480022C01BF023C01CF000D012001C6E3F0E02
:10115800C716000EC66E1C50C6121B50C71205D00B
:10116800C78C13D0C78CC68810D01A50000AD8B4C0
:10117800F7D7020AD8B4F6D7010AD8B4F4D705D0FD
:10118800978E94860AD0949608D01C50040AD8B436
:10119800F7D7010AD8B4F5D7F6D79488949AC68AAF
:1011A8001200236EF2503F0BF26E000E246E020EF8
:1011B800246401D014D02450010D3A0EF324D96EC2
:1011C800000EF420DA6E235024241A6E1B6A1B3694
:1011D80028EC0BF0DF6E88EC0BF0242AE8D7F250ED
:1011E800C009F26E75EC09F01AC020F01BC021F09E
:1011F8001CC022F000D01200086E05C001F006C025
:1012080002F007C003F016EC0AF0F2503F0BF26E42
:10121800000E096E020E096401D014D008C001F056
:10122800026A0950010D3A0EF324D96E000EF4201B
:10123800DA6EDF50036EB9EC09F0082A8CEC0BF07B
:10124800092AE8D7F250C009F26E120000017B515A
:1012580000017C1100017D11D8B40AD0000E0001F4
:101268007B1B000E00017C1B800E00017D1B00D043
:1012780078C06CF079C06DF07AC06EF07BC06FF00A
:101288007CC070F07DC071F0CCEC02F06CC078F0DE
:101298006DC079F06EC07AF000D01200000E000127
:1012A800A56F000E0001A66F000E0001A76F000ECB
:1012B8000001AB6F000E0001AC6F000E0001AD6FB6
:1012C800000E0001A86F000E0001A96F000E0001BA
:1012D800AA6F040ED56EDB0ED76E600ED66EF18443
:1012E80012001D0E406E000E416E40C0D9FF41C075
:1012F800DAFF3AC0DFFF20EE01F04050D926415016
:10130800DA223BC0DFFF20EE02F04050D9264150E0
:10131800DA223CC0DFFF1DC01AF01EC01BF01FC040
:101328001CF000D012001D0E406E000E416E40C031
:10133800D9FF41C0DAFF36C0DFFF20EE01F0405090
:10134800D9264150DA2237C0DFFF20EE02F04050A4
:10135800D9264150DA2238C0DFFF1DC01AF01EC05E
:101368001BF01FC01CF000D01200000E046E0250CB
:10137800030BAA6E01C0A9FF03C0A8FFA69EA69CE6
:10138800A684000EF2BE010E046EF29E550EA76EE4
:10139800AA0EA76EA68200D0A6B2FED704B002D0CD
:1013A800F29E01D0F28EA69412006CC022F06DC09D
:1013B80023F0A0EC0AF022C060F023C061F024C042
:1013C80062F0000E0001636FB40E0001646F3D0E01
:1013D8000001656F0BEC04F060C06CF061C06DF04B
:1013E80062C06EF000D012001C0E406E000E416EFE
:1013F80040C0D9FF41C0DAFFDF50366E20EE01F061
:101408004050D9264150DA22DF50376E20EE02F0E4
:101418004050D9264150DA22DF50386E31EC0AF0BC
:10142800396E1200010E406E000E416E40C0D9FFA9
:1014380041C0DAFFDF503A6E20EE01F04050D92665
:101448004150DA22DF503B6E20EE02F04050D926A0
:101458004150DA22DF503C6E1200000E1A6E000E68
:101468001B6E030E1B18D8B40ED001D00CD01B5025
:10147800010D360EF324D96E000EF420DA6EDF501B
:101488001A261B2AEED71A5000D0120095689968C0
:101498009690969296949A90968A968C968E889024
:1014A8000A0E5DEC0BF08880140E4BEC0BF0849068
:1014B800010E78EC0BF0848084941200929493824D
:1014C80081A203D08084010E04D081B205D080941B
:1014D800000E0001B16F00D0C280C250010BC26E75
:1014E8000D0EC16EB40EC06E12001BAE0DD01AC028
:1014F8001CF01BC01DF01C1E1D1E1C4A1D2A1CC0F2
:101508001AF01DC01BF004D01AC01AF01BC01BF043
:10151800120000D0D3A6FED74AEC0AF01BEC0BF061
:1015280062EC0AF0B3EC0AF052EC09F041EC0BF073
:101538007EEC0BF08086120022C01AF023C01BF04C
:101548001C6A8E0E1D6E000E1E6E32EC06F01AC05E
:1015580022F01BC023F01CC024F000D01200989089
:1015680096989696989693809298000EB86EB7982B
:10157800B79A4C0EB76ECB68000EB16E040ECA6EE9
:1015880012001A501B101C10D8B406D0000E1A1ADC
:10159800000E1B1A800E1C1A1AC01AF01BC01BF072
:1015A8001CC01CF0120083EC0BF08096D58EF29EC6
:1015B800808800D0000ED76E000ED66E00D0F2A440
:1015C800FED7F2948050F6D7120081B203D08094EF
:1015D800000E08D081A209D00001B151D8A405D0CD
:1015E8008084010E0001B16F00D01200066EF25027
:1015F8003F0BF26E06C001F0026A05C003F0B9ECB9
:1016080009F08CEC0BF0F250C009F26E12001C6E5F
:10161800F2503F0BF26E1CC01AF01B6A28EC0BF05C
:101628001D6EF250C009F26E1D5000D01200948851
:10163800949A978E949C000E1A6E000E1B6E040EE0
:10164800AAEC08F09D8612001B50030BAA6E1AC064
:10165800A9FFA69CA69EA68000F000F0A85000D086
:1016680012001B6E1BC0C9FF9E96C9CF1AF000D08E
:101678009EA6FED7C69C9E961200A69EA69CA684F1
:10168800DBEC07F03D0ED26EA084A28412001A6E25
:10169800FA0E00F0E82EFDD71A2EFAD700D0120065
:1016A800000EC96E00D09EA6FED79E96C95000D0E7
:1016B80012001A6E030EE82EFED700F01A2EFAD783
:1016C80000D01200DB0ED76E600ED66E010E000140
:1016D800B36FF2941200C9CFB0F0828C9E969D969B
:1016E800010E0001B26F12001A6E00F01A2EFDD71B
:1016F80000D01200F28EF28CA08EA28E120080888A
:10170800B750F00BB76E120000D0A6B2FED7120089
:1017180000D0A6B2FED71200C80038FFC3F53C00BF
:020000040020DA
:08000000FFFFFFFFFFFFFFFF00
:020000040030CA
:0E000000FF061F1EF38385FFFFC0FFE0FF40D9
:00000001FF
