:040000000CEF00F011
:10000800FACF0CF0FBCF0DF0E9CF0EF0D7ED06F0EC
:10001800BFEF08F0000E386E73EC0AF0829CB2C095
:10002800C9FF00D00001B005D8A4E8D0000E000137
:10003800B06F020E0001AD19D8B414D0030E000140
:10004800AD19D8B40FD0040E0001AD19D8B40AD038
:10005800060E0001AD19D8B405D0080E0001AD197F
:10006800D8A45FD0020E0001AD19D8A409D093C05E
:100078001CF094C01DF095C01EF0C2EC09F038D0F9
:10008800030E0001AD19D8A409D096C01CF097C082
:100098001DF098C01EF0C2EC09F02AD0040E000131
:1000A800AD19D8A409D09FC01CF0A0C01DF0A1C0F4
:1000B8001EF0C2EC09F01CD0060E0001AD19D8A440
:1000C80009D09CC01CF09DC01DF09EC01EF0C2EC63
:1000D80009F00ED0080E0001AD19D8A409D099C0B6
:1000E8001CF09AC01DF09BC01EF0C2EC09F000D0B5
:1000F800F29E829C000E386E0DD00FD03850010D44
:10010800390EF324D96E000EF420DA6EDF501BECA2
:100118000BF0382A030E3864F1D7C9CF37F0F28EC6
:100128006BD00001AD05D8B40FD0050E0001AD1994
:10013800D8B40AD0070E0001AD19D8B405D0090EFD
:100148000001AD19D8A458D0F29E829C000E386EDA
:10015800040E3818D8B40FD001D00DD03850010D86
:10016800390EF324D96E000EF420DA6E55EC0BF03C
:10017800DF6E382AEDD7F28E0001AD05D8A40FD076
:1001880080EC09F01AC040F01BC041F01CC042F0DE
:10019800030E0001AF6F000E0001AE6F2AD0050EEE
:1001A8000001AD19D8A409D080EC09F01AC09FF05D
:1001B8001BC0A0F01CC0A1F01CD0070E0001AD1997
:1001C800D8A409D080EC09F01AC09CF01BC09DF09F
:1001D8001CC09EF00ED0090E0001AD19D8A409D09C
:1001E80080EC09F01AC099F01BC09AF01CC09BF073
:1001F80000D0C9CF37F000D09D8600D0CFEC0AF0F0
:100208000001AE05D8A409D000EC08F01AC023F00C
:100218001BC024F0B2EC05F000D00001AF05D8A453
:100228002DD00001B105D8A429D0828CF29E3DECD6
:1002380008F01BC069F01CC06AF0E0EC09F069C066
:1002480093F06AC094F06BC095F093C084F094C0AA
:1002580085F095C086F040C087F041C088F042C064
:1002680089F076EC01F0ABC01EF0ACC01FF07DEC5D
:1002780007F0000E0001B16FF28E30D0030E0001BE
:10028800AF19D8A4CFD6828CF29EDB0ED76E600E43
:10029800D66E3DEC08F01BC069F01CC06AF0E0ECBB
:1002A80009F069C093F06AC094F06BC095F093C0F0
:1002B80084F094C085F095C086F040C087F041C0B6
:1002C80088F042C089F076EC01F0ABC01EF0ACC0FB
:1002D8001FF07DEC07F0F28EF28AD58E829CA2D6B2
:1002E8000CEF00F0030E0001AF19D8A41FD0000EC8
:1002F8000001A26F000E0001A36F000E0001A46FA1
:10030800000E0001A86F000E0001A96F000E000189
:10031800AA6F000E0001A56F000E0001A66F000E67
:100328000001A76F010E0001AF6F00D084C01AF062
:1003380085C01BF086C01CF0ABEC0AF01AC069F04F
:100348001BC06AF01CC06BF087C06CF088C06DF0F1
:1003580089C06EF0D1EC02F069C0A2F06AC0A3F0C7
:100368006BC0A4F0000E1A6E340E1B6E430E1C6E8A
:10037800A2C01DF0A3C01EF0A4C01FF032EC07F00D
:10038800D8B018D0A2C075F0A3C076F0A4C077F09A
:10039800000E0001786FB40E0001796F430E000162
:1003A8007A6F13EC09F075C0A2F076C0A3F077C09D
:1003B800A4F028D0A2C01AF0A3C01BF0A4C01CF05F
:1003C800000E1D6E340E1E6EC30E1F6E32EC07F04B
:1003D800D8B018D0A2C069F0A3C06AF0A4C06BF06E
:1003E800000E00016C6FB40E00016D6F430E00012A
:1003F8006E6FD1EC02F069C0A2F06AC0A3F06BC0C6
:10040800A4F000D0A8C01AF0A9C01BF0AAC01CF024
:10041800ABEC0AF01AC069F01BC06AF01CC06BF0A4
:10042800A2C06CF0A3C06DF0A4C06EF0D1EC02F0D5
:1004380069C08AF06AC08BF06BC08CF0A5C069F007
:10044800A6C06AF0A7C06BF0A2C06CF0A3C06DF0A4
:10045800A4C06EF0D1EC02F069C0A5F06AC0A6F0A5
:100468006BC0A7F0000E1A6EFA0E1B6E440E1C6EBF
:10047800A5C01DF0A6C01EF0A7C01FF032EC07F003
:10048800D8B00AD0000E0001A56FFA0E0001A66FC1
:10049800440E0001A76F00D0A5C034F0A6C035F007
:1004A800A7C036F09CC031F09DC032F09EC033F03A
:1004B800A9EC04F031C08DF032C08EF033C08FF05B
:1004C800B3C034F0B4C035F0B5C036F08DC031F0EB
:1004D8008EC032F08FC033F0A9EC04F031C06CF05C
:1004E80032C06DF033C06EF0A2C034F0A3C035F056
:1004F800A4C036F09FC031F0A0C032F0A1C033F0E4
:10050800A9EC04F031C069F032C06AF033C06BF076
:10051800D1EC02F069C090F06AC091F06BC092F023
:1005280099C034F09AC035F09BC036F0B3C025F0BE
:10053800B4C026F0B5C027F08AC022F08BC023F0E3
:100548008CC024F041EC05F022C031F023C032F019
:1005580024C033F0A9EC04F031C06CF032C06DF067
:1005680033C06EF090C069F091C06AF092C06BF031
:10057800D1EC02F069C075F06AC076F06BC077F014
:1005880010EC04F075C0ABF076C0ACF0A2C0A8F0D7
:10059800A3C0A9F0A4C0AAF012006BC06FF00001BC
:1005A800706B716B00016A3500016F3701E3708170
:1005B80000016F510001746F6EC06FF00001706B25
:1005C800716B00016D3500016F3701E37081000127
:1005D8006F510001736F000174510001D8B411D03C
:1005E800000173510001745DD8B012D0000174513C
:1005F80000080001732500016F6F180E00016F6578
:1006080007D06CC069F06DC06AF06EC06BF003D1A2
:10061800000173510001D8B411D0000174510001D8
:10062800735DD8B012D00001735100080001742521
:1006380000016F6F180E00016F6507D069C069F07F
:100648006AC06AF06BC06BF0E6D0060E0001726FEC
:1006580000016BAF03D00001728F00D000016EAFB4
:1006680002D00001728D00016A8FFF0E0001691728
:10067800FF0E00016A17000E00016B1700016D8F55
:10068800FF0E00016C17FF0E00016D17000E000130
:100698006E17000173510001745DD8B028D00001B5
:1006A800D8906C376D376E370001730700017451AD
:1006B80000017319D8B413D00001720772C06FF02B
:1006C800070E00016F17D8B40AD0E9D708D0000187
:1006D800D8906B336A3369330001742B00D0000162
:1006E800735100017419D8B430D0F1D72ED000015D
:1006F80074510001735DD8B028D00001D8906937D3
:100708006A376B37000174070001745100017319CF
:10071800D8B413D00001720772C06FF0070E000141
:100728006F17D8B40AD0E9D708D00001D8906E3333
:100738006D336C330001732B00D00001735100013D
:100748007419D8B402D0F1D700D0000172AF12D01A
:10075800FF0E0001691BFF0E00016A1BFF0E00015E
:100768006B1B010E00016927000E00016A23000EB1
:1007780000016B23000172AD13D0FF0E00016C1B4A
:10078800FF0E00016D1BFF0E00016E1B010E000124
:100798006C27000E00016D23000E00016E2300D0AF
:1007A800000E0001726F0001695100016C27000101
:1007B8006A5100016D2300016B5100016E23000195
:1007C8006EAF16D0FF0E00016C1BFF0E00016D1BF3
:1007D800FF0E00016E1B010E00016C27000E0001C8
:1007E8006D23000E00016E23010E0001726F00D010
:1007F8006CC01AF06DC01BF06EC01CF074C01DF008
:1008080072C01EF018EC06F01AC069F01BC06AF03E
:100818001CC06BF000D0120077C079F000017A6B31
:100828007B6B000176350001793701E37A8100019D
:1008380079510001836F00018351D8A402D051D0AF
:1008480083D0170E0001796F75C07AF076C07BF0FF
:1008580077C07CF00001792900017D6F05D0000187
:10086800D8907C337B337A3300017D2FF8D7000191
:100878007A5100017E6F0001768FFF0E0001751717
:10088800FF0E00017617000E000177170001755161
:1008980000017F6F000176510001806F00017751E0
:1008A8000001816F0001826B8E0E0001835F0001E1
:1008B80083AF13D000018351800A8F0FD8B003D0C3
:1008C80010D042D000D00001D890823381338033D9
:1008D8007F330001833FF7D71FD0170E00018365D0
:1008E80014D0000E0001756F000E766F000E776F42
:1008F800000E786F29D009D00001D8907F37803753
:10090800813782370001830700D00001835100013D
:10091800D8B402D0F1D700D000017E510001D8B47C
:100928000AD00001821F811F801F7F6D000E802367
:100938008123822300D07FC075F080C076F081C00B
:1009480077F082C078F000D0120033C060F0000168
:10095800616B626B32340001603701E36181000131
:1009680060510001636F00016351D8A402D013D015
:1009780083D036C060F00001616B626B35340001D2
:10098800603701E36181000160510001686F000177
:100998006851D8A407D0000E316E000E326E000EDA
:1009A800336E6AD0000168517B0F0001632733C0A2
:1009B80068F036500001681B800E00016817328EFF
:1009C800358EFF0E3416FF0E3516000E3616000E45
:1009D8000001646F000E0001656F000E0001666F74
:1009E800070E0001676F00D031A00AD03450000113
:1009F800642735500001652336500001662300D076
:100A0800D890333232323132D890343635363636A1
:100A18000001672FE9D700D0090E0001676F00D0E9
:100A280031A00AD0345000016427355000016523F5
:100A380036500001662300D0D8903332323231323A
:100A48000001D8906633653364330001672FE8D717
:100A580000D064C01AF065C01BF066C01CF063C00B
:100A68001DF068C01EF018EC06F01AC031F01BC06B
:100A780032F01CC033F000D0120024C028F0296ADC
:100A88002A6A2334283601E3298028502F6E2F50F4
:100A9800D8A402D00ED061D027C028F0296A2A6ACB
:100AA8002634283601E329802850306E3050D8A4E7
:100AB80007D0000E226E000E236E000E246E4DD05D
:100AC800000E2C6E000E2D6E000E2E6E3050890F0B
:100AD8002F5E24C030F02750301A800E3016238E37
:100AE800FF0E2216FF0E2316000E2416268EFF0E6A
:100AF8002516FF0E2616000E2716180E2B6E00D090
:100B0800D8902C362D362E362550225C2650235868
:100B180027502458D8A007D02550225E2650235AA3
:100B28002750245A2C80D8902236233624362B2E50
:100B3800E7D700D02CC01AF02DC01BF02EC01CF037
:100B48002FC01DF030C01EF018EC06F01AC022F0BD
:100B58001BC023F01CC024F000D01200000E0001BE
:100B6800AF6F4650256E266A2550235C2450800AB4
:100B7800276E2650800A2758D8B002D0B78E2ED0BC
:100B88004550256E266A2350255C2650800A276E1C
:100B98002450800A2758D8B002D0B79E1FD045509D
:100BA800256E266A2350255C2650800A276E24501D
:100BB800800A2758D8A012D04650256E266A25509C
:100BC800235C2450800A276E2650800A2758D8A014
:100BD80005D0000E246E000E236E00D023C01AF03C
:100BE80024C01BF05FEC0AF01AC023F01BC024F0ED
:100BF800D8902334286E2434296E28C025F029C0C3
:100C080026F0D89026322532D89026322532255023
:100C1800B86E28C025F0030E2516253AB7502518BA
:100C2800CF0B2518B76E12001D50D8B405D01A5036
:100C38001B101C10D8A40ED0000E1A6E000E1B6ECE
:100C4800000E1C6E53D006D01D2AD8901C321B32C1
:100C58001A3200D0000E1A141F6E000E1B14206EDC
:100C6800FE0E1C14216E1F5020102110D8B40ED077
:100C7800EBD70CD01D2A010E1A26000E1B22000EDF
:100C88001C22D8901C321B321A3200D0000E1A14C3
:100C98001F6E000E1B14206EFF0E1C14216E1F50B9
:100CA80020102110D8B408D0E5D706D01D06D8905A
:100CB8001A361B361C3600D01BBE04D0020E1D602F
:100CC800F5D700D01DB002D01B9E00D0D8901D32A1
:100CD8001D501C121E50D8B402D01C8E00D01AC051
:100CE8001AF01BC01BF01CC01CF000D0120040C042
:100CF80005F041C006F042C007F0000EE9EC08F02C
:100D08009FC005F0A0C006F0A1C007F0030EE9ECF3
:100D180008F09CC005F09DC006F09EC007F0060EC6
:100D2800E9EC08F099C005F09AC006F09BC007F0FE
:100D3800090EE9EC08F080CF05F00C0EE0EC0AF0A3
:100D480081CF05F00D0EE0EC0AF082CF05F00E0E13
:100D5800E0EC0AF083CF05F00F0EE0EC0AF084CF48
:100D680005F0100EE0EC0AF085CF05F0110EE0EC6E
:100D78000AF086CF05F0120EE0EC0AF087CF05F0F6
:100D8800130EE0EC0AF088CF05F0140EE0EC0AF040
:100D9800AFC005F0150EE0EC0AF0010E056E160E58
:100DA800E0EC0AF012000600EACF0FF0E1CF10F0F5
:100DB800E2CF11F0D9CF12F0DACF13F0F3CF14F05D
:100DC800F4CF15F0F6CF16F0F7CF17F0F8CF18F0EC
:100DD800F5CF19F0828CF2A410D00001AF510A6E41
:100DE8000B6A010E0A12000E0B120A040B10D8A48B
:100DF80004D043EC0BF0829C00D0F2A203D0BDECEF
:100E08000AF000D0A1A406D08098809680947BEC4C
:100E180006F000D0A1BEFF009EA603D04CEC0BF05C
:100E280000D019C0F5FF18C0F8FF17C0F7FF16C0AB
:100E3800F6FF15C0F4FF14C0F3FF13C0DAFF12C0A9
:100E4800D9FF11C0E2FF10C0E1FF0FC0EAFF0EC0DA
:100E5800E9FF0DC0FBFF0CC0FAFF11001CAE17D054
:100E68001AC020F01BC021F01CC022F0201E211E39
:100E7800221E202A000E21222222000E20241A6E71
:100E8800000E21201B6E800E22201C6E00D01FAE8B
:100E980017D01DC020F01EC021F01FC022F0201E58
:100EA800211E221E202A000E21222222000E20248A
:100EB8001D6E000E21201E6E800E22201F6E00D097
:100EC800000E1A1A000E1B1A800E1C1A000E1D1A8C
:100ED800000E1E1A800E1F1A1D501A5C1E501B5839
:100EE8001F501C58D8B002D0D89002D0D88000D05B
:100EF80012001FBE07D01F04D8A004D0000E1F6E1A
:100F08001E680CD01FAE0AD01E04FF0E1F58D8B0A2
:100F180005D0FF0E1F6E010E1E6E00D01FAE02D050
:100F2800B78E09D01FBE07D01F5003E11E04D8A0FA
:100F380002D0B79E00D01EC01AF01FC01BF05FEC95
:100F48000AF01AC01EF01BC01FF01EC020F01FC000
:100F580021F0213421322032213421322032205014
:100F6800B86E1EC020F0030E2016203AB750201885
:100F7800CF0B2018B76E1200160EF1EC0AF000091C
:100F8800D8B439D0000E94EC08F020C040F021C04D
:100F980041F022C042F0030E94EC08F020C09FF00C
:100FA80021C0A0F022C0A1F0060E94EC08F020C0E9
:100FB8009CF021C09DF022C09EF0090E94EC08F030
:100FC80020C099F021C09AF022C09BF0150EF1ECD8
:100FD8000AF00001AF6F0001AF51256E266A010EBD
:100FE8002512000E261225042610D8A404D0030EBC
:100FF8000001AF6F00D01200C28200D0C2B2FED78B
:10100800C4CF21F0226A2150226E216A2150C310D8
:10101800216E2250226E000E21241F6EFE0E222009
:10102800206E45501C6E1D6A1F501C5C1D50800AA6
:101038001E6E2050800A1E58D8A00DD046501C6E37
:101048001D6A1C501F5C2050800A1E6E1D50800AAD
:101058001E58D8B008D0000E0001AF6F1FC01AF09C
:1010680020C01BF005D0000E1B6E000E1A6E00D0BB
:10107800120084828490000E246E03D005D000F004
:10108800242A070E2464FBD784848494010E3AEC46
:101098000BF087CF20F083CF21F08484848021C097
:1010A80022F0236A20C01DF00F0E1D161D501F6E62
:1010B8001E6A22501E10226E23501F10236E22C05B
:1010C8001BF023C01CF000D012001C6E3F0EC71688
:1010D800000EC66E1C50C6121B50C71205D0C78C16
:1010E80013D0C78CC68810D01A50000AD8B4F7D7C6
:1010F800020AD8B4F6D7010AD8B4F4D705D0978E27
:1011080094860AD0949608D01C50040AD8B4F7D70D
:10111800010AD8B4F5D7F6D79488949AC68A1200EB
:10112800236EF2503F0BF26E000E246E020E246402
:1011380001D014D02450010D3D0EF324D96E000EB9
:10114800F420DA6E235024241A6E1B6A1B360EEC28
:101158000BF0DF6E6DEC0BF0242AE8D7F250C009D3
:10116800F26E5EEC09F01AC020F01BC021F01CC022
:1011780022F000D0120000EE93F0200EEE6AE8068E
:10118800FDE100EE39F00C0EEE6AE806FDE1EA0E2C
:10119800F66E160EF76E000EF86E0900F5CFB3F076
:1011A8000900F5CFB4F00900F5CFB5F0ED0EF66EF5
:1011B800160EF76E000EF86E0900F5CF45F009001F
:1011C800F5CF46F000010EEF00F0086E05C001F003
:1011D80006C002F007C003F0FCEC09F0F2503F0B28
:1011E800F26E000E096E020E096401D014D008C018
:1011F80001F0026A0950010D3D0EF324D96E000E6C
:10120800F420DA6EDF50036EA2EC09F0082A71ECC4
:101218000BF0092AE8D7F250C009F26E120000015B
:1012280078510001791100017A11D8B40AD0000E62
:101238000001781B000E0001791B800E00017A1B4B
:1012480000D075C069F076C06AF077C06BF078C0DE
:101258006CF079C06DF07AC06EF0D1EC02F069C024
:1012680075F06AC076F06BC077F000D01200000EFF
:101278000001A26F000E0001A36F000E0001A46F11
:10128800000E0001A86F000E0001A96F000E0001FA
:10129800AA6F000E0001A56F000E0001A66F000ED8
:1012A8000001A76F040ED56EDB0ED76E600ED66EEA
:1012B800F18412001D0E436E000E446E43C0D9FF28
:1012C80044C0DAFF3DC0DFFF20EE01F04350D926CD
:1012D8004450DA223EC0DFFF20EE02F04350D92608
:1012E8004450DA223FC0DFFF1DC01AF01EC01BF0B9
:1012F8001FC01CF000D012001D0E436E000E446E7D
:1013080043C0D9FF44C0DAFF39C0DFFF20EE01F047
:101318004350D9264450DA223AC0DFFF20EE02F0CB
:101328004350D9264450DA223BC0DFFF1DC01AF0D3
:101338001EC01BF01FC01CF000D01200000E046E6F
:101348000250030BAA6E01C0A9FF03C0A8FFA69E06
:10135800A69CA684000EF2BE010E046EF29E550EE7
:10136800A76EAA0EA76EA68200D0A6B2FED704B0BA
:1013780002D0F29E01D0F28EA69412001C0E436E8B
:10138800000E446E43C0D9FF44C0DAFFDF50396E07
:1013980020EE01F04350D9264450DA22DF503A6E4D
:1013A80020EE02F04350D9264450DA22DF503B6E3B
:1013B80017EC0AF03C6E120069C022F06AC023F0F4
:1013C80086EC0AF022C031F023C032F024C033F09A
:1013D800000E346EB40E356E3D0E366EA9EC04F078
:1013E80031C069F032C06AF033C06BF000D012002F
:1013F800010E436E000E446E43C0D9FF44C0DAFFAD
:10140800DF503D6E20EE01F04350D9264450DA22D9
:10141800DF503E6E20EE02F04350D9264450DA22C7
:10142800DF503F6E1200000E1A6E000E1B6E030E88
:101438001B18D8B40ED001D00CD01B50010D390E9A
:10144800F324D96E000EF420DA6EDF501A261B2A18
:10145800EED71A5000D01200956899689690969227
:1014680096949A90968A968C968E88900A0E3AEC64
:101478000BF08880140E31EC0BF08490010E5DECBB
:101488000BF08480849412009294938281A203D0FA
:101498008084010E04D081B205D08094000E000132
:1014A800AE6F00D0C280C250010BC26E0D0EC16E6D
:1014B800B40EC06E12001BAE0DD01AC01CF01BC0BB
:1014C8001DF01C1E1D1E1C4A1D2A1CC01AF01DC022
:1014D8001BF004D01AC01AF01BC01BF0120000D079
:1014E800D3A6FED730EC0AF001EC0BF048EC0AF07A
:1014F80099EC0AF03BEC09F027EC0BF063EC0BF0ED
:101508008086120022C01AF023C01BF01C6A8E0EBF
:101518001D6E000E1E6E18EC06F01AC022F01BC0DD
:1015280023F01CC024F000D012009890969896964C
:10153800989693809298000EB86EB798B79A4C0E0A
:10154800B76ECB68000EB16E040ECA6E12001A5048
:101558001B101C10D8B406D0000E1A1A000E1B1A45
:10156800800E1C1A1AC01AF01BC01BF01CC01CF0FD
:10157800120068EC0BF08096D58EF29E808800D021
:10158800000ED76E000ED66E00D0F2A4FED7F294ED
:101598008050F6D7120081B203D08094000E08D094
:1015A80081A209D00001AE51D8A405D08084010ED3
:1015B8000001AE6F00D01200066EF2503F0BF26EC3
:1015C80006C001F0026A05C003F0A2EC09F071EC54
:1015D8000BF0F250C009F26E12001C6EF2503F0B75
:1015E800F26E1CC01AF01B6A0EEC0BF01D6EF25066
:1015F800C009F26E1D5000D012009488949A978EFC
:10160800949C000E1A6E000E1B6E040E69EC08F016
:101618009D8612001B50030BAA6E1AC0A9FFA69C38
:10162800A69EA68000F000F0A85000D012001B6E05
:101638001BC0C9FF9E96C9CF1AF000D09EA6FED740
:10164800C69C9E961200A69EA69CA684C0EC07F097
:101658003D0ED26EA084A28412001A6EFA0E00F01B
:10166800E82EFDD71A2EFAD700D012001A6E030EF4
:10167800E82EFED700F01A2EFAD700D01200DB0EA3
:10168800D76E600ED66E010E0001B16FF294120093
:10169800C9CFADF0828C9E969D96010E0001B06F69
:1016A8001200000EC96E00D0C7A0FED7C95000D0E6
:1016B80012001A6E00F01A2EFDD700D01200F28E1A
:1016C800F28CA08EA28E12008088B750F00BB76EF5
:1016D800120000D0A6B2FED7120000D0A6B2FED7E4
:0816E8001200C3F53C05FB00F4
:020000040020DA
:08000000FFFFFFFFFFFFFFFF00
:020000040030CA
:0E000000FF061F1EF38385FFFFC0FFE0FF40D9
:00000001FF
